:10000000A3C2000047C700001AC70000EDC60000E9
:10001000C0C6000093C6000066C6000039C60000D6
:100020000CC60000C2C20000C0C20000BEC2000078
:10003000BCC20000BAC20000B8C20000B6C20000D4
:10004000B4C20000B2C20000B0C20000AEC20000E4
:10005000ACC20000AAC20000A8C20000A4C50000F3
:10006000A4C20000A0C4000075C400009EC200002D
:100070009CC200009AC2000098C2000096C2000014
:1000800094C2000092C2000090C200008EC2000024
:100090008CC200008AC2000088C2000086C2000034
:1000A00084C2000082C2000080C200007EC2000044
:1000B0007CC200007AC2000078C2000076C2000054
:1000C00074C2000072C2000070C200006EC2000064
:1000D0006CC200006AC2000068C2000066C2000074
:1000E00064C2000020042304120416041C045A04F1
:1000F00027042B043104350439043F044304470426
:100100005A044D0451045504950497048D048F043A
:100110009104930499049B04C70791079907A507C5
:10012000B207D307E0070001010201020203010246
:100130000203020303040102020302030304020395
:10014000030403040405010202030203030402037F
:100150000304030404050203030403040405030465
:100160000405040505060102020302030304020359
:100170000304030404050203030403040405030445
:10018000040504050506020303040304040503042F
:100190000405040505060304040504050506040515
:1001A0000506050606070102020302030304020313
:1001B0000304030404050203030403040405030405
:1001C00004050405050602030304030404050304EF
:1001D00004050405050603040405040505060405D5
:1001E00005060506060702030304030404050304C9
:1001F00004050405050603040405040505060405B5
:10020000050605060607030404050405050604059E
:100210000506050606070405050605060607050684
:1002200006070607070800002100240027002A000F
:100230002D003000330001010000040107010A0114
:1002400000002200250028002B002E003100340081
:1002500002010000050108010B010000200023003D
:10026000260029002C002F003200000100000301AD
:100270000601090105050505070508080808020229
:1002800002020A0A08080404040401010101010130
:1002900001010303030303030303040707070C0C13
:1002A0000C0C0C0C0C0C02020202060606060606DA
:1002B00006060B0B0B0B0B0B0B0B0102102020087F
:1002C00008102040102040800201020108040201B1
:1002D0000102040810204080804020100804020120
:1002E0008004020180402010080402010804020179
:1002F0000102040810204080010204081020408000
:1003000000000A0B02090C0D0E080703040100008F
:1003100000000000000000000000000000000000DD
:10032000000000000000000000000000121110009A
:1003300000000000000000000000000000000000BD
:1003400000000000000000002110422063308440C3
:10035000A550C660E770088129914AA16BB18CC194
:10036000ADD1CEE1EFF13112100273325222B5520B
:100370009442F772D662399318837BB35AA3BDD3E4
:100380009CC3FFF3DEE36224433420040114E664DB
:10039000C774A44485546AA54BB528850995EEE534
:1003A000CFF5ACC58DD55336722611163006D776EB
:1003B000F6669556B4465BB77AA719973887DFF784
:1003C000FEE79DD7BCC7C448E5588668A7784008B3
:1003D000611802282338CCC9EDD98EE9AFF94889D4
:1003E00069990AA92BB9F55AD44AB77A966A711A4B
:1003F000500A333A122AFDDBDCCBBFFB9EEB799B24
:10040000588B3BBB1AABA66C877CE44CC55C222C9A
:10041000033C600C411CAEED8FFDECCDCDDD2AAD73
:100420000BBD688D499D977EB66ED55EF44E133E2A
:10043000322E511E700E9FFFBEEFDDDFFCCF1BBFC3
:100440003AAF599F788F8891A981CAB1EBA10CD19D
:100450002DC14EF16FE18010A100C230E3200450A5
:10046000254046706760B9839893FBA3DAB33DC318
:100470001CD37FE35EF3B1029012F322D2323542F5
:10048000145277625672EAB5CBA5A89589856EF5A8
:100490004FE52CD50DC5E234C324A0148104667445
:1004A000476424540544DBA7FAB79987B8975FE7F8
:1004B0007EF71DC73CD7D326F2369106B016576695
:1004C0007676154634564CD96DC90EF92FE9C89980
:1004D000E9898AB9ABA94458654806782768C018E5
:1004E000E1088238A3287DCB5CDB3FEB1EFBF98B58
:1004F000D89BBBAB9ABB754A545A376A167AF10A35
:10050000D01AB32A923A2EFD0FED6CDD4DCDAABD67
:100510008BADE89DC98D267C076C645C454CA23C84
:10052000832CE01CC10C1FEF3EFF5DCF7CDF9BAF37
:10053000BABFD98FF89F176E367E554E745E932ED4
:10054000B23ED10EF01E6E3A11241FBECFEFD1E2A3
:10055000DEBFCDBF00E00CBF12E0A0E0B2E0EAE1F8
:10056000FAE700E00BBF02C007900D92AA33B10773
:10057000D9F729E0AAE3B2E001C01D92A835B2077D
:10058000E1F712E0C4EAD2E000E006C021970109D9
:10059000802FFE010E94EB3CC33AD10780E00807A0
:1005A000A9F70E9465230C940B3D2ACDCF92DF92D0
:1005B000EF92FF920F931F93CF93DF936C017A0119
:1005C0008B01C0E0D0E0CE15DF0589F0D8016D9138
:1005D0008D01D601ED91FC910190F081E02DC601D5
:1005E0001995892B11F47E0102C02196ECCFC70129
:1005F000DF91CF911F910F91FF90EF90DF90CF90FF
:100600000895089580E090E00895FC01538D448D95
:10061000252F30E0842F90E0821B930B541710F0AD
:10062000CF96089501970895FC01918D828D9817BA
:1006300059F0828DDF01A80FB11D5D968C91928DCE
:100640009F5F928F90E008958FEF9FEF0895FC01D8
:10065000918D828D981731F0828DE80FF11D858D77
:1006600090E008958FEF9FEF0895FC01918D828DAA
:10067000981B892F90E008958BEF97E0F6DF21E03B
:10068000892B09F420E0822F0895FC01848DDF017D
:10069000A80FB11DA35EBE4F2C91848D90E00196F2
:1006A0008F739927848FA689B7892C93A089B189E4
:1006B0008C9180648C93938D848D981306C00288EE
:1006C000F389E02D80818F7D80830895EF92FF92E2
:1006D0000F931F93CF93DF93EC0181E0888F9B8D65
:1006E0008C8D981305C0E889F989808185FD23C028
:1006F000F62E0B8D10E00F5F1F4F0F731127E02EAA
:100700008C8DE8120BC00FB607FCFACFE889F98987
:10071000808185FFF5CFCE01B8DFF2CF8B8DFE0152
:10072000E80FF11DE35EFE4FF0820B8FEA89FB8933
:100730008081806207C0EE89FF896083E889F9893A
:1007400080818064808381E090E0DF91CF911F9170
:100750000F91FF90EF900895CF93DF93EC01888D78
:100760008823C1F0EA89FB89808185FD05C0A889BD
:10077000B9898C9186FD0EC00FB607FCF5CF80813C
:1007800085FFF2CFA889B9898C9185FFEDCFCE0185
:100790007CDFE8CFDF91CF91089580E090E0892B56
:1007A00019F06ADF811125C080E090E0892B41F0CB
:1007B00080E090E0892B21F00E94000081111CC094
:1007C00080E090E0892B41F080E090E0892B21F0DF
:1007D0000E940000811113C080E090E0892BA1F0FD
:1007E00080E090E0892B81F00E94000081110AC016
:1007F00008950E940000D8CF0E940000E1CF0E941F
:100800000000EACF0C940000089590E0FC013197BD
:10081000E231F10508F04EC08827EE58FF4F8F4FA8
:100820000C94EB3C809180008F7703C08091800016
:100830008F7D80938000089580918000877FF9CF1D
:1008400084B58F7702C084B58F7D84BD0895809173
:10085000B0008F7703C08091B0008F7D8093B0008F
:100860000895809190008F7707C0809190008F7DD0
:1008700003C080919000877F8093900008958091BD
:10088000A0008F7707C08091A0008F7D03C080916A
:10089000A000877F8093A0000895809120018F772A
:1008A00007C0809120018F7D03C080912001877F48
:1008B0008093200108953FB7F8948091C8079091E4
:1008C000C907A091CA07B091CB0726B5A89B05C060
:1008D0002F3F19F00196A11DB11D3FBFBA2FA92FBF
:1008E000982F8827820F911DA11DB11DBC01CD013C
:1008F00042E0660F771F881F991F4A95D1F7089528
:10090000982F482F50E048305105B0F4FA0188275D
:10091000EC57FF4F8F4F0C94EB3CE8980DC0E998D3
:100920000BC0EA9809C0EB9807C0EC9805C0ED9899
:1009300003C0EE9801C0EF98E92FF0E0EE0FFF1F23
:10094000EA5EFD4F87EA94E09183808308950895DD
:100950000E94073D1F920F920FB60F9211240BB603
:100960000F922F933F934F935F936F937F938F9348
:100970009F93AF93BF93EF93FF938BEF97E085DE49
:10098000FF91EF91BF91AF919F918F917F916F9167
:100990005F914F913F912F910F900BBE0F900FBE23
:1009A0000F901F9018951F920F920FB60F9211245F
:1009B0000BB60F922F938F939F93EF93FF93E0913A
:1009C0000B08F0910C088081E0911108F091120859
:1009D00082FD11C09081809114088F5F20911508CD
:1009E000821751F0E0911408F0E0E550F84F958F30
:1009F0008093140801C08081FF91EF919F918F91A6
:100A00002F910F900BBE0F900FBE0F901F90189557
:100A1000CF93DF93282F30E0F901E050FD4F849110
:100A2000F901E654FD4FD491F901EC58FD4FC49102
:100A3000CC2389F08111E9DEEC2FF0E0EE0FFF1FEF
:100A4000E65AFD4FA591B491EC91ED2381E090E041
:100A500021F480E002C080E090E0DF91CF91089522
:100A60001F93CF93DF93282F30E0F901E050FD4F23
:100A70008491F901E654FD4FD491F901EC58FD4FF2
:100A8000C491CC23C1F0162F8111BFDEEC2FF0E012
:100A9000EE0FFF1FE05CFD4FA591B4918FB7F89466
:100AA000111105C09C91ED2FE095E92302C0EC9156
:100AB000ED2BEC938FBFDF91CF911F910895CF93D2
:100AC000DF9390E0FC01E654FD4F2491FC01EC58CB
:100AD000FD4F8491882361F190E0880F991FFC01FC
:100AE000EA5DFD4FC591D491FC01E05CFD4FA591FD
:100AF000B491611109C09FB7F89488812095822331
:100B00008883EC912E230BC0623061F49FB7F89478
:100B10003881822F809583238883EC912E2B2C9310
:100B20009FBF06C08FB7F894E8812E2B28838FBF14
:100B3000DF91CF9108958F929F92AF92BF92CF9203
:100B4000DF92EF92FF926B017C01B5DE4B015C01FD
:100B5000C114D104E104F104E9F0ADDEDC01CB0104
:100B600088199909AA09BB09883E9340A105B105D6
:100B700078F321E0C21AD108E108F10888EE880E66
:100B800083E0981EA11CB11CC114D104E104F1043E
:100B900021F7DECFFF90EF90DF90CF90BF90AF9026
:100BA0009F908F9008951F920F920FB60F9211246D
:100BB0002F933F938F939F93AF93BF938091C407DD
:100BC0009091C507A091C607B091C7073091C307A0
:100BD00023E0230F2D3720F40196A11DB11D05C080
:100BE00026E8230F0296A11DB11D2093C307809311
:100BF000C4079093C507A093C607B093C707809119
:100C0000C8079091C907A091CA07B091CB07019678
:100C1000A11DB11D8093C8079093C907A093CA076F
:100C2000B093CB07BF91AF919F918F913F912F913F
:100C30000F900FBE0F901F9018951F920F920FB636
:100C40000F9211240BB60F922F933F934F935F9304
:100C50006F937F938F939F93AF93BF93EF93FF9384
:100C6000E0912402F09125021995FF91EF91BF9137
:100C7000AF919F918F917F916F915F914F913F9134
:100C80002F910F900BBE0F900FBE0F901F901895D5
:100C90001F920F920FB60F9211240BB60F922F9343
:100CA0003F934F935F936F937F938F939F93AF93F4
:100CB000BF93EF93FF93E0912202F09123021995E5
:100CC000FF91EF91BF91AF919F918F917F916F9124
:100CD0005F914F913F912F910F900BBE0F900FBEE0
:100CE0000F901F9018951F920F920FB60F9211241C
:100CF0000BB60F922F933F934F935F936F937F9316
:100D00008F939F93AF93BF93EF93FF93E09118025C
:100D1000F09119021995FF91EF91BF91AF919F91B9
:100D20008F917F916F915F914F913F912F910F9094
:100D30000BBE0F900FBE0F901F9018951F920F9231
:100D40000FB60F9211240BB60F922F933F934F9330
:100D50005F936F937F938F939F93AF93BF93EF9323
:100D6000FF93E0911602F09117021995FF91EF9110
:100D7000BF91AF919F918F917F916F915F914F91B3
:100D80003F912F910F900BBE0F900FBE0F901F90B1
:100D900018951F920F920FB60F9211240BB60F9257
:100DA0002F933F934F935F936F937F938F939F9373
:100DB000AF93BF93EF93FF93E0912002F091210254
:100DC0001995FF91EF91BF91AF919F918F917F9175
:100DD0006F915F914F913F912F910F900BBE0F90AC
:100DE0000FBE0F901F9018951F920F920FB60F9283
:100DF00011240BB60F922F933F934F935F936F93F2
:100E00007F938F939F93AF93BF93EF93FF93E09163
:100E10001E02F0911F021995FF91EF91BF91AF91C2
:100E20009F918F917F916F915F914F913F912F9102
:100E30000F900BBE0F900FBE0F901F9018951F9232
:100E40000F920FB60F9211240BB60F922F933F9370
:100E50004F935F936F937F938F939F93AF93BF93C2
:100E6000EF93FF93E0911C02F0911D021995FF9101
:100E7000EF91BF91AF919F918F917F916F915F9112
:100E80004F913F912F910F900BBE0F900FBE0F907F
:100E90001F9018951F920F920FB60F9211240BB648
:100EA0000F922F933F934F935F936F937F938F9303
:100EB0009F93AF93BF93EF93FF93E0911A02F0914A
:100EC0001B021995FF91EF91BF91AF919F918F9167
:100ED0007F916F915F914F913F912F910F900BBE3A
:100EE0000F900FBE0F901F901895883008F408CD12
:100EF0000895883008F070C0A82FB0E0AA0FBB1F7B
:100F0000AA5EBD4F11967C936E9390E0FC013197E1
:100F1000E730F105A0F58827E457FF4F8F4F0C9479
:100F2000EB3C809169008C7F482B40936900E89AE4
:100F3000089580916900440F551F440F551F837F0A
:100F4000482B40936900E99A08958091690074E004
:100F5000440F551F7A95E1F78F7C482B4093690029
:100F6000EA9A08958091690066E0440F551F6A95DA
:100F7000E1F78F73482B40936900EB9A08958091B5
:100F80006A008C7F482B40936A00EC9A0895809108
:100F90006A00440F551F440F551F837F482B409311
:100FA0006A00ED9A089580916A0024E0440F551F6D
:100FB0002A95E1F78F7C482B40936A00EE9A0895BA
:100FC00080916A0096E0440F551F9A95E1F78F7360
:100FD000482B40936A00EF9A089581E08093B3070D
:100FE0008093B20788E090E09093150280931402FA
:100FF00089E090E0909303028093020284E090E005
:1010000090931302809312028BE090E09093010280
:101010008093000280E074DC81E072DC8091B20792
:1010200043E050E060E67EE064CF1092B307109298
:10103000B20785E090E0909315028093140286E059
:1010400090E090930302809302028DE090E09093F1
:101050001302809312028CE090E09093010280933F
:10106000000280E04DDC81E04BDC8091B20743E080
:1010700050E060E67EE03DCFCF92DF92EF92FF92AC
:1010800080910507882349F080910507813029F078
:1010900080910507823009F0FBC180914402909154
:1010A0004502A0914602B09147028115924CAB4E89
:1010B000BB401CF41092B30703C081E08093B307D8
:1010C0008091B307811115C080914402909145022F
:1010D000A0914602B0914702BC01CD01605A76480A
:1010E000814091090E94963B20E030E041E65AE4BD
:1010F00014C08091440290914502A0914602B091A3
:101100004702BC01CD01605A7648814091090E9496
:10111000963B20E030E041EE5AE40E94003B6093B1
:10112000BF077093C0078093C1079093C207609177
:10113000BF077091C0078091C1079091C2070E94BC
:10114000D13B0E94683B6093BE07C090BF07D09020
:10115000C007E090C107F090C2078091BE07682FDA
:1011600070E080E090E00E94963B9B01AC01C701DB
:10117000B6010E949B3A20E030E040E057E40E9434
:10118000753C6093BF077093C0078093C10790932D
:10119000C2076091BF077091C0078091C10790910D
:1011A000C20720E030E040E05FE30E949C3A0E94EA
:1011B000D13B0E94683B7093BD076093BC0783E0FE
:1011C00090E0A0E0B0E08093B8079093B907A093B7
:1011D000BA07B093BB078091B8079091B907A09167
:1011E000BA07B091BB07BA2FA92F982F88278093F1
:1011F000B8079093B907A093BA07B093BB07809143
:10120000B8079091B907A091BA07B091BB07209198
:10121000BE07822B8093B8079093B907A093BA07B3
:10122000B093BB078091B8079091B907A091BA0716
:10123000B091BB076FE0880F991FAA1FBB1F6A956B
:10124000D1F78093B8079093B907A093BA07B093EA
:10125000BB074091B8075091B9076091BA077091E8
:10126000BB078091BC079091BD07A0E0B0E0842B44
:10127000952BA62BB72B8093B8079093B907A09313
:10128000BA07B093BB078091B8079091B907A091B6
:10129000BA07B091BB0774E0880F991FAA1FBB1F44
:1012A0007A95D1F78093B8079093B907A093BA07BE
:1012B000B093BB078091B30781110FC060914002CA
:1012C0007091410280914202909143020E94963BAC
:1012D00020E030E041E65AE40EC060914002709197
:1012E000410280914202909143020E94963B20E08D
:1012F00030E041EE5AE40E94003B6093BF077093D8
:10130000C0078093C1079093C2076091BF07709197
:10131000C0078091C1079091C2070E94D13B0E94F3
:10132000683B6093BE07C090BF07D090C007E090B5
:10133000C107F090C2078091BE07682F70E080E07F
:1013400090E00E94963B9B01AC01C701B6010E9450
:101350009B3A20E030E040E057E40E94753C609307
:10136000BF077093C0078093C1079093C207609135
:10137000BF077091C0078091C1079091C20720E01C
:1013800030E040E05FE30E949C3A0E94D13B0E9423
:10139000683B7093BD076093BC0782E090E0A0E0DB
:1013A000B0E08093B4079093B507A093B607B093CD
:1013B000B7078091B4079091B507A091B607B09197
:1013C000B707BA2FA92F982F88278093B407909337
:1013D000B507A093B607B093B7078091B407909173
:1013E000B507A091B607B091B7072091BE07822B31
:1013F0008093B4079093B507A093B607B093B7074F
:101400008091B4079091B507A091B607B091B70746
:101410003FE0880F991FAA1FBB1F3A95D1F7809311
:10142000B4079093B507A093B607B093B707409160
:10143000B4075091B5076091B6077091B7078091D6
:10144000BC079091BD07A0E0B0E0842B952BA62BA4
:10145000B72B8093B4079093B507A093B607B093CA
:10146000B7078091B4079091B507A091B607B091E6
:10147000B70744E0880F991FAA1FBB1F4A95D1F7F1
:101480008093B4079093B507A093B607B093B707BE
:10149000FF90EF90DF90CF90089580910507811124
:1014A0005DC085EF94E2A0E0B0E08093AE0790933A
:1014B000AF07A093B007B093B1070E944923809172
:1014C000B307811121C082E990EDA5E9B3E08093D3
:1014D000AE079093AF07A093B007B093B1070E94F7
:1014E000492383E590E8ADE4BAE28093AE07909398
:1014F000AF07A093B007B093B1070E94492384E1DE
:1015000098E3A9E2B0E020C082E990EDA5E6B1E061
:101510008093AE079093AF07A093B007B093B10745
:101520000E94492383E990ECACE4BAE28093AE07D1
:101530009093AF07A093B007B093B1070E944923DF
:1015400084E194ECA5E4B0E08093AE079093AF07FC
:10155000A093B007B093B1070E944923809105077B
:10156000882341F080910507813021F080910507A3
:10157000823091F48091B8079091B907A091BA0791
:10158000B091BB078093AE079093AF07A093B007CD
:10159000B093B1070C941323089580913F028034D7
:1015A00018F08FE380933F0280913F02823018F45D
:1015B00081E080933F028091050781116DC0809189
:1015C000B307811130C080913F0290E0A0E0B0E00D
:1015D0008093AE079093AF07A093B007B093B10785
:1015E0008091AE079091AF07A091B007B091B1077D
:1015F0003DE0880F991FAA1FBB1F3A95D1F7809332
:10160000AE079093AF07A093B007B093B107809156
:10161000AE079091AF07A091B007B091B107826972
:101620009861A06B2FC080913F0290E0A0E0B0E0F5
:101630008093AE079093AF07A093B007B093B10724
:101640008091AE079091AF07A091B007B091B1071C
:101650002DE0880F991FAA1FBB1F2A95D1F78093F1
:10166000AE079093AF07A093B007B093B1078091F6
:10167000AE079091AF07A091B007B091B107826912
:101680009861A0658093AE079093AF07A093B007D1
:10169000B093B1070E94492380910507813091F4EE
:1016A0008091B4079091B507A091B607B091B707A4
:1016B0008093AE079093AF07A093B007B093B107A4
:1016C0000E94492380910507882321F08091050716
:1016D000823091F48091B4079091B507A091B6073C
:1016E000B091B7078093AE079093AF07A093B00770
:1016F000B093B1070C9413230895809105078111CD
:1017000005C18091B8079091B907A091BA07B0912F
:10171000BB078093AE079093AF07A093B007B09339
:10172000B1070E9449238091B30781113DC081E236
:1017300090E5AFE1B2E08093AE079093AF07A0933E
:10174000B007B093B1070E94492383E590E8ADE468
:10175000BAE28093AE079093AF07A093B007B0931F
:10176000B1070E94492385EF94E2A0E0B0E08093A6
:10177000AE079093AF07A093B007B093B1070E9454
:10178000492384E198E3A9E2B0E08093AE07909307
:10179000AF07A093B007B093B1070E94492382E935
:1017A00098E1A0EBB0E041C081E190E5A7E5B0E0B1
:1017B0008093AE079093AF07A093B007B093B107A3
:1017C0000E94492383E990ECACE4BAE28093AE072F
:1017D0009093AF07A093B007B093B1070E9449233D
:1017E00085EF94E2A0E0B0E08093AE079093AF075E
:1017F000A093B007B093B1070E94492361E070E065
:1018000080E090E098D984E194ECA5E4B0E0809386
:10181000AE079093AF07A093B007B093B1070E94B3
:10182000492382E990EDA5E5B0E08093AE0790935F
:10183000AF07A093B007B093B1070E9449238FE090
:1018400090E0AEE0B0E08093AE079093AF07A09336
:10185000B007B093B1070E94492386E19EE0A7E05C
:10186000B5E08093AE079093AF07A093B007B09315
:10187000B1070E94492362E370E080E090E05BD909
:1018800089EE91E3A2E0B0E08093AE079093AF07BA
:10189000A093B007B093B1070E9449238AE397E46D
:1018A000A6E9B2E38093AE079093AF07A093B00789
:1018B000B093B1070E9449238BE390E0A0E0B0E031
:1018C0008093AE079093AF07A093B007B093B10792
:1018D0000E9449238CE091E0A0E0B0E08093AE0745
:1018E0009093AF07A093B007B093B1070E9449232C
:1018F0008DE090E0A0E0B0E08093AE079093AF075A
:10190000A093B007B093B1070E94492380910507C7
:10191000813009F0C8C08091B307811105C081E210
:1019200090EDAFE1B2E004C081E190EDA7E4B0E05A
:101930008093AE079093AF07A093B007B093B10721
:101940000E94492383ED90E8ACE4B6E38093AE07B0
:101950009093AF07A093B007B093B1070E944923BB
:1019600080E995EEA7EDB9E18093AE079093AF07BC
:10197000A093B007B093B1070E94492385EF94E28A
:10198000A0E0B0E08093AE079093AF07A093B007BC
:10199000B093B1070E94492384E398EEA6EFB1E823
:1019A0008093AE079093AF07A093B007B093B107B1
:1019B0000E9449238091B307811105C082EF90ED09
:1019C000A5E6B0E004C082EF90EDA5E3B0E080931F
:1019D000AE079093AF07A093B007B093B1070E94F2
:1019E00049238FE090E0AEE0B0E08093AE079093A3
:1019F000AF07A093B007B093B1070E94492386E0D8
:101A00009EE0A7E0B5E08093AE079093AF07A09368
:101A1000B007B093B1070E94492389EE91E3A2E099
:101A2000B0E08093AE079093AF07A093B007B09358
:101A3000B1070E9449238AE297E4AEE7B2E08093BF
:101A4000AE079093AF07A093B007B093B1070E9481
:101A500049238BE390E0A0E0B0E08093AE07909341
:101A6000AF07A093B007B093B1070E9449238CE061
:101A700091E0A0E0B0E08093AE079093AF07A09311
:101A8000B007B093B1070E9449238DE993E0A0E02D
:101A9000B0E08093AE079093AF07A093B007B093E8
:101AA000B1070E94492380910507823009F0C8C020
:101AB0008091B307811105C081E290EDAFE1B2E002
:101AC00004C081E190EDA7E4B0E08093AE0790936D
:101AD000AF07A093B007B093B1070E94492383E9F1
:101AE00090ECACE4BAE28093AE079093AF07A0937A
:101AF000B007B093B1070E94492380E995EEA7EDA6
:101B0000B9E18093AE079093AF07A093B007B0936D
:101B1000B1070E94492385EF94E2A0E0B0E08093F2
:101B2000AE079093AF07A093B007B093B1070E94A0
:101B3000492384E390E1A8E7B0E88093AE0790934F
:101B4000AF07A093B007B093B1070E9449238091DB
:101B5000B307811105C082EF90EDA5E8B0E004C0A5
:101B600082EF90EDA5E4B0E08093AE079093AF07CD
:101B7000A093B007B093B1070E9449238FE090E093
:101B8000AEE0B0E08093AE079093AF07A093B007AC
:101B9000B093B1070E94492386E09EE0A7E0B5E03C
:101BA0008093AE079093AF07A093B007B093B107AF
:101BB0000E94492389EE91E3A2E0B0E08093AE0752
:101BC0009093AF07A093B007B093B1070E94492349
:101BD0008AE297E4A6E9B2E38093AE079093AF0759
:101BE000A093B007B093B1070E9449238BE390E024
:101BF000A0E0B0E08093AE079093AF07A093B0074A
:101C0000B093B1070E9449238CE091E0A0E0B0E0DE
:101C10008093AE079093AF07A093B007B093B1073E
:101C20000E9449238DEB93E0A0E0B0E08093AE07E3
:101C30009093AF07A093B007B093B1070C944923DA
:101C4000089581E090E09C01220F331F220F331F83
:101C5000F901EA56F84F4081518162817381F9019F
:101C6000E452FD4F40835183628373830196863033
:101C7000910549F71092950710929407089581E015
:101C800090E0FC01EE0FFF1FEE0FFF1FEA56F84F2A
:101C90004081518162817381FC01EE0FFF1FEE0FC5
:101CA000FF1FE051FD4F4083518362837383019690
:101CB0008630910531F71092950710929407089598
:101CC0000F931F938091CD078F5F8093CD078091F5
:101CD000CD07823011F41092CD0780910A039091C4
:101CE0000B03019690930B0380930A038091D9070D
:101CF0009091DA0701969093DA078093D9072091A3
:101D0000D9073091DA0780916106909162068217B7
:101D1000930724F41092DA071092D90780915F0696
:101D2000909160068036994039F080915F069091DD
:101D30006006803C924131F460E086E30E94300509
:101D400061E005C060E086E30E94300560E087E363
:101D50000E9430052091D9073091DA0780915F0603
:101D6000909160062817390714F461E001C060E023
:101D700084E00E9430058091FA069091FB0601965E
:101D80009093FB068093FA068091050781115AC053
:101D90008091DE069091DF0601969093DF06809396
:101DA000DE068091DE069091DF068938934144F08B
:101DB00088E893E19093DF068093DE061092E006B8
:101DC00080911402909115020E940805892B21F040
:101DD0008091D807806803C08091D8078F7780935F
:101DE000D8078091D7078F5F8093D7078091D70757
:101DF000883009F5E0910B02F0910C028091D80730
:101E0000E45FFC4F808380910B0290910C0201975C
:101E100090930C0280930B0280910B0290910C0224
:101E2000892B31F48CE291E090930C0280930B02A9
:101E30001092D70707C08091D80790E095958795B5
:101E40008093D80780910507813009F0D4C4809130
:101E50009407909195070196909395078093940726
:101E60008091AA079091AB07A091AC07B091AD0704
:101E7000880F991FAA1FBB1F8093AA079093AB07D7
:101E8000A093AC07B093AD078091A6079091A707E8
:101E9000A091A807B091A907B7FD0AC08091AA0731
:101EA0009091AB07A091AC07B091AD078E7F09C0B0
:101EB0008091AA079091AB07A091AC07B091AD07B4
:101EC00081608093AA079093AB07A093AC07B0936F
:101ED000AD078091A6079091A707A091A807B091A0
:101EE000A907880F991FAA1FBB1F8093A60790936D
:101EF000A707A093A807B093A9078091A207909184
:101F0000A307A091A407B091A507B7FD0AC08091CF
:101F1000A6079091A707A091A807B091A9078E7F67
:101F200009C08091A6079091A707A091A807B0913A
:101F3000A90781608093A6079093A707A093A8079D
:101F4000B093A9078091A2079091A307A091A4073D
:101F5000B091A507880F991FAA1FBB1F8093A207E6
:101F60009093A307A093A407B093A50780919E0721
:101F700090919F07A091A007B091A107B7FD0AC05B
:101F80008091A2079091A307A091A407B091A50703
:101F90008E7F09C08091A2079091A307A091A4070A
:101FA000B091A50781608093A2079093A307A093A7
:101FB000A407B093A50780919E0790919F07A091D9
:101FC000A007B091A107880F991FAA1FBB1F80937C
:101FD0009E0790939F07A093A007B093A1078091BD
:101FE0009A0790919B07A0919C07B0919D07B7FD20
:101FF0000AC080919E0790919F07A091A007B09181
:10200000A1078E7F09C080919E0790919F07A091A4
:10201000A007B091A107816080939E0790939F07CE
:10202000A093A007B093A10780919A0790919B0776
:10203000A0919C07B0919D07880F991FAA1FBB1FF5
:1020400080939A0790939B07A0939C07B0939D075A
:1020500080911402909115020E940805892B51F479
:1020600080919A0790919B07A0919C07B0919D0742
:10207000816009C080919A0790919B07A0919C076D
:10208000B0919D078E7F80939A0790939B07A093B2
:102090009C07B0939D0780919E0790919F07A09108
:1020A000A007B091A107AF70BB27853D974FA74010
:1020B000B10579F480919A0790919B07A0919C07B4
:1020C000B0919D07807F803D9F4DA745BD4D09F490
:1020D00030C680919E0790919F07A091A007B09174
:1020E000A107AF70BB278F379D45AD40B105D1F437
:1020F00080919A0790919B07A0919C07B0919D07B2
:10210000807F80379547AD4FB74761F48091D60700
:10211000811118C681E4809308031092D60781E0EC
:102120008093DB023091D607313009F000C18091F5
:102130009407909195078F379D400CF4F8C08091DB
:1021400094079091950782389D400CF0F0C08091E3
:102150009A0790919B07A0919C07B0919D078B2FA8
:102160009927AA27BB27FC0127E7E227EA5DFE4F54
:10217000149180919A0790919B07A0919C07B09130
:102180009D07EA2FF0E08DEFE827EA5DFE4F2491EE
:1021900080919A0790919B07A0919C07B0919D0711
:1021A000892F9A2FAB2FBB27A7FDBA95FC01FF27DC
:1021B00095E7E927EA5DFE4F849140919A07509197
:1021C0009B0760919C0770919D07FA01FF2790E79C
:1021D000E927EA5DFE4F4491E22FF0E0E10FF11DA7
:1021E000E80FF11DE40FF11D3A976CF480EE91E0D9
:1021F0009093600680935F0682E4809308031092B8
:10220000D6073093DB0280919A0790919B07A091AB
:102210009C07B0919D07807F803D9F4DA745BD4D98
:1022200009F4ADC580919A0790919B07A0919C07F6
:10223000B0919D07807F907FA07FB07F803D904DC3
:10224000A045B04D09F49BC580919A0790919B07DA
:10225000A0919C07B0919D0788279F70AF70BF70B9
:1022600081159F40A740BD4009F489C580919A0718
:1022700090919B07A0919C07B0919D078B2F992768
:10228000AA27BB27FC012DEDE227EA5DFE4F9491C2
:1022900040919A0750919B0760919C0770919D0710
:1022A000E62FF0E087E5E827EA5DFE4F8491409154
:1022B0009A0750919B0760919C0770919D07452F4D
:1022C000562F672F772767FD7A95FA01FF272FEDA5
:1022D000E227EA5DFE4F449100919A0710919B0717
:1022E00020919C0730919D07F801FF2720EDE22700
:1022F000EA5DFE4F0491E82FF0E0E90FF11DE40FD5
:10230000F11DE00FF11D3A9754F41092D507109289
:10231000D40780E28093080381E08093DB02809100
:1023200094079091950780389D4009F413C58091DA
:10233000DB02813021F4109295071092940780916E
:10234000D607813009F05DC180919407909195077F
:102350008E33924094F18091940790919507813447
:1023600092405CF580919E0790919F07A091A007F5
:10237000B091A10788279C7FA370BB2781159C443F
:10238000A105B10541F4809194079091950780349F
:10239000924009F411C580919E0790919F07A091EA
:1023A000A007B091A1078827907FAF70BB27811548
:1023B0009043A140B10509F4EDC480919407909138
:1023C00095078E37944094F18091940790919507EA
:1023D000813894405CF580919E0790919F07A09171
:1023E000A007B091A10788279C7FA370BB27811508
:1023F0009C45A105B10541F4809194079091950702
:102400008038944009F4F4C480919E0790919F070E
:10241000A091A007B091A1078827907FAF70BB273C
:1024200081159047A140B10509F4D0C4809194076B
:10243000909195078E3B964094F1809194079091EE
:102440009507813C96405CF580919E0790919F078F
:10245000A091A007B091A10788279C7FA370BB27FC
:1024600081159C45A105B10541F480919407909197
:102470009507803C964009F4D7C480919E079091BF
:102480009F07A091A007B091A1078827907FAF7008
:10249000BB2781159047A140B10509F4B3C48091D1
:1024A0009407909195078E3F984094F180919407FE
:1024B00090919507813099405CF580919E079091AD
:1024C0009F07A091A007B091A10788279C7FA370C8
:1024D000BB2781159445A105B10541F4809194076E
:1024E000909195078115994009F4BAC480919E078F
:1024F00090919F07A091A007B091A1078827907F96
:10250000AF70BB2781159045A140B10509F496C471
:1025100080919407909195078E339B4094F1809120
:1025200094079091950781349B405CF580919E07BC
:1025300090919F07A091A007B091A10788279C7F49
:10254000A370BB2781159444A105B10541F4809186
:1025500094079091950780349B4009F49DC4809125
:102560009E0790919F07A091A007B091A10788278F
:10257000907FAF70BB2781159041A140B10509F450
:1025800079C480919407909195078034924029F402
:1025900081E08093DB0280930803809194079091FF
:1025A00095078038944031F481E08093DB0282E02B
:1025B000809308038091940790919507803C964002
:1025C00031F481E08093DB0283E080930803809103
:1025D0009407909195078115994031F481E080939B
:1025E000DB0284E080930803809194079091950723
:1025F00080349B4031F481E08093DB0285E080935E
:1026000008038091DB02813009F053C082E080939F
:10261000DB028091AA079091AB07A091AC07B09123
:10262000AD078093000390930103A0930203B0933E
:1026300003038091A6079091A707A091A807B091E6
:10264000A9078093FC029093FD02A093FE02B09331
:10265000FF028091A2079091A307A091A407B091D7
:10266000A5078093F8029093F902A093FA02B09321
:10267000FB0280919E0790919F07A091A007B091C7
:10268000A1078093F4029093F502A093F602B09311
:10269000F70280919A0790919B07A0919C07B091B7
:1026A0009D078093F0029093F102A093F202B09301
:1026B000F3028091DB028230E1F5809194079091E2
:1026C00095078038910519F483E08093DB028091AF
:1026D000940790919507803C924019F483E0809391
:1026E000DB0280919407909195078115954019F42C
:1026F00083E08093DB02809194079091950780346A
:10270000974019F483E08093DB02809194079091C5
:1027100095078038994019F483E08093DB0280911B
:10272000940790919507803C9B4019F483E0809337
:10273000DB028091DB02833009F045C01092DB029E
:102740008091A6079091A707A091A807B091A9072B
:102750008093EC029093ED02A093EE02B093EF020F
:102760008091A2079091A307A091A407B091A5071B
:102770008093E8029093E902A093EA02B093EB02FF
:1027800080919E0790919F07A091A007B091A1070B
:102790008093E4029093E502A093E602B093E702EF
:1027A00080919A0790919B07A0919C07B0919D07FB
:1027B0008093E0029093E102A093E202B093E302DF
:1027C00081E0809309038091D4079091D507039706
:1027D00094F08091D607813011F41092D60780E0F2
:1027E0009BE4909362068093610680EE91E0909363
:1027F000600680935F0680910507823009F093C2DE
:1028000080919407909195070196909395078093F6
:1028100094078091AA079091AB07A091AC07B09163
:10282000AD07880F991FAA1FBB1F8093AA0790931B
:10283000AB07A093AC07B093AD078091A60790912A
:10284000A707A091A807B091A907B7FD0AC080917A
:10285000AA079091AB07A091AC07B091AD078E7F0E
:1028600009C08091AA079091AB07A091AC07B091E5
:10287000AD0781608093AA079093AB07A093AC0744
:10288000B093AD078091A6079091A707A091A807E4
:10289000B091A907880F991FAA1FBB1F8093A60795
:1028A0009093A707A093A807B093A9078091A207C8
:1028B0009091A307A091A407B091A507B7FD0AC006
:1028C0008091A6079091A707A091A807B091A907AA
:1028D0008E7F09C08091A6079091A707A091A807B5
:1028E000B091A90781608093A6079093A707A09352
:1028F000A807B093A9078091A2079091A307A09180
:10290000A407B091A507880F991FAA1FBB1F80932A
:10291000A2079093A307A093A407B093A507809163
:102920009E0790919F07A091A007B091A107B7FDC6
:102930000AC08091A2079091A307A091A407B0912B
:10294000A5078E7F09C08091A2079091A307A0914F
:10295000A407B091A50781608093A2079093A30775
:10296000A093A407B093A50780919E0790919F071D
:10297000A091A007B091A107880F991FAA1FBB1FA4
:1029800080939E0790939F07A093A007B093A10701
:1029900080919A0790919B07A0919C07B0919D0709
:1029A000B7FD0AC080919E0790919F07A091A00754
:1029B000B091A1078E7F09C080919E0790919F07DB
:1029C000A091A007B091A107816080939E0790938A
:1029D0009F07A093A007B093A10780919A079091B9
:1029E0009B07A0919C07B0919D07880F991FAA1F74
:1029F000BB1F80939A0790939B07A0939C07B0936B
:102A00009D0780911402909115020E940805892B60
:102A100051F480919A0790919B07A0919C07B091E7
:102A20009D07816009C080919A0790919B07A091B2
:102A30009C07B0919D078E7F80939A0790939B0788
:102A4000A0939C07B0939D078091AA079091AB0734
:102A5000A091AC07B091AD078336994CA147B44D16
:102A6000A1F48091A6079091A707A091A807B09123
:102A7000A90788279927AA270097A105BD4429F40B
:102A80008091DB02882309F411C28091DB0282303D
:102A900041F48091940790919507803A910509F44B
:102AA00011C28091DB02833041F4809194079091B0
:102AB0009507803A910509F40EC28091DB028430BB
:102AC00041F48091940790919507803A910509F41B
:102AD00008C28091DB02853041F480919407909187
:102AE0009507803A910509F405C28091DB02863092
:102AF00041F48091940790919507803A910509F4EB
:102B0000FFC18091DB02873009F00DC180919407ED
:102B1000909195078C3791050CF495C0809194079E
:102B200090919507853891050CF08DC08091A6078E
:102B30009091A707A091A807B091A9078B2F99277B
:102B4000AA27BB27FC0124EDE227EA5DFE4F949102
:102B50004091A6075091A7076091A8077091A90717
:102B6000E62FF0E081E7E827EA5DFE4F849140918F
:102B7000A6075091A7076091A8077091A907452F54
:102B8000562F672F772767FD7A95FA01FF2729ECE3
:102B9000E227EA5DFE4F44910091A6071091A70736
:102BA0002091A8073091A907F801FF2723E6E22723
:102BB000EA5DFE4F0491E82FF0E0E90FF11DE40F0C
:102BC000F11DE00FF11D3A97F4F520919407309133
:102BD00095078091940790919507821B930B8058DD
:102BE0009F4F909395078093940783E699ECA1E714
:102BF000B4ED8093A6079093A707A093A807B0937E
:102C0000A9078091A2079091A307A091A407B09172
:102C1000A507BB278093A2079093A307A093A407BF
:102C2000B093A5078091A2079091A307A091A40754
:102C3000B091A507BD648093A2079093A307A093CA
:102C4000A407B093A5078091940790919507803AC7
:102C5000910509F068C0109295071092940782E0E0
:102C60008093DB020CD88091AA079091AB07A091CA
:102C7000AC07B091AD078336994CA147B44D19F418
:102C80001092D30750C083E699ECA1E7B4ED80938E
:102C9000AA079093AB07A093AC07B093AD078091C0
:102CA000A6079091A707A091A807B091A907BB27F5
:102CB0008093A6079093A707A093A807B093A907AE
:102CC0008091A6079091A707A091A807B091A907A6
:102CD000BD648093A6079093A707A093A807B0931D
:102CE000A9070E943F0E8091D3078F5F8093D3077F
:102CF0008091D307843019F481E08093DA028091C7
:102D0000D307853080F01092DB021092DA0280E067
:102D10009BE4909362068093610680EE91E090932D
:102D2000600680935F0681E08093F8061F910F9103
:102D3000089580E28093080381E08093D607809312
:102D4000DB02C7C980EE91E09093600680935F0636
:102D500082E4E1C98091DB02813009F4E8CA809104
:102D6000D4079091D50701969093D5078093D40707
:102D700080E28093080381E08093DB02D8CA10923E
:102D8000D5071092D40780E28093080381E08093F6
:102D9000DB026CCA80919407909195078E33924024
:102DA00009F00BCB80919407909195070296909330
:102DB00095078093940701CB809194079091950794
:102DC00002979093950780939407E5CA80919407A2
:102DD000909195078E37944009F028CB8091940705
:102DE00090919507029690939507809394071ECB38
:102DF00080919407909195070297909395078093FF
:102E0000940702CB80919407909195078E3B964052
:102E100009F045CB80919407909195070296909385
:102E20009507809394073BCB8091940790919507E9
:102E3000029790939507809394071FCB80919407F6
:102E4000909195078E3F984009F062CB809194074E
:102E5000909195070296909395078093940758CB8D
:102E6000809194079091950702979093950780938E
:102E700094073CCB80919407909195078E339B40AB
:102E800009F07FCB809194079091950702969093DB
:102E900095078093940775CB80919407909195073F
:102EA0000297909395078093940759CB1092DA027A
:102EB0001092D3071092090382E08093DB020E94F4
:102EC0003F0EE3CD83E08093DB020E94210E81E080
:102ED00080930903E6CD84E08093DB020E943F0EDD
:102EE000ECCD85E08093DB020E94210E81E080938F
:102EF0000903EFCD86E08093DB020E943F0EF5CD03
:102F000087E08093DB020E94210E81E08093090319
:102F10001092D207F6CD61E086E30E94300560E0B2
:102F200087E30E94300561E084E00E9430058091D3
:102F3000FA069091FB0601969093FB068093FA06A1
:102F40008091CC078F5F8093CC078091CC07823033
:102F500010F01092CC0780910507811186C08091F6
:102F6000FF06909100070197909300078093FF065A
:102F700080910207843021F080910207853011F59D
:102F80001092D1071092D0078091FD069091FE0615
:102F900001979093FE068093FD0680910202909126
:102FA00003020E940805019709F04CC280910202B9
:102FB0009091030260E00E94300580910207853005
:102FC00009F446C280910207873029F080910207F8
:102FD000883009F04AC08091D0079091D1070196BE
:102FE0009093D1078093D0078091D0079091D1071B
:102FF000803691055CF01092D1071092D007809135
:103000003E028F5F80933E0280913E02E0910D026E
:10301000F0910E02E45FFC4F808120914D023091CF
:103020004E0290E002C0959587952A95E2F780FFC1
:1030300024C2809102029091030261E00E94300557
:1030400080914D0290914E02019690934E02809392
:103050004D0280914D0290914E02089709F413C2DF
:1030600080910207883009F42AC2809105078130D7
:1030700009F049C180910702813079F58091FA0603
:103080009091FB0680FF06C080910202909103029E
:1030900060E005C0809102029091030261E00E940D
:1030A0003005809126029091270201979093270284
:1030B000809326028091260290912702892B09F0A5
:1030C000BDC182E08093070280910D0290910E02B3
:1030D0009093CF078093CE0787C0809107028230FC
:1030E00009F058C020914F0240910402509105020E
:1030F00081E090E0841B950B31E2239F800D911DB0
:10310000112490930E0280930D02E0910D02F09134
:103110000E02E45FFC4F808120914D0230914E02FF
:1031200090E002C0959587952A95E2F780FF06C04A
:10313000809102029091030260E005C0809102023A
:103140009091030261E00E94300580914D029091C0
:103150004E02892B09F069C187E090E090934E02FE
:1031600080934D0280910402909105020197909303
:103170000502809304028091040290910502892B3C
:1031800009F05CC189E190E09093270280932602C8
:1031900083E048C180910702833069F58091FA0687
:1031A0009091FB06809102029091030260E00E94E0
:1031B0003005809126029091270201979093270273
:1031C000809326028091260290912702892B09F094
:1031D00035C184E0809307028091CE079091CF079C
:1031E00090930E0280930D0281E290E0909305028D
:1031F0008093040223C180910702843009F083C0C8
:1032000020914F02409104025091050281E090E02C
:10321000841B950B31E2239F800D911D1124909307
:103220000E0280930D02E0910D02F0910E02E45F18
:10323000FC4F808120914D0230914E0290E002C0FF
:10324000959587952A95E2F780FF06C08091020246
:103250009091030260E005C0809102029091030208
:1032600061E00E94300580914D0290914E02892BC1
:1032700009F0DBC087E090E090934E0280934D020E
:10328000809104029091050201979093050280932A
:1032900004028091040290910502892B09F0CEC0AE
:1032A00087E190E0909327028093260221E020930B
:1032B000070280914B0290914C02019790934C022F
:1032C00080934B0280914F028F5F80934F028091D9
:1032D0004F028A3110F020934F0280914B0290915F
:1032E0004C02181619061CF085E0809307028091A5
:1032F0000702853009F0A2C080915002882309F4AA
:103300009DC081E08FC080910507823009F096C092
:103310008091FD069091FE0618161906DCF4809146
:10332000CC0780FF06C0809102029091030260E00A
:1033300005C0809102029091030261E00E94300575
:103340008091FD069091FE0601979093FE06809372
:10335000FD0674C0E0910D02F0910E02E45FFC4F97
:10336000808120914D0230914E0290E002C09595EF
:1033700087952A95E2F780FF06C08091020290911E
:10338000030260E005C0809102029091030261E0B7
:103390000E94300580914D0290914E02892B09F0D8
:1033A00044C087E090E090934E0280934D0280915C
:1033B0000D0290910E02019690930E0280930D02E1
:1033C00080910D0290910E028934934031F481E096
:1033D00090E090930E0280930D02809104029091F0
:1033E00005020196909305028093040280910402E5
:1033F000909105028837910509F510920502109207
:10340000040280914B0290914C02019790934C02E0
:1034100080934B0280914B0290914C021816190632
:103420006CF085E08093070209C080914D02909175
:103430004E02019790934E0280934D0281E080935B
:1034400004070895809102029091030261E0B3CDD8
:1034500080910202909103020E940805019749F0B1
:1034600080910202909103020E940805892B09F0C5
:10347000A9CD86E080930207A5CD809102029091AC
:10348000030260E0DBCD10924E0210924D0280915B
:103490000D0290910E02019690930E0280930D0200
:1034A00080910D0290910E02833593400CF4D8CD9B
:1034B00081E090E090930E0280930D02D1CD209197
:1034C0000F023091100280910D0290910E02281788
:1034D000390709F0CACD89E080930207C6CD709103
:1034E000D702E091D7026091D702E1FB442740F96F
:1034F00050E0872F817090E08427952762FB222778
:1035000020F930E08217930701F140915202509167
:103510005302E091D9028091D802F0E09F01220F7E
:10352000331FE20FF31FE80FF11DE058FD4F20811C
:1035300081E090E0A0E0B0E004C0880F991FAA1FCE
:10354000BB1F4A95D2F7822B2AC02091520230919C
:103550005302E091D9028091D802F0E0AF01440F0C
:10356000551FE40FF51FE80FF11DE058FD4F808156
:10357000482F50E060E070E081E090E0A0E0B0E033
:1035800004C0880F991FAA1FBB1F2A95D2F78095E8
:103590009095A095B09584239523A623B723808387
:1035A000809152029091530201969093530280931E
:1035B00052022091D7028091D70290E0959587958D
:1035C00095958795822780FF20C0409152025091A7
:1035D0005302E091D9028091D802F0E09F01220FBE
:1035E000331FE20FF31FE80FF11DE058FD4F20815C
:1035F00081E090E0A0E0B0E004C0880F991FAA1F0E
:10360000BB1F4A95D2F7822B2AC0209152023091DB
:103610005302E091D9028091D802F0E0AF01440F4B
:10362000551FE40FF51FE80FF11DE058FD4F808195
:10363000482F50E060E070E081E090E0A0E0B0E072
:1036400004C0880F991FAA1FBB1F2A95D2F7809527
:103650009095A095B09584239523A623B7238083C6
:10366000809152029091530201969093530280935D
:10367000520208950E944D0A80913A02813049F029
:103680008091B2070E9475078091B30781110AC02B
:1036900005C080914802813099F73AC080913B0281
:1036A000813029F08091B307811111C01FC082E0E1
:1036B0000E9408050197D9F382E00E940805892B32
:1036C000D9F382E00E9408050197D9F3EBCF83E09C
:1036D0000E9408050197D9F383E00E940805892B11
:1036E000D9F383E00E9408050197D9F38091000285
:1036F0009091010261E00E9430058091000290915A
:10370000010260E00E94300560E08AE00C94300520
:103710008091B307811105C080913B02882309F491
:10372000AFCF8091B20742E050E06BE877E10E94B2
:1037300079078091CC078130A1F38091B20742E0F4
:1037400050E06BE877E10E9479078091CC078823ED
:10375000A1F38091B20742E050E06BE877E10E946C
:1037600079078091CC078130A1F38ACF8091FA0745
:103770008F5F8093FA078091FA07883000F11092EA
:10378000FA07E0910902F0910A02E45FFC4F8081A0
:103790008093E1068091090290910A02019790932B
:1037A0000A02809309028091090290910A02892BF2
:1037B00031F48CE291E090930A028093090286E151
:1037C00090E0FC01EF51F94F208130E035952795CD
:1037D00020830197DC01AF51B94F2C9120FF03C02A
:1037E0002081206802C020812F7720838F3F2FEF18
:1037F000920739F708958091D70287FF04C080911E
:10380000D70282FD08C08091D70287FD14C0809145
:10381000D70282FD10C08091D7028E7F8093D7029D
:103820008091D40290E0959587958093D402809101
:10383000D4028F770FC08091D70281608093D70226
:103840008091D40290E0959587958093D4028091E1
:10385000D40280688093D4028091D702880F80932D
:10386000D7020895CF93DF931092D9021092D80215
:103870001092D702109253021092520281E090E00F
:103880009093D6028093D5028091D5029091D60272
:103890008A970CF045C0C0E0D0E08091D702880F35
:1038A0008093D702E091D502F091D602EA5AFD4FFB
:1038B000808190E00C2E02C0959587950A94E2F7DE
:1038C00080FF04C08091D702816003C08091D7023D
:1038D0008E7F8093D70203DE809152029091530233
:1038E0000897A4F010925302109252028091D802CD
:1038F0008F5F8093D8028091D802833038F0109285
:10390000D8028091D9028F5F8093D9022196C83066
:10391000D10519F68091D5029091D6020196B0CFCB
:103920008091D702880F8093D7028091D7028E7F33
:103930008093D702D4DD8091D702880F8093D7027D
:103940008091D7028E7F8093D702DF91CF91C7CD30
:103950004F925F926F927F928F929F92AF92BF929F
:10396000CF92DF92EF92FF920F931F931092D902A2
:103970001092D8028FEF8093D702109253021092C8
:1039800052028AEE80930D0386EA80930E03109212
:103990000F0384E090E090934E0280934D0283E009
:1039A00090E09093F9078093F80720E030E061E021
:1039B00070E0C12CD12C7601C39410925302109266
:1039C00052028B01022E02C0000F111F0A94E2F76F
:1039D00080915202909153024C970CF073C08091E9
:1039E000520290915302FC01EE0FFF1F8E0F9F1F9A
:1039F000FC01E058FD4F808190E080239123892BCA
:103A0000C1F080914D0290914E02E091F807F09143
:103A1000F907E45FFC4FB0802601370104C0440C75
:103A2000551C661C771C8A95D2F7D301C2018B29DD
:103A300022C0A0914D02B0914E02E091F807F091A2
:103A4000F907E45FFC4F8081882E912CA12CB12CCA
:103A50002601370104C0440C551C661C771CAA952E
:103A6000D2F7D301C20180959095A095B095882199
:103A70009921AA21BB21808380914D0290914E0211
:103A8000019690934E0280934D0280914D02909149
:103A90004E0208976CF010924E0210924D028091E7
:103AA000F8079091F90701969093F9078093F8072A
:103AB0008091520290915302019690935302809309
:103AC000520286CF2F5F3F4F2830310509F075CF66
:103AD00080E090E061E070E0C12CD12C7601C394CD
:103AE0001092530210925202DB01082E02C0AA0F5C
:103AF000BB1F0A94E2F720915202309153022C31FD
:103B000031050CF077C02091520230915302F90137
:103B1000EE0FFF1F2E0F3F1FF901E058FD4F2181CF
:103B200030E02A233B23232BC1F020914D0230911A
:103B30004E02E091F807F091F907E45FFC4FB08086
:103B40003601470104C0660C771C881C991C2A9515
:103B5000D2F7940183010B2922C020914D023091AC
:103B60004E02E091F807F091F907E45FFC4F008105
:103B7000802E912CA12CB12C2601370104C0440CBD
:103B8000551C661C771C2A95D2F79301820100957B
:103B9000109520953095082119212A213B21008379
:103BA00020914D0230914E022F5F3F4F30934E02D5
:103BB00020934D0220914D0230914E022830310564
:103BC00074F010924E0210924D022091F80730913D
:103BD000F9072F5F3F4F3093F9072093F8072091A3
:103BE0005202309153022F5F3F4F30935302209384
:103BF000520281CF01968430910509F071CF61E0C6
:103C000070E0C12CD12C7601C39410925302109213
:103C10005202DB01082E02C0AA0FBB1F0A94E2F772
:103C200020915202309153022B3131050CF077C0B4
:103C30002091520230915302F901EE0FFF1F2E0F17
:103C40003F1FF901E058FD4F218130E02A233B233B
:103C5000232BC1F020914D0230914E02E091F807E4
:103C6000F091F907E45FFC4FB0803601470104C0D2
:103C7000660C771C881C991C2A95D2F79401830145
:103C80000B2922C020914D0230914E02E091F8079D
:103C9000F091F907E45FFC4F0081802E912CA12C5C
:103CA000B12C2601370104C0440C551C661C771C3E
:103CB0002A95D2F7930182010095109520953095B1
:103CC000082119212A213B21008320914D023091A6
:103CD0004E022F5F3F4F30934E0220934D022091B2
:103CE0004D0230914E022830310574F010924E0290
:103CF00010924D022091F8073091F9072F5F3F4F46
:103D00003093F9072093F807209152023091530223
:103D10002F5F3F4F309353022093520281CF019681
:103D20008830910509F071CF20E030E061E070E06B
:103D3000C12CD12C7601C3941092530210925202DE
:103D40008B01022E02C0000F111F0A94E2F780912E
:103D50005202909153024B970CF073C08091520223
:103D600090915302FC01EE0FFF1F8E0F9F1FFC016D
:103D7000E058FD4F828190E080239123892BC1F090
:103D800080914D0290914E02E091F807F091F90771
:103D9000E45FFC4FB0803601470104C0660C771C1D
:103DA000881C991C8A95D2F7D401C3018B2922C0A3
:103DB000A0914D02B0914E02E091F807F091F90701
:103DC000E45FFC4F8081882E912CA12CB12C260120
:103DD000370104C0440C551C661C771CAA95D2F709
:103DE000D301C20180959095A095B0958821992125
:103DF000AA21BB21808380914D0290914E020196B1
:103E000090934E0280934D0280914D0290914E020C
:103E100008976CF010924E0210924D028091F807B4
:103E20009091F90701969093F9078093F807809194
:103E30005202909153020196909353028093520242
:103E400086CF2F5F3F4F2830310509F075CF84E0D2
:103E500090E090934E0280934D0283E090E0909327
:103E6000F9078093F80781E090E0909353028093E4
:103E7000520201E010E020E030E080915202909187
:103E80005302853992400CF092C08091D702880F7E
:103E90008093D7029091D7028091D70294FB442758
:103EA00040F950E0881F8827881F90E0481759077D
:103EB00021F08091D702816003C08091D7028E7F6C
:103EC0008093D7026091D702E091F807F091F9074B
:103ED000E45FFC4F8081E0914D02F0914E0290E052
:103EE00002C095958795EA95E2F7862780FF18C06E
:103EF00080914D0290914E02E091F807F091F90700
:103F0000E45FFC4F60813801490104C0660C771CF6
:103F1000881C991C8A95D2F7D401C301862B20C036
:103F200060914D0270914E02E091F807F091F9070F
:103F3000E45FFC4F8081C82ED12CE12CF12CD901FB
:103F4000C80104C0880F991FAA1FBB1F6A95D2F72A
:103F500080959095A095B0958C219D21AE21BF2193
:103F6000808380914D0290914E02019690934E0273
:103F700080934D0280914D0290914E0208976CF013
:103F800010924E0210924D028091F8079091F9071D
:103F900001969093F9078093F807809152029091CF
:103FA00053020196909353028093520266CF1F9161
:103FB0000F91FF90EF90DF90CF90BF90AF909F90C8
:103FC0008F907F906F905F904F900895CF93DF9385
:103FD00080ED8093690680E090E021E030E0409140
:103FE00066065091670642175307A4F0F901E85995
:103FF000F94F4081E92FFF27E427EE0FFF1FEA5B0F
:10400000FC4F45915491982F8827842795272F5F3F
:104010003F4FE5CF9093550280935402E09166069E
:10402000F0916706E659F94F8083E0916606F091BA
:104030006706E759F94F908380916606909167066D
:1040400002969093670680936606C1E0D0E0809167
:104050006606909167068C179D0754F0FE01E8599B
:10406000F94F60818BEF97E00E9466032196EFCFB6
:10407000DF91CF91089580911102809111028130DA
:1040800019F485E090E002C080E090E0E9E1F7E01B
:10409000E81BF90B20812093B606EAE1F7E0E81B64
:1040A000F90B20812093B706EBE1F7E0E81BF90B51
:1040B00020812093B806ECE1F7E0E81BF90B2081A2
:1040C0002093B906EDE1F7E0E81BF90B208120937E
:1040D000BA06EEE1F7E0E81BF90B20812093BB065E
:1040E000EFE1F7E0E81BF90B20812093BC0627E401
:1040F0002093BD06E1E1F7E0E81BF90B2081209356
:10410000BE06E2E1F7E0E81BF90B20812093BF0631
:10411000E3E1F7E0E81BF90B20812093C006E4E11E
:10412000F7E0E81BF90B20812093C106E5E1F7E0F9
:10413000E81BF90B20812093C206E6E1F7E0E81BBB
:10414000F90B20812093C306E7E1F7E0E81BF90BA8
:1041500020812093C406E8E1F7E0E81BF90B2081F9
:104160002093C506E9E2F7E0E81BF90B20812093D4
:10417000CE06EAE2F7E0E81BF90B20812093CF0698
:10418000EBE2F7E0E81BF90B20812093D006ECE28C
:10419000F7E0E81BF90B20812093D106EDE2F7E070
:1041A000E81BF90B20812093D206EEE2F7E0E81B32
:1041B000F90B20812093D306EFE2F7E0E81BF90B1F
:1041C00080818093D40680E28093D5060895809103
:1041D0001102813049F480EE90E072D283E090E0E9
:1041E0006FD283E190E06CD280911102811117C0EF
:1041F00083E080936A0610926B068AE180936C06D6
:104200008091080280936D068091650680936E060A
:1042100086E090E09093670680936606D7CE089577
:10422000CF9380E09BE4909362068093610680EEDA
:1042300091E09093600680935F068091050781115D
:1042400038C080E895E2909362068093610680EF23
:1042500090E09093600680935F060CDA8091B2073D
:1042600043E050E060E67EE00E94790780915102D1
:104270008E7F80935102809151028D7F80935102F5
:104280008CE291E090930C0280930B021092FA075B
:104290001092F906109263061092640610923E0284
:1042A0001092030781E08093020710920107809328
:1042B000FC0680910507813041F08091050782302E
:1042C00021F010924802CF91089510924C02109262
:1042D0004B0210920307C1E0C093070210924A02FA
:1042E0001092490288E190E0909327028093260281
:1042F000C1D98CE291E090930C0280930B02C093A1
:10430000F9061092FC068091B20743E050E060E6A7
:104310007EE00E947907D5CF0E943C088091B307C8
:10432000811103C00E94150802C00E94ED070E947F
:104330007D0B0E944D0A74CF81E080933A028093F6
:104340004802809105078111A6C08AEF90E0909302
:104350000A02809309028CE291E090930C02809310
:104360000B020E94CD0A8091B30781110DC080918C
:104370003B02811109C08091B2070E9475078091AC
:10438000B30781111EC019C08091B20743E050E00D
:1043900060E67EE00E9479078091CD078130A1F32D
:1043A0008091B20743E050E060E67EE00E9479072A
:1043B0008091CD078823A1F3DECF80913B0281302D
:1043C00029F08091B307811111C01FC082E00E94C3
:1043D0000805892BD9F382E00E9408050197D9F3DB
:1043E00082E00E940805892BD9F3EBCF83E00E947D
:1043F0000805892BD9F383E00E9408050197D9F3BA
:1044000083E00E940805892BD9F3809100029091E6
:10441000010261E00E94300580910002909101024A
:1044200060E00E94300560E08AE00E9430058091E3
:1044300051028E7F8093510280915102826080935D
:10444000510280913D0225E0829FC001112490938A
:1044500000078093FF068091FF069091000760910E
:104460003C024BEF54E0649F9001659F300D112496
:10447000820F931F909300078093FF0682E0809342
:1044800002078093FC068091B20742E050E06BE89F
:1044900077E10E947907809105078130E9F58091E5
:1044A000B307811120C080913B0281111CC0809113
:1044B000B2070E9475078CE291E090930C02809302
:1044C0000B020E94CD0A1092F90681E08093FC064F
:1044D000809307028091B20742E050E06BE877E1F9
:1044E0000E94790719C08091B20743E050E060E66E
:1044F0007EE00E9479078091CD078130A1F3809101
:10450000B20743E050E060E67EE00E9479078091C8
:10451000CD078823A1F3CBCF80910507823009F026
:1045200081C08091FC06811108950E94CD0A80917E
:10453000B30781111AC080913B02811116C080918E
:10454000B2070E9475078CE291E090930C02809371
:104550000B021092F90681E08093FC06809307021B
:104560008091B30781111EC019C08091B20743E04A
:1045700050E060E67EE00E9479078091CD078130AF
:10458000A1F38091B20743E050E060E67EE00E9434
:1045900079078091CD078823A1F3D1CF80913B0289
:1045A000813029F08091B30781110CC015C082E0E1
:1045B0000E940805892BD9F382E00E940805019723
:1045C000D9F3F0CF83E00E940805892BD9F383E06B
:1045D0000E9408050197D9F3809100029091010291
:1045E00061E00E943005809100029091010260E03C
:1045F0000E94300560E08AE00E94300587E090E08C
:1046000090934E0280934D0280EC93E09093FE06CF
:104610008093FD068091B20742E050E06BE877E1BD
:104620000C94790708958FE190E09093F7078093B9
:10463000F6078091F6079091F70797FD29C08091C2
:10464000AE079091AF07A091B007B091B10720914C
:10465000F6073091F70704C0B595A795979587950C
:104660002A95D2F780FF02C061E001C060E08AE0D5
:104670000E94300561E087E00E94300560E087E03D
:104680000E9430058091F6079091F7070197CDCFF2
:104690000895C9DF809100029091010261E00E94BB
:1046A0003005809100029091010260E00E94300587
:1046B00060E08AE00C9430058BEF97E00C94660381
:1046C000682F8BEF97E00C946603CF93DF931F92D4
:1046D000CDB7DEB7789484B5826084BD84B581603F
:1046E00084BD85B5826085BD85B5816085BD8091BD
:1046F0006E00816080936E00109281008091810035
:10470000826080938100809181008160809381002C
:10471000809180008160809380008091B1008460EE
:104720008093B1008091B00081608093B00080914F
:1047300091008260809391008091910081608093CC
:104740009100809190008160809390008091A10001
:1047500082608093A1008091A10081608093A1007C
:104760008091A00081608093A000809121018260EF
:1047700080932101809121018160809321018091AA
:10478000200181608093200180917A008460809371
:104790007A0080917A00826080937A0080917A001A
:1047A000816080937A0080917A00806880937A009B
:1047B0001092C10060E082E00E945F0560E083E04B
:1047C0000E945F0560E085E00E945F0561E086E091
:1047D0000E945F0561E087E00E945F0560E088E07D
:1047E0000E945F0561E089E00E945F0561E08AE068
:1047F0000E945F0561E08BE00E945F0561E08CE054
:104800000E945F0560E08DE00E945F0561E084E04A
:104810000E945F0561E086E30E945F0561E087E337
:104820000E945F0561E088E30E945F0561E089E323
:104830000E945F0561E08AE30E945F0561E08BE30F
:104840000E945F0560E087E00E94300560E08BE039
:104850000E94300560E08CE00E94300560E08AE054
:104860000E94300560E084E00E94300560E086E34D
:104870000E94300560E087E30E94300560E088E335
:104880000E94300560E089E30E94300586E980934C
:104890003D0210923C028FE380933F021092050785
:1048A00080E496E8A4EAB8E080934402909345023D
:1048B000A0934602B0934702809340029093410236
:1048C000A0934202B09343020E9415080E943C0844
:1048D0000E947D0B0E944D0A80910002909101027E
:1048E00061E00E943005809100029091010260E039
:1048F0000E94300562E370E080E090E00E949B053A
:104900008091FA069091FB068536910518F081E0BA
:1049100080933B0280EC92E9ADEEB9E180934402D2
:1049200090934502A0934602B093470280934002C1
:1049300090934102A0934202B09343020E94ED077C
:104940000E943C080E947D0B0E944D0A69DCE091A8
:104950000B08F0910C0882E08083E0910708F09149
:1049600008081082E0910908F0910A0880E180832C
:1049700010921308E0910F08F091100886E08083F0
:10498000E0910D08F0910E08808180618083E091B4
:104990000D08F0910E08808188608083E0910D08F9
:1049A000F0910E08808180688083E0910D08F0917D
:1049B0000E0880818F7D80838BEF97E00E94AC038F
:1049C00080ED8093AB068FE28093AC061092AD062B
:1049D00087E18093AE068AE08093AF061092B0061E
:1049E0001092B1061092B20680E48093B306109242
:1049F000B4061092B50693E49093C60681E58093C1
:104A0000C7069093C8068093C9069093CA06809300
:104A1000CB0680E28093CC068093CD0689E4809318
:104A2000D6068EE48093D70686E48093D8068FE47A
:104A30008093D9061092DA068BE08093DB06109201
:104A4000DC061092DD068093DE0689E08093110279
:104A5000109293071092920700EE11E0A0EFEA2E59
:104A6000F12CDD24D3941093620600936106F0923A
:104A70006006E0925F0610923A028BEF97E00E9488
:104A80003503181619060CF058C0A0909207B09084
:104A900093078BEF97E00E941403F501EA5FF84F4C
:104AA000808380919207909193070196909393074A
:104AB0008093920780910607803D29F08091060738
:104AC000803E09F088C580910607803D09F58091F8
:104AD0009207909193070697DCF080910707813049
:104AE00009F080C58091080781117CC58091090774
:104AF000813109F077C580910A07811173C58091D2
:104B00000B078B3009F06EC5109211021092050749
:104B100080910607803E89F48091920790919307D7
:104B200003975CF080910707833009F062C580919C
:104B3000080781115EC5D09211028091110289305F
:104B400009F491CF02E513E056E5252E312C65E0FE
:104B5000462E512C70E8672E75E2772EE7E0EE2E98
:104B6000F12C812C912C540183948091110281119C
:104B7000E9C08BEF97E00E9435031816190604F57B
:104B8000C0909207D09093078BEF97E00E94140398
:104B9000F601EA5FF84F8083809192079091930726
:104BA000019690939307809392078091920790913A
:104BB00093078338910524F010929307109292077F
:104BC00080910607803D21F0109293071092920782
:104BD00080910607803D09F0B5C0809192079091C1
:104BE000930705970CF4AEC020919207309193077C
:104BF0008091070790E00496821793070CF0A2C0FB
:104C000080910907813109F04AC080936A061092A9
:104C10006B0681E980936C0680936D0691E3909317
:104C20006E0684E480936F0686E5809370068DE2BD
:104C3000809371068DE48093720685E480937306F9
:104C400087E48093740681E48093750620E22093C4
:104C5000760622E52093770623E3209378062EE25A
:104C60002093790690937A0699E390937B0680933C
:104C70007C0624E130E03093670620936606A6D9CF
:104C8000709262066092610680EF90E090936006F9
:104C900080935F0681E0809302078093FC068091F9
:104CA00009078231D9F485E080936A0610926B0679
:104CB00082E980936C0683E180936D0689E080939E
:104CC0006E0680E180936F0681E08093700628E095
:104CD00030E0309367062093660678D98091090703
:104CE000843109F48DC480910907803109F444C5E9
:104CF00080910907803109F445C580910907863103
:104D000051F4809102029091030260E00E9430050C
:104D100081E08093010780910907873109F438C544
:104D200080910907893109F468C5809109078A31A2
:104D300009F4A4C510920607109207071092930772
:104D40001092920780911102813009F086C08BEF9A
:104D500097E00E9435031816190604F5C0909207D3
:104D6000D09093078BEF97E00E941403F601EA5F5F
:104D7000F84F8083809192079091930701969093CA
:104D800093078093920780919207909193078338BD
:104D9000910524F0109293071092920780910607D4
:104DA000803E21F01092930710929207809106079F
:104DB000803E09F052C02091920730919307809174
:104DC000070790E02817390709F047C010928E07AF
:104DD00080910607803E29F480910707833009F40B
:104DE000DEC680910607803E09F4DFC68091060783
:104DF000803E09F4EAC680910607803E09F4F5C6B4
:104E000080910607803E09F400C780910607803E26
:104E100009F40FC780910607803E09F41AC78091F4
:104E20000607803E09F420C780910607803E09F4FA
:104E300021C780910607803E09F427C780910607A5
:104E4000803E09F42DC710920607109207071092B2
:104E5000080710929307109292078091050781111D
:104E600054C280910407882309F445C020910F02A1
:104E70003091100280910D0290910E0282179307DB
:104E800084F480910F029091100220910D023091D4
:104E90000E02821B930B6CE070E00E94D83C609382
:104EA000030720910F023091100280910D02909122
:104EB0000E022817390794F480910F029091100286
:104EC00020910D0230910E028E5A9C4F821B930B43
:104ED0006CE070E00E94D83C6093030720910F02C1
:104EE0003091100280910D0290910E02281739071F
:104EF00011F41092030780910207882309F49DC0E2
:104F000080910207813021F480910107811114DA28
:104F100080910207823049F48091FF06909100074A
:104F2000059718F483E0809302078091020783308D
:104F3000A9F480910107823088F0809111028111DB
:104F40000C94D0348DEF90E09093FE068093FD0694
:104F500084E08093020783E08093FC06809102073F
:104F6000843049F48091FD069091FE0602971CF46E
:104F700085E08093020780910207863031F487E054
:104F80008093020785E08093FC06809102078730BA
:104F900009F044C08091FA069091FB06813C924151
:104FA00008F03ED98091030781111AC080910D024B
:104FB00090910E02CC9790930E0280930D028091F7
:104FC0000D0290910E021816190654F080910D02F0
:104FD00090910E028E5A9C4F90930E0280930D0278
:104FE000809103078F3AD0F080910F0290911002C8
:104FF000CC979093100280930F0280910F029091B2
:1050000010021816190654F080910F0290911002A8
:105010008E5A9C4F9093100280930F02809102074A
:10502000873031F490910107943011F40C94D4340A
:1050300080910207893009F4F3D88091F90686300F
:10504000C0F520910B0230910C02809109029091E1
:105050000A028217930794F48091090290910A0240
:1050600020910B0230910C02845D9E4F821B930BAA
:105070008B3F91051CF081E08093F8062091090296
:1050800030910A0280910B0290910C0282179307D3
:1050900084F48091090290910A0220910B023091D0
:1050A0000C02821B930B8B3F91051CF081E08093D7
:1050B000F8068091F806882309F427C10E94B61BE0
:1050C0008091F906863070F48091FC06823050F4AD
:1050D0008091ED06853531F48091EC068D3211F426
:1050E0000C94DB348091F906811112C08091F8068E
:1050F000882371F08091FC06823050F48091EF0695
:105100008A3A31F48091EE068A3A11F40C945F35B4
:105110008091F906813071F48091F806882351F06E
:105120008091EF068A3A31F48091EE068A3A11F4C2
:105130000C9475358091F906823009F082C0809117
:10514000F806882309F47DC08091D70283FD02C050
:105150000C9498358091D70286FD02C00C94983546
:105160008091D702880F8093D7028091D7028E7FDB
:105170008093D7028091EB0680FD02C00C94AC3581
:105180008091D70280FD02C00C94AC352091520270
:10519000309153028091D9023091D80290E0AC0155
:1051A000440F551FFA01E80FF91FE30FF11DE058F6
:1051B000FD4F808190E0A0E0B0E0B501A40104C003
:1051C000440F551F661F771F2A95D2F740955095BB
:1051D0006095709584239523A623B72380838091BF
:1051E000D9028F5F8093D9028091D802811106C0C5
:1051F0008091D9028C3110F00C94F0358091D80256
:10520000813011F40C94D6358091D802813011F49C
:105210000C94DC35809152029091530297FF09C0A3
:10522000F0925302E09252028091D8028F5F8093F5
:10523000D8028091D802823011F40C94EA35109291
:1052400002078091F906833071F48091F80681118C
:105250000C94403608C082E390E0909367068093F8
:1052600066060E94E61F8091F906843029F4809139
:10527000F80681110C944D388091F906853081F43F
:105280008091F80681110C945E380AC086E0809304
:10529000F9061092630684E1809364061092F80682
:1052A0008091F906863089F58091F806882369F1A6
:1052B000809163068F5F80936306809163068230DE
:1052C00030F080916306893110F40C941A39809182
:1052D0006306893411F40C946D388091640684312E
:1052E00011F40C94923880916406843111F40C947A
:1052F000993880916306893411F40C94A038809118
:105300006306803610F00C94093980919107882348
:10531000D9F180910507811110C080910A03909105
:105320000B0389359B4148F010920B0310920A033E
:1053300081E0809305070E948C21809105078130D0
:1053400081F480910A0390910B03813C924148F0D3
:1053500010920B0310920A0382E0809305070E94CB
:105360008C2180910507823079F480910A03909115
:105370000B03893B9B4040F010920B0310920A03F1
:10538000109205070E948C2180910507813009F059
:10539000B5C080910903813009F0AAC070926206FD
:1053A0006092610680EC92E19093600680935F06C4
:1053B00010920B0310920A031092910710920903A6
:1053C00080910803823461F480E09BE4909362064C
:1053D0008093610680EE91E09093600680935F0673
:1053E00080910803813411F40C94E639809108030C
:1053F000823411F40C94E63980EE90E061D985E2B4
:1054000090E05ED98AE190E05BD9609108038BEF70
:1054100097E00E94660389E090E090939007809364
:105420008F0780918F079091900702970CF453C0DB
:10543000E0918F07F0919007EE0FFF1FEE0FFF1F17
:10544000E452FD4F80819181A281B3816B2F772738
:105450008827992731D9E0918F07F0919007EE0FB7
:10546000FF1FEE0FFF1FE452FD4F80819181A2814B
:10547000B3816A2F70E080E090E01ED9E0918F0741
:10548000F0919007EE0FFF1FEE0FFF1FE452FD4F4C
:1054900080819181A281B381692F70E080E090E0EA
:1054A0000BD9E0918F07F0919007EE0FFF1FEE0FE1
:1054B000FF1FE452FD4F80819181A281B381BC0125
:1054C000CD01772788279927F7D880918F0790916A
:1054D00090070197A2CF8091E0029091E102A09104
:1054E000E202B091E3026B2F772788279927E4D84F
:1054F00080910702853011F40E941021D090050799
:1055000042E0D41261C080910903813009F056C095
:10551000709262066092610680EC92E19093600660
:1055200080935F0610920903109291078091DB022D
:10553000833041F580EE90E0C3D88CE790E0C0D88E
:1055400080E290E0BDD8809106028E5F80930602D3
:1055500080910602811102C0D09206028091DA0287
:10556000813029F480910602816080930602609167
:1055700006028BEF97E00E946603809106028E7F01
:10558000809306028091DB02833011F40C94023A7E
:105590008091DB02853011F40C94023A8091DB0299
:1055A000873011F40C94023A8091DB02873031F499
:1055B0008091DA02813011F40C94683A80910702EC
:1055C000853011F40E9410211092F8061092040701
:1055D0000E94CD03CACA10929307109292071092AC
:1055E000060771CA1092930710929207109206074D
:1055F0008FCA1092930710929207109206079DCAC5
:1056000080910A07813C09F0A5C0109244021092D3
:10561000450210924602109247028091100790E0D6
:10562000A0E0B0E08093440290934502A09346022C
:10563000B09347028091440290914502A0914602A6
:10564000B0914702BA2FA92F982F88278093440240
:1056500090934502A0934602B093470220910F0712
:105660008091440290914502A0914602B091470278
:10567000820F911DA11DB11D80934402909345029C
:10568000A0934602B0934702809144029091450254
:10569000A0914602B0914702BA2FA92F982F8827D0
:1056A0008093440290934502A0934602B093470230
:1056B00020910E078091440290914502A0914602EC
:1056C000B0914702820F911DA11DB11D809344022C
:1056D00090934502A0934602B09347028091440202
:1056E00090914502A0914602B0914702BA2FA92F8E
:1056F000982F88278093440290934502A0934602F6
:10570000B093470220910D07809144029091450289
:10571000A0914602B0914702820F911DA11DB11DBB
:105720008093440290934502A0934602B0934702AF
:105730008091440290914502A0914602B0914702A7
:105740008093400290934102A0934202B09343029F
:105750000E948C2182E080936A0610926B0684E995
:1057600080936C0686E080936D06509267064092A7
:1057700066060E94E61FB7CA80910707823009F0CB
:10578000B7CAC4C180910707813009F0B6CAD3C136
:1057900080918A07811109C080912107833429F4FF
:1057A00080912207813509F4F4C180910A07809322
:1057B000080280910B078093650681E090E0FC0170
:1057C000E35FF84F2081FC01EA5AFD4F20830196E8
:1057D0008A329105A1F73092100220920F0281E0E7
:1057E00090E090930E0280930D020E94321C0E9462
:1057F000A81C82E08093010793CA1092FB061092C6
:10580000FA06809164068F5F809364068091640637
:10581000853110F01092640688E090E020910F022C
:1058200030911002FC01EA5FF84F4081F901E45F1A
:10583000FC4F408320910F02309110022F5F3F4FA9
:105840003093100220930F0220910F02309110022A
:105850002335334034F021E030E0309310022093C0
:105860000F02019684319105C9F6809101078230BB
:1058700009F05BCA83E08093010757CA80910F0249
:105880009091100201979093100280930F028091E3
:105890000F0290911002892B21F4109310020093B3
:1058A0000F0280910F0290911002019790931002C5
:1058B00080930F0280910F0290911002892B21F4A6
:1058C0001093100200930F0280910F02909110022A
:1058D00001979093100280930F0280910F02909194
:1058E0001002892B21F41093100200930F02E09113
:1058F0000F02F0911002E45FFC4F85E580838091F8
:105900000F029091100201969093100280930F0263
:1059100080910F02909110028335934034F081E022
:1059200090E09093100280930F02E0910F02F091AB
:105930001002E45FFC4F85E5808380910F02909117
:10594000100201969093100280930F0280910F0233
:10595000909110028335934034F021E030E0309391
:10596000100220930F02E0910F02F0911002E45F09
:10597000FC4F85E5808380910F0290911002019683
:105980009093100280930F0280910F029091100269
:105990008335934034F081E090E09093100280933F
:1059A0000F02E0910F02F0911002E45FFC4F85E5D9
:1059B000808380910F0290911002019690931002C3
:1059C00080930F0280910F029091100283359340D3
:1059D00034F021E030E03093100220930F02E09188
:1059E0000F02F0911002E45FFC4F88EC80838091FD
:1059F0000F029091100201969093100280930F0273
:105A000080910F02909110028335934034F081E031
:105A100090E09093100280930F02E0910F02F091BA
:105A20001002E45FFC4F8AE7808380910F0290911F
:105A3000100201969093100280930F0280910F0242
:105A4000909110028335934034F021E030E03093A0
:105A5000100220930F02E0910F02F0911002E45F18
:105A6000FC4F108280910F0290911002019690934A
:105A7000100280930F0280910F02909110028335E3
:105A8000934034F081E090E09093100280930F02F5
:105A9000E0910F02F0911002E45FFC4F10828091C0
:105AA0000F029091100201969093100280930F02C2
:105AB00080910F02909110028335934034F021E0E1
:105AC00030E03093100220930F02E0910F02F0912A
:105AD0001002E45FFC4F108280910F02909110023F
