:100000000C94E2010C94121A0C94EB190C940A0251
:100010000C940A020C940A020C940A020C940A0230
:100020000C940A020C940A020C940A020C940A0220
:100030000C940A020C940A020C940A020C940A0210
:100040000C94A1190C940A020C94A1180C947B181E
:100050000C940A020C940A020C940A020C940A02F0
:100060000C940A020C940A0200010102010202032C
:100070000102020302030304010202030203030458
:100080000203030403040405010202030203030440
:100090000203030403040405020303040304040528
:1000A0000304040504050506010202030203030418
:1000B0000203030403040405020303040304040508
:1000C00003040405040505060203030403040405F0
:1000D00003040405040505060304040504050506D8
:1000E00004050506050606070102020302030304D0
:1000F00002030304030404050203030403040405C8
:1001000003040405040505060203030403040405AF
:100110000304040504050506030404050405050697
:100120000405050605060607020303040304040587
:100130000304040504050506030404050405050677
:10014000040505060506060703040405040505065F
:100150000405050605060607040505060506060747
:100160000506060706070708000021104220633035
:100170008440A550C660E770088129914AA16BB1FF
:100180008CC1ADD1CEE1EFF13112100273325222A7
:10019000B5529442F772D662399318837BB35AA34F
:1001A000BDD39CC3FFF3DEE3622443342004011477
:1001B000E664C774A44485546AA54BB5288509959F
:1001C000EEE5CFF5ACC58DD5533672261116300647
:1001D000D776F6669556B4465BB77AA719973887EF
:1001E000DFF7FEE79DD7BCC7C448E5588668A77807
:1001F0004008611802282338CCC9EDD98EE9AFF93F
:10020000488969990AA92BB9F55AD44AB77A966AE6
:10021000711A500A333A122AFDDBDCCBBFFB9EEB8E
:10022000799B588B3BBB1AABA66C877CE44CC55CB6
:10023000222C033C600C411CAEED8FFDECCDCDDDDE
:100240002AAD0BBD688D499D977EB66ED55EF44E86
:10025000133E322E511E700E9FFFBEEFDDDFFCCF2E
:100260001BBF3AAF599F788F8891A981CAB1EBA182
:100270000CD12DC14EF16FE18010A100C230E320FE
:100280000450254046706760B9839893FBA3DAB3A6
:100290003DC31CD37FE35EF3B1029012F322D2324E
:1002A0003542145277625672EAB5CBA5A895898576
:1002B0006EF54FE52CD50DC5E234C324A01481049E
:1002C0006674476424540544DBA7FAB79987B89746
:1002D0005FE77EF71DC73CD7D326F2369106B016EE
:1002E00057667676154634564CD96DC90EF92FE906
:1002F000C899E9898AB9ABA944586548067827683E
:10030000C018E1088238A3287DCB5CDB3FEB1EFBE5
:10031000F98BD89BBBAB9ABB754A545A376A167A8D
:10032000F10AD01AB32A923A2EFD0FED6CDD4DCDB5
:10033000AABD8BADE89DC98D267C076C645C454CDD
:10034000A23C832CE01CC10C1FEF3EFF5DCF7CDF85
:100350009BAFBABFD98FF89F176E367E554E745E2D
:10036000932EB23ED10EF01E0000000024002700A4
:100370002A0000000000250028002B0000000000DB
:1003800023002600290004040404040404040202D7
:100390000202020203030303030301020408102004
:1003A000408001020408102001020408102000000F
:1003B0000008000201000003040700000000000024
:1003C0000000CF3711241FBECFEFD8E0DEBFCDBF76
:1003D00011E0A0E0B1E0E4E2F5E702C005900D9283
:1003E000AE32B107D9F728E0AEE2B1E001C01D920C
:1003F000AC34B207E1F711E0C2EED1E004C02197BE
:10040000FE010E94853AC13ED107C9F70E94E22051
:100410000C94903A0C9400000F931F9380918906DE
:100420008F5F8093890680918906823011F4109243
:1004300089068091FE019091FF0101969093FF0142
:100440008093FE0180919506909196060196909377
:100450009606809395062091950630919606809198
:100460005505909156058217930724F4109296062D
:1004700010929506809153059091540580369940CD
:1004800039F08091530590915405803C924131F4AC
:1004900060E08EE00E94FB1861E005C060E08EE045
:1004A0000E94FB1860E08FE00E94FB1820919506E7
:1004B000309196068091530590915405281739077D
:1004C00014F461E001C060E084E00E94FB188091B8
:1004D000EE059091EF0501969093EF058093EE0560
:1004E0008091F90581115AC08091D2059091D30570
:1004F00001969093D3058093D2058091D205909177
:10050000D3058938934144F088E893E19093D3056B
:100510008093D2051092D405809116019091170115
:100520000E94D218892B21F080919406806803C024
:10053000809194068F7780939406809193068F5FC5
:100540008093930680919306883009F5E0910B0122
:10055000F0910C0180919406E050FE4F80838091D1
:100560000B0190910C01019790930C0180930B016A
:1005700080910B0190910C01892B31F48CE291E078
:1005800090930C0180930B011092930607C0809109
:10059000940690E095958795809394068091F9054F
:1005A000813009F0D4C48091B7069091B8060196C5
:1005B0009093B8068093B7068091CD069091CE06B1
:1005C000A091CF06B091D006880F991FAA1FBB1F1C
:1005D0008093CD069093CE06A093CF06B093D0061D
:1005E0008091C9069091CA06A091CB06B091CC0625
:1005F000B7FD0AC08091CD069091CE06A091CF069E
:10060000B091D0068E7F09C08091CD069091CE0624
:10061000A091CF06B091D00681608093CD069093D3
:10062000CE06A093CF06B093D0068091C9069091D4
:10063000CA06A091CB06B091CC06880F991FAA1FBD
:10064000BB1F8093C9069093CA06A093CB06B093B4
:10065000CC068091C5069091C606A091C706B091C0
:10066000C806B7FD0AC08091C9069091CA06A0913C
:10067000CB06B091CC068E7F09C08091C9069091BF
:10068000CA06A091CB06B091CC0681608093C906C2
:100690009093CA06A093CB06B093CC068091C50672
:1006A0009091C606A091C706B091C806880F991F01
:1006B000AA1FBB1F8093C5069093C606A093C706CA
:1006C000B093C8068091C1069091C206A091C3065E
:1006D000B091C406B7FD0AC08091C5069091C606C8
:1006E000A091C706B091C8068E7F09C08091C5064B
:1006F0009091C606A091C706B091C806816080930C
:10070000C5069093C606A093C706B093C80680910D
:10071000C1069091C206A091C306B091C406880F8D
:10072000991FAA1FBB1F8093C1069093C206A09376
:10073000C306B093C4068091BD069091BE06A091F9
:10074000BF06B091C006B7FD0AC08091C106909166
:10075000C206A091C306B091C4068E7F09C08091E5
:10076000C1069091C206A091C306B091C4068160F3
:100770008093C1069093C206A093C306B093C406AB
:100780008091BD069091BE06A091BF06B091C006B3
:10079000880F991FAA1FBB1F8093BD069093BE06AA
:1007A000A093BF06B093C0068091160190911701E7
:1007B0000E94D218892B51F48091BD069091BE06FB
:1007C000A091BF06B091C006816009C08091BD06AE
:1007D0009091BE06A091BF06B091C0068E7F809317
:1007E000BD069093BE06A093BF06B093C00680914D
:1007F000C1069091C206A091C306B091C406AF7025
:10080000BB27853D974FA740B10579F48091BD0680
:100810009091BE06A091BF06B091C006807F803D3A
:100820009F4DA745BD4D09F431C68091C1069091F9
:10083000C206A091C306B091C406AF70BB278F3724
:100840009D45AD40B105D1F48091BD069091BE06A5
:10085000A091BF06B091C006807F80379547AD4F0D
:10086000B74761F480919206811119C681E48093A3
:10087000FC011092920681E08093CF0130919206A4
:10088000313009F000C18091B7069091B8068F37DA
:100890009D400CF4F8C08091B7069091B80682385C
:1008A0009D400CF0F0C08091BD069091BE06A091D5
:1008B000BF06B091C0068B2F9927AA27BB27FC0142
:1008C00027E7E227E859FF4F14918091BD069091E8
:1008D000BE06A091BF06B091C006EA2FF0E08DEFF2
:1008E000E827E859FF4F24918091BD069091BE06FC
:1008F000A091BF06B091C006892F9A2FAB2FBB27BE
:10090000A7FDBA95FC01FF2795E7E927E859FF4FB6
:1009100084914091BD065091BE066091BF067091D2
:10092000C006FA01FF2790E7E927E859FF4F4491F5
:10093000E22FF0E0E10FF11DE80FF11DE40FF11DD2
:100940003A976CF480EE91E09093540580935305B0
:1009500082E48093FC01109292063093CF01809143
:10096000BD069091BE06A091BF06B091C006807FE3
:10097000803D9F4DA745BD4D09F4AEC58091BD0694
:100980009091BE06A091BF06B091C006807F907F77
:10099000A07FB07F803D904DA045B04D09F49CC52F
:1009A0008091BD069091BE06A091BF06B091C00691
:1009B00088279F70AF70BF7081159F40A740BD40D2
:1009C00009F48AC58091BD069091BE06A091BF062C
:1009D000B091C0068B2F9927AA27BB27FC012DEDCC
:1009E000E227E859FF4F94914091BD065091BE0611
:1009F0006091BF067091C006E62FF0E087E5E8271A
:100A0000E859FF4F84914091BD065091BE06609118
:100A1000BF067091C006452F562F672F772767FDB9
:100A20007A95FA01FF272FEDE227E859FF4F44910D
:100A30000091BD061091BE062091BF063091C00600
:100A4000F801FF2720EDE227E859FF4F0491E82F36
:100A5000F0E0E90FF11DE40FF11DE00FF11D3A97F1
:100A600054F4109291061092900680E28093FC015B
:100A700081E08093CF018091B7069091B8068038CD
:100A80009D4009F414C58091CF01813021F410926A
:100A9000B8061092B70680919206813009F05DC1C8
:100AA0008091B7069091B8068E33924094F1809170
:100AB000B7069091B806813492405CF58091C106EA
:100AC0009091C206A091C306B091C40688279C7F6E
:100AD000A370BB2781159C44A105B10541F4809109
:100AE000B7069091B8068034924009F412C58091FF
:100AF000C1069091C206A091C306B091C406882792
:100B0000907FAF70BB2781159043A140B10509F4D8
:100B1000EEC48091B7069091B8068E37944094F158
:100B20008091B7069091B806813894405CF5809129
:100B3000C1069091C206A091C306B091C406882751
:100B40009C7FA370BB2781159C45A105B10541F48D
:100B50008091B7069091B8068038944009F4F5C4A6
:100B60008091C1069091C206A091C306B091C406BF
:100B70008827907FAF70BB2781159047A140B105B2
:100B800009F4D1C48091B7069091B8068E3B964087
:100B900094F18091B7069091B806813C96405CF53F
:100BA0008091C1069091C206A091C306B091C4067F
:100BB00088279C7FA370BB2781159C45A105B105A3
:100BC00041F48091B7069091B806803C964009F4B4
:100BD000D8C48091C1069091C206A091C306B0917D
:100BE000C4068827907FAF70BB2781159047A1402E
:100BF000B10509F4B4C48091B7069091B8068E3F50
:100C0000984094F18091B7069091B8068130994050
:100C10005CF58091C1069091C206A091C306B09187
:100C2000C40688279C7FA370BB2781159445A10526
:100C3000B10541F48091B7069091B80681159940AD
:100C400009F4BBC48091C1069091C206A091C3066D
:100C5000B091C4068827907FAF70BB27811590455F
:100C6000A140B10509F497C48091B7069091B806E8
:100C70008E339B4094F18091B7069091B8068134F1
:100C80009B405CF58091C1069091C206A091C3067D
:100C9000B091C40688279C7FA370BB27811594441C
:100CA000A105B10541F48091B7069091B806803452
:100CB0009B4009F49EC48091C1069091C206A09108
:100CC000C306B091C4068827907FAF70BB278115FB
:100CD0009041A140B10509F47AC48091B706909182
:100CE000B8068034924029F481E08093CF0180934C
:100CF000FC018091B7069091B8068038944031F499
:100D000081E08093CF0182E08093FC018091B7065F
:100D10009091B806803C964031F481E08093CF01F9
:100D200083E08093FC018091B7069091B80681150D
:100D3000994031F481E08093CF0184E08093FC01FD
:100D40008091B7069091B80680349B4031F481E0E1
:100D50008093CF0185E08093FC018091CF018130A9
:100D600009F053C082E08093CF018091CD0690912D
:100D7000CE06A091CF06B091D0068093F401909357
:100D8000F501A093F601B093F7018091C906909107
:100D9000CA06A091CB06B091CC068093F001909347
:100DA000F101A093F201B093F3018091C5069091F7
:100DB000C606A091C706B091C8068093EC01909337
:100DC000ED01A093EE01B093EF018091C1069091E7
:100DD000C206A091C306B091C4068093E801909327
:100DE000E901A093EA01B093EB018091BD069091D7
:100DF000BE06A091BF06B091C0068093E401909317
:100E0000E501A093E601B093E7018091CF01823024
:100E1000E1F58091B7069091B8068038910519F4F4
:100E200083E08093CF018091B7069091B806803C13
:100E3000924019F483E08093CF018091B70690919E
:100E4000B8068115954019F483E08093CF01809115
:100E5000B7069091B8068034974019F483E08093E8
:100E6000CF018091B7069091B8068038994019F467
:100E700083E08093CF018091B7069091B806803CC3
:100E80009B4019F483E08093CF018091CF018330A0
:100E900009F045C01092CF018091C9069091CA0611
:100EA000A091CB06B091CC068093E0019093E10134
:100EB000A093E201B093E3018091C5069091C6062C
:100EC000A091C706B091C8068093DC019093DD0124
:100ED000A093DE01B093DF018091C1069091C2061C
:100EE000A091C306B091C4068093D8019093D90114
:100EF000A093DA01B093DB018091BD069091BE060C
:100F0000A091BF06B091C0068093D4019093D50103
:100F1000A093D601B093D70181E08093FD01809129
:100F2000900690919106039794F0809192068130FB
:100F300011F41092920680E09BE490935605809302
:100F4000550580EE91E09093540580935305809170
:100F5000F905823009F094C28091B7069091B806E5
:100F600001969093B8068093B7068091CD06909134
:100F7000CE06A091CF06B091D006880F991FAA1F68
:100F8000BB1F8093CD069093CE06A093CF06B0935F
:100F9000D0068091C9069091CA06A091CB06B09167
:100FA000CC06B7FD0AC08091CD069091CE06A091E7
:100FB000CF06B091D0068E7F09C08091CD0690916A
:100FC000CE06A091CF06B091D00681608093CD0669
:100FD0009093CE06A093CF06B093D0068091C90619
:100FE0009091CA06A091CB06B091CC06880F991FAC
:100FF000AA1FBB1F8093C9069093CA06A093CB0675
:10100000B093CC068091C5069091C606A091C70604
:10101000B091C806B7FD0AC08091C9069091CA0672
:10102000A091CB06B091CC068E7F09C08091C906F5
:101030009091CA06A091CB06B091CC0681608093B6
:10104000C9069093CA06A093CB06B093CC068091B4
:10105000C5069091C606A091C706B091C806880F34
:10106000991FAA1FBB1F8093C5069093C606A09325
:10107000C706B093C8068091C1069091C206A091A0
:10108000C306B091C406B7FD0AC08091C506909111
:10109000C606A091C706B091C8068E7F09C0809190
:1010A000C5069091C606A091C706B091C80681609A
:1010B0008093C5069093C606A093C706B093C80652
:1010C0008091C1069091C206A091C306B091C4065A
:1010D000880F991FAA1FBB1F8093C1069093C20659
:1010E000A093C306B093C4068091BD069091BE063E
:1010F000A091BF06B091C006B7FD0AC08091C1069D
:101100009091C206A091C306B091C4068E7F09C01B
:101110008091C1069091C206A091C306B091C40609
:1011200081608093C1069093C206A093C306B093DA
:10113000C4068091BD069091BE06A091BF06B091F5
:10114000C006880F991FAA1FBB1F8093BD069093EE
:10115000BE06A093BF06B093C00680911601909181
:1011600017010E94D218892B51F48091BD069091ED
:10117000BE06A091BF06B091C006816009C08091F3
:10118000BD069091BE06A091BF06B091C0068E7FAD
:101190008093BD069093BE06A093BF06B093C00691
:1011A0008091CD069091CE06A091CF06B091D00649
:1011B0008336994CA147B44DA1F48091C906909112
:1011C000CA06A091CB06B091CC0688279927AA27FA
:1011D0000097A105BD4429F48091CF01882309F42B
:1011E00012C28091CF01823041F48091B706909174
:1011F000B806803A910509F412C28091CF0183307C
:1012000041F48091B7069091B806803A910509F4AF
:101210000FC28091CF01843041F48091B706909144
:10122000B806803A910509F409C28091CF01853052
:1012300041F48091B7069091B806803A910509F47F
:1012400006C28091CF01863041F48091B70690911B
:10125000B806803A910509F400C28091CF01873029
:1012600009F00EC18091B7069091B8068C379105B0
:101270000CF495C08091B7069091B8068538910519
:101280000CF08DC08091C9069091CA06A091CB0642
:10129000B091CC068B2F9927AA27BB27FC0124ED00
:1012A000E227E859FF4F94914091C9065091CA0630
:1012B0006091CB067091CC06E62FF0E081E7E8273D
:1012C000E859FF4F84914091C9065091CA06609138
:1012D000CB067091CC06452F562F672F772767FDD9
:1012E0007A95FA01FF2729ECE227E859FF4F44914C
:1012F0000091C9061091CA062091CB063091CC0608
:10130000F801FF2723E6E227E859FF4F0491E82F71
:10131000F0E0E90FF11DE40FF11DE00FF11D3A9728
:10132000F4F52091B7063091B8068091B7069091F8
:10133000B806821B930B80589F4F9093B8068093FA
:10134000B70683E699ECA1E7B4ED8093C9069093C4
:10135000CA06A093CB06B093CC068091C5069091A7
:10136000C606A091C706B091C806BB278093C506E4
:101370009093C606A093C706B093C8068091C50691
:101380009091C606A091C706B091C806BD6480932F
:10139000C5069093C606A093C706B093C806809171
:1013A000B7069091B806803A910509F069C010928D
:1013B000B8061092B70682E08093CF010E94B82051
:1013C0008091CD069091CE06A091CF06B091D00627
:1013D0008336994CA147B44D19F410928F0650C032
:1013E00083E699ECA1E7B4ED8093CD069093CE0609
:1013F000A093CF06B093D0068091C9069091CA06FB
:10140000A091CB06B091CC06BB278093C9069093E0
:10141000CA06A093CB06B093CC068091C9069091E2
:10142000CA06A091CB06B091CC06BD648093C906D4
:101430009093CA06A093CB06B093CC060E94B82026
:1014400080918F068F5F80938F0680918F06843006
:1014500019F481E08093CE0180918F06853080F071
:101460001092CF011092CE0180E09BE4909356053C
:101470008093550580EE91E0909354058093530539
:1014800081E08093EC051F910F91089580E2809395
:10149000FC0181E0809392068093CF01C6C980EE63
:1014A00091E0909354058093530582E4E0C98091C4
:1014B000CF01813009F4E7CA80919006909191069E
:1014C0000196909391068093900680E28093FC01B0
:1014D00081E08093CF01D7CA1092910610929006B6
:1014E00080E28093FC0181E08093CF016BCA809100
:1014F000B7069091B8068E33924009F00ACB8091DE
:10150000B7069091B80602969093B8068093B706F6
:1015100000CB8091B7069091B80602979093B806D9
:101520008093B706E4CA8091B7069091B8068E37CB
:10153000944009F027CB8091B7069091B8060296A7
:101540009093B8068093B7061DCB8091B706909113
:10155000B80602979093B8068093B70601CB8091A6
:10156000B7069091B8068E3B964009F044CB809127
:10157000B7069091B80602969093B8068093B70686
:101580003ACB8091B7069091B80602979093B8062F
:101590008093B7061ECB8091B7069091B8068E3F18
:1015A000984009F061CB8091B7069091B8060296F9
:1015B0009093B8068093B70657CB8091B706909169
:1015C000B80602979093B8068093B7063BCB8091FC
:1015D000B7069091B8068E339B4009F07ECB809180
:1015E000B7069091B80602969093B8068093B70616
:1015F00074CB8091B7069091B80602979093B80685
:101600008093B70658CB1092CE0110928F0610929D
:10161000FD0182E08093CF010E94B820E2CD83E0FB
:101620008093CF010E949A2081E08093FD01E5CD57
:1016300084E08093CF010E94B820EBCD85E08093B9
:10164000CF010E949A2081E08093FD01EECD86E0DB
:101650008093CF010E94B820F4CD87E08093CF0122
:101660000E949A2081E08093FD0110928E06F5CDB4
:1016700061E08EE00E94FB1860E08FE00E94FB18A2
:1016800061E084E00E94FB188091EE059091EF05E7
:1016900001969093EF058093EE05809188068F5F09
:1016A0008093880680918806823010F01092880618
:1016B0008091F905811186C08091F3059091F40520
:1016C00001979093F4058093F3058091F60584309B
:1016D00021F08091F605853011F510928D0610925B
:1016E0008C068091F1059091F20501979093F20597
:1016F0008093F10580910201909103010E94D2181C
:10170000019709F04CC2809102019091030160E0C1
:101710000E94FB188091F605853009F446C280913D
:10172000F605873029F08091F605883009F04AC027
:1017300080918C0690918D06019690938D068093F2
:101740008C0680918C0690918D06803691055CF018
:1017500010928D0610928C06809132018F5F8093DB
:10176000320180913201E0910D01F0910E01E050C3
:10177000FE4F8081209141013091420190E002C0F2
:10178000959587952A95E2F780FF24C28091020102
:101790009091030161E00E94FB18809141019091BA
:1017A0004201019690934201809341018091410151
:1017B00090914201089709F413C28091F605883090
:1017C00009F42AC28091F905813009F049C180915C
:1017D0000701813079F58091EE059091EF0580FF4A
:1017E00006C0809102019091030160E005C08091E4
:1017F00002019091030161E00E94FB1880911201A7
:10180000909113010197909313018093120180919D
:10181000120190911301892B09F0BDC182E08093E0
:10182000070180910D0190910E0190938B0680939A
:101830008A0687C080910701823009F058C0209144
:101840004301409104015091050181E090E0841B27
:10185000950B31E2239F800D911D112490930E0171
:1018600080930D01E0910D01F0910E01E050FE4FCB
:101870008081209141013091420190E002C0959514
:1018800087952A95E2F780FF06C08091020190912A
:10189000030160E005C0809102019091030161E0C5
:1018A0000E94FB188091410190914201892B09F01F
:1018B00069C187E090E0909342018093410180915B
:1018C0000401909105010197909305018093040113
:1018D0008091040190910501892B09F05CC189E197
:1018E00090E0909313018093120183E048C18091AE
:1018F0000701833069F58091EE059091EF058091A5
:1019000002019091030160E00E94FB188091120196
:10191000909113010197909313018093120180918C
:10192000120190911301892B09F035C184E0809355
:10193000070180918A0690918B0690930E01809307
:101940000D0181E290E0909305018093040123C191
:1019500080910701843009F083C0209143014091B8
:1019600004015091050181E090E0841B950B31E268
:10197000239F800D911D112490930E0180930D01E2
:10198000E0910D01F0910E01E050FE4F8081209119
:1019900041013091420190E002C0959587952A95CA
:1019A000E2F780FF06C0809102019091030160E0A0
:1019B00005C0809102019091030161E00E94FB1833
:1019C0008091410190914201892B09F0DBC087E0B1
:1019D00090E09093420180934101809104019091A5
:1019E0000501019790930501809304018091040102
:1019F00090910501892B09F0CEC087E190E090938A
:101A000013018093120121E02093070180913F018F
:101A10009091400101979093400180933F01809104
:101A200043018F5F80934301809143018A3110F01D
:101A30002093430180913F019091400118161906AF
:101A40001CF085E08093070180910701853009F043
:101A5000A2C080914401882309F49DC081E08FC019
:101A60008091F905823009F096C08091F10590913E
:101A7000F20518161906DCF48091880680FF06C06E
:101A8000809102019091030160E005C08091020104
:101A90009091030161E00E94FB188091F105909103
:101AA000F20501979093F2058093F10574C0E091DF
:101AB0000D01F0910E01E050FE4F80812091410117
:101AC0003091420190E002C0959587952A95E2F702
:101AD00080FF06C0809102019091030160E005C083
:101AE000809102019091030161E00E94FB188091B6
:101AF000410190914201892B09F044C087E090E0B8
:101B0000909342018093410180910D0190910E01CB
:101B1000019690930E0180930D0180910D0190919B
:101B20000E018934934031F481E090E090930E01EE
:101B300080930D018091040190910501019690938D
:101B4000050180930401809104019091050188377B
:101B5000910509F5109205011092040180913F0151
:101B60009091400101979093400180933F018091B3
:101B70003F0190914001181619066CF085E08093A2
:101B8000070109C080914101909142010197909312
:101B900042018093410181E08093F805089580918E
:101BA00002019091030161E0B3CD80910201909117
:101BB00003010E94D218019749F08091020190918F
:101BC00003010E94D218892B09F0A9CD86E08093E9
:101BD000F605A5CD809102019091030160E0DBCD77
:101BE000109242011092410180910D0190910E01DD
:101BF000019690930E0180930D0180910D019091BB
:101C00000E01833593400CF4D8CD81E090E09093A1
:101C10000E0180930D01D1CD20910F013091100163
:101C200080910D0190910E012817390709F0CACD56
:101C300089E08093F605C6CD7091CB01E091CB0190
:101C40006091CB01E1FB442740F950E0872F817080
:101C500090E08427952762FB222720F930E0821745
:101C6000930701F14091460150914701E091CD0168
:101C70008091CC01F0E09F01220F331FE20FF31F90
:101C8000E80FF11DEC58FE4F208181E090E0A0E0CC
:101C9000B0E004C0880F991FAA1FBB1F4A95D2F756
:101CA000822B2AC02091460130914701E091CD015D
:101CB0008091CC01F0E0AF01440F551FE40FF51FF8
:101CC000E80FF11DEC58FE4F8081482F50E060E096
:101CD00070E081E090E0A0E0B0E004C0880F991FC0
:101CE000AA1FBB1F2A95D2F780959095A095B09515
:101CF00084239523A623B723808380914601909166
:101D00004701019690934701809346012091CB01B2
:101D10008091CB0190E09595879595958795822741
:101D200080FF20C04091460150914701E091CD01D4
:101D30008091CC01F0E09F01220F331FE20FF31FCF
:101D4000E80FF11DEC58FE4F208181E090E0A0E00B
:101D5000B0E004C0880F991FAA1FBB1F4A95D2F795
:101D6000822B2AC02091460130914701E091CD019C
:101D70008091CC01F0E0AF01440F551FE40FF51F37
:101D8000E80FF11DEC58FE4F8081482F50E060E0D5
:101D900070E081E090E0A0E0B0E004C0880F991FFF
:101DA000AA1FBB1F2A95D2F780959095A095B09554
:101DB00084239523A623B7238083809146019091A5
:101DC00047010196909347018093460108950E9430
:101DD000C41C80912E01813049F08091D5060E946B
:101DE000391A8091D60681110AC005C080913C0144
:101DF000813099F73AC080912F01813029F080918C
:101E0000D606811111C01FC082E00E94D21801972E
:101E1000D9F382E00E94D218892BD9F382E00E9484
:101E2000D2180197D9F3EBCF83E00E94D218019723
:101E3000D9F383E00E94D218892BD9F383E00E9462
:101E4000D2180197D9F3809100019091010161E0CE
:101E50000E94FB18809100019091010160E00E94B6
:101E6000FB1860E08AE00C94FB188091D606811183
:101E700005C080912F01882309F4AFCF8091D5064A
:101E800042E050E068E37BE00E943E1A80918806C1
:101E90008130A1F38091D50642E050E068E37BE019
:101EA0000E943E1A809188068823A1F38091D5066E
:101EB00042E050E068E37BE00E943E1A8091880691
:101EC0008130A1F38ACF8091B6068F5F8093B606EA
:101ED0008091B606883000F11092B606E0910901B3
:101EE000F0910A01E050FE4F80818093D5058091EA
:101EF000090190910A01019790930A0180930901C9
:101F00008091090190910A01892B31F48CE291E0D2
:101F100090930A018093090186E190E0FC01EB5265
:101F2000FA4F208130E03595279520830197DC0119
:101F3000AB52BA4F2C9120FF03C02081206802C011
:101F400020812F7720838F3F2FEF920739F7089555
:101F50008091CB0187FF04C08091CB0182FD08C036
:101F60008091CB0187FD14C08091CB0182FD10C010
:101F70008091CB018E7F8093CB018091C80190E04E
:101F8000959587958093C8018091C8018F770FC080
:101F90008091CB0181608093CB018091C80190E05A
:101FA000959587958093C8018091C801806880933A
:101FB000C8018091CB01880F8093CB010895CF9306
:101FC000DF931092CD011092CC011092CB011092B0
:101FD00047011092460181E090E09093CA018093FE
:101FE000C9018091C9019091CA018A970CF046C03D
:101FF000C0E0D0E08091CB01880F8093CB01E091CD
:10200000C901F091CA01E65BFE4F808190E00C2E81
:1020100002C0959587950A94E2F780FF04C08091ED
:10202000CB01816003C08091CB018E7F8093CB0177
:102030000E941C0E80914601909147010897A4F0E0
:1020400010924701109246018091CC018F5F8093DE
:10205000CC018091CC01833038F01092CC0180917A
:10206000CD018F5F8093CD012196C830D10511F647
:102070008091C9019091CA010196AFCF8091CB01A7
:10208000880F8093CB018091CB018E7F8093CB0111
:102090000E941C0E8091CB01880F8093CB01809110
:1020A000CB018E7F8093CB01DF91CF910C941C0EDE
:1020B0004F925F926F927F928F929F92AF92BF9258
:1020C000CF92DF92EF92FF920F931F931092CD0168
:1020D0001092CC018FEF8093CB01109247011092A8
:1020E00046018AEE8093010286EA809302021092F2
:1020F000030284E090E0909342018093410183E0E9
:1021000090E09093B5068093B40620E030E061E063
:1021100070E0C12CD12C7601C3941092470110922B
:1021200046018B01022E02C0000F111F0A94E2F734
:1021300080914601909147014C970CF073C08091BB
:10214000460190914701FC01EE0FFF1F8E0F9F1F6C
:10215000FC01EC58FE4F808190E080239123892B75
:10216000C1F08091410190914201E091B406F0915B
:10217000B506E050FE4FB0802601370104C0440C84
:10218000551C661C771C8A95D2F7D301C2018B2996
:1021900022C0A0914101B0914201E091B406F091BA
:1021A000B506E050FE4F8081882E912CA12CB12CD9
:1021B0002601370104C0440C551C661C771CAA95E7
:1021C000D2F7D301C20180959095A095B095882152
:1021D0009921AA21BB2180838091410190914201E4
:1021E0000196909342018093410180914101909129
:1021F000420108976CF010924201109241018091C7
:10220000B4069091B50601969093B5068093B406F6
:1022100080914601909147010196909347018093E8
:10222000460186CF2F5F3F4F2830310509F075CF2B
:1022300080E090E061E070E0C12CD12C7601C39485
:102240001092470110924601DB01082E02C0AA0F2E
:10225000BB1F0A94E2F720914601309147012C31CF
:1022600031050CF077C02091460130914701F9010A
:10227000EE0FFF1F2E0F3F1FF901EC58FE4F21817B
:1022800030E02A233B23232BC1F0209141013091E0
:102290004201E091B406F091B506E050FE4FB080E7
:1022A0003601470104C0660C771C881C991C2A95CE
:1022B000D2F7940183010B2922C020914101309172
:1022C0004201E091B406F091B506E050FE4F008166
:1022D000802E912CA12CB12C2601370104C0440C76
:1022E000551C661C771C2A95D2F793018201009534
:1022F000109520953095082119212A213B21008332
:1023000020914101309142012F5F3F4F30934201B4
:102310002093410120914101309142012830310543
:1023200074F010924201109241012091B406309154
:10233000B5062F5F3F4F3093B5062093B40620912A
:102340004601309147012F5F3F4F30934701209363
:10235000460181CF01968430910509F071CF61E08B
:1023600070E0C12CD12C7601C394109247011092D9
:102370004601DB01082E02C0AA0FBB1F0A94E2F738
:1023800020914601309147012B3131050CF077C087
:102390002091460130914701F901EE0FFF1F2E0FEA
:1023A0003F1FF901EC58FE4F218130E02A233B23E7
:1023B000232BC1F02091410130914201E091B406FC
:1023C000F091B506E050FE4FB0803601470104C0E1
:1023D000660C771C881C991C2A95D2F794018301FE
:1023E0000B2922C02091410130914201E091B406B5
:1023F000F091B506E050FE4F0081802E912CA12C6B
:10240000B12C2601370104C0440C551C661C771CF6
:102410002A95D2F793018201009510952095309569
:10242000082119212A213B2100832091410130916B
:1024300042012F5F3F4F3093420120934101209191
:102440004101309142012830310574F0109242016F
:10245000109241012091B4063091B5062F5F3F4F95
:102460003093B5062093B406209146013091470180
:102470002F5F3F4F309347012093460181CF019654
:102480008830910509F071CF20E030E061E070E024
:10249000C12CD12C7601C3941092470110924601B1
:1024A0008B01022E02C0000F111F0A94E2F78091E7
:1024B0004601909147014B970CF073C08091460103
:1024C00090914701FC01EE0FFF1F8E0F9F1FFC0133
:1024D000EC58FE4F828190E080239123892BC1F03C
:1024E0008091410190914201E091B406F091B506CE
:1024F000E050FE4FB0803601470104C0660C771CE7
:10250000881C991C8A95D2F7D401C3018B2922C05B
:10251000A0914101B0914201E091B406F091B5065D
:10252000E050FE4F8081882E912CA12CB12C2601E9
:10253000370104C0440C551C661C771CAA95D2F7C1
:10254000D301C20180959095A095B09588219921DD
:10255000AA21BB2180838091410190914201019683
:1025600090934201809341018091410190914201F9
:1025700008976CF010924201109241018091B406CC
:102580009091B50601969093B5068093B40680911C
:10259000460190914701019690934701809346012F
:1025A00086CF2F5F3F4F2830310509F075CF84E08B
:1025B00090E0909342018093410183E090E09093FA
:1025C000B5068093B40681E090E090934701809334
:1025D000460101E010E020E030E08091460190915A
:1025E0004701853992400CF092C08091CB01880F51
:1025F0008093CB019091CB018091CB0194FB442738
:1026000040F950E0881F8827881F90E04817590735
:1026100021F08091CB01816003C08091CB018E7F3E
:102620008093CB016091CB01E091B406F091B506A7
:10263000E050FE4F8081E0914101F091420190E035
:1026400002C095958795EA95E2F7862780FF18C026
:102650008091410190914201E091B406F091B5065C
:10266000E050FE4F60813801490104C0660C771CC0
:10267000881C991C8A95D2F7D401C301862B20C0EF
:102680006091410170914201E091B406F091B5066C
:10269000E050FE4F8081C82ED12CE12CF12CD901C5
:1026A000C80104C0880F991FAA1FBB1F6A95D2F7E3
:1026B00080959095A095B0958C219D21AE21BF214C
:1026C0008083809141019091420101969093420153
:1026D00080934101809141019091420108976CF0F3
:1026E00010924201109241018091B4069091B5067A
:1026F00001969093B5068093B4068091460190911F
:1027000047010196909347018093460166CF1F9140
:102710000F91FF90EF90DF90CF90BF90AF909F9080
:102720008F907F906F905F904F900895CF93DF933D
:1027300080ED80935D0580E090E021E030E0409105
:102740005A0550915B0542175307A4F0F901E45A6A
:10275000FA4F4081E92FFF27E427EE0FFF1FE859CA
:10276000FE4F45915491982F8827842795272F5FF6
:102770003F4FE5CF9093490180934801E0915A057E
:10278000F0915B05E25AFA4F8083E0915A05F0918F
:102790005B05E35AFA4F908380915A0590915B054F
:1027A000029690935B0580935A05C1E0D0E080913A
:1027B0005A0590915B058C179D0754F0FE01E45A71
:1027C000FA4F60818FEE96E00E94A5172196EFCF19
:1027D000DF91CF9108958091110180911101813095
:1027E00019F485E090E002C080E090E0EDE0F6E0D2
:1027F000E81BF90B20812093AA05EEE0F6E0E81B28
:10280000F90B20812093AB05EFE0F6E0E81BF90B14
:1028100020812093AC05E0E1F6E0E81BF90B208174
:102820002093AD05E1E1F6E0E81BF90B2081209350
:10283000AE05E2E1F6E0E81BF90B20812093AF053D
:10284000E3E1F6E0E81BF90B20812093B00527E4D3
:102850002093B105E5E0F6E0E81BF90B2081209319
:10286000B205E6E0F6E0E81BF90B20812093B30502
:10287000E7E0F6E0E81BF90B20812093B405E8E0DF
:10288000F6E0E81BF90B20812093B505E9E0F6E0BE
:10289000E81BF90B20812093B605EAE0F6E0E81B7F
:1028A000F90B20812093B705EBE0F6E0E81BF90B6C
:1028B00020812093B805ECE0F6E0E81BF90B2081BD
:1028C0002093B905EDE1F6E0E81BF90B2081209398
:1028D000C205EEE1F6E0E81BF90B20812093C30569
:1028E000EFE1F6E0E81BF90B20812093C405E0E25C
:1028F000F6E0E81BF90B20812093C505E1E2F6E044
:10290000E81BF90B20812093C605E2E2F6E0E81B04
:10291000F90B20812093C705E3E2F6E0E81BF90BF1
:1029200080818093C80580E28093C90508958091D5
:102930001101813061F480EE90E00E94DD2083E09F
:1029400090E00E94DD2083E190E00E94DD208091F4
:102950001101811118C083E080935E0510925F051C
:102960008AE18093600580910801809361058091E0
:1029700059058093620586E090E090935B05809313
:102980005A050C9496130895CF9380E09BE490939E
:1029900056058093550580EE91E090935405809301
:1029A00053058091F905811139C080E895E2909333
:1029B00056058093550580EF90E0909354058093E1
:1029C00053050E94E70E8091D50643E050E06CE08D
:1029D00072E00E943E1A809145018E7F80934501EE
:1029E000809145018D7F809345018CE291E0909329
:1029F0000C0180930B011092B6061092ED05109217
:102A0000570510925805109232011092F70581E097
:102A10008093F6051092F5058093F0058091F905F5
:102A2000813041F08091F905823021F010923C0113
:102A3000CF9108951092400110923F011092F70536
:102A4000C1E0C093070110923E0110923D0188E160
:102A500090E090931301809312010E94E70E8CE2A4
:102A600091E090930C0180930B01C093ED051092BF
:102A7000F0058091D50643E050E06CE072E00E94E2
:102A80003E1AD4CF0E94B31A8091D606811103C09A
:102A90000E94891A02C00E945E1A0E94F41D0E94C0
:102AA000C41C0C94C41481E080932E0180933C01DB
:102AB0008091F9058111A6C08AEF90E090930A01F8
:102AC000809309018CE291E090930C0180930B01BB
:102AD0000E94441D8091D60681110DC080912F0166
:102AE000811109C08091D5060E94391A8091D606BD
:102AF00081111EC019C08091D50643E050E06CE002
:102B000072E00E943E1A809189068130A1F3809183
:102B1000D50643E050E06CE072E00E943E1A8091DE
:102B200089068823A1F3DECF80912F01813029F01F
:102B30008091D606811111C01FC082E00E94D21878
:102B4000892BD9F382E00E94D2180197D9F382E051
:102B50000E94D218892BD9F3EBCF83E00E94D218C0
:102B6000892BD9F383E00E94D2180197D9F383E02F
:102B70000E94D218892BD9F3809100019091010114
:102B800061E00E94FB18809100019091010160E0DA
:102B90000E94FB1860E08AE00E94FB1880914501CA
:102BA0008E7F80934501809145018260809345012D
:102BB0008091310125E0829FC00111249093F4059A
:102BC0008093F3058091F3059091F40560913001B5
:102BD0004BEF54E0649F9001659F300D1124820FEC
:102BE000931F9093F4058093F30582E08093F6059C
:102BF0008093F0058091D50642E050E068E37BE0E9
:102C00000E943E1A8091F9058130E9F58091D6063F
:102C1000811120C080912F0181111CC08091D506A7
:102C20000E94391A8CE291E090930C0180930B0181
:102C30000E94441D1092ED0581E08093F005809381
:102C400007018091D50642E050E068E37BE00E94F6
:102C50003E1A19C08091D50643E050E06CE072E066
:102C60000E943E1A809189068130A1F38091D50699
:102C700043E050E06CE072E00E943E1A80918906C9
:102C80008823A1F3CBCF8091F905823009F081C070
:102C90008091F005811108950E94441D8091D6060F
:102CA00081111AC080912F01811116C08091D50623
:102CB0000E94391A8CE291E090930C0180930B01F1
:102CC0001092ED0581E08093F005809307018091DB
:102CD000D60681111EC019C08091D50643E050E090
:102CE0006CE072E00E943E1A809189068130A1F367
:102CF0008091D50643E050E06CE072E00E943E1AFD
:102D0000809189068823A1F3D1CF80912F01813052
:102D100029F08091D60681110CC015C082E00E9476
:102D2000D218892BD9F382E00E94D2180197D9F3E7
:102D3000F0CF83E00E94D218892BD9F383E00E9460
:102D4000D2180197D9F3809100019091010161E0BF
:102D50000E94FB18809100019091010160E00E94A7
:102D6000FB1860E08AE00E94FB1887E090E09093F7
:102D700042018093410180EC93E09093F2058093AF
:102D8000F1058091D50642E050E068E37BE00C94C9
:102D90003E1A08958FE190E09093B3068093B206B7
:102DA0008091B2069091B30697FD29C08091D1061B
:102DB0009091D206A091D306B091D4062091B2068C
:102DC0003091B30604C0B595A795979587952A9538
:102DD000D2F780FF02C061E001C060E08AE00E949B
:102DE000FB1861E087E00E94FB1860E087E00E942A
:102DF000FB188091B2069091B3060197CDCF08954C
:102E00000E94CA16809100019091010161E00E9428
:102E1000FB18809100019091010160E00E94FB1875
:102E200060E08AE00C94FB18CF92DF92EF92FF9261
:102E30000F931F93CF93DF936C017A018B01C0E056
:102E4000D0E0CE15DF0589F0D8016D918D01D60156
:102E5000ED91FC910190F081E02DC6010995892B3F
:102E600011F47E0102C02196ECCFC701DF91CF9112
:102E70001F910F91FF90EF90DF90CF9008950895EC
:102E800080E090E00895FC01538D448D252F30E0C3
:102E9000842F90E0821B930B541710F0CF96089567
:102EA00001970895FC01918D828D981759F0828DBC
:102EB000DF01A80FB11D5D968C91928D9F5F928F5F
:102EC00090E008958FEF9FEF0895FC01918D828D22
:102ED000981731F0828DE80FF11D858D90E00895EF
:102EE0008FEF9FEF0895FC01918D828D981B892FA4
:102EF00090E008958FEE96E00E94731721E0892BF1
:102F000009F420E0822F0895FC01848DDF01A80FD1
:102F1000B11DA35EBE4F2C91848D90E001968F73FE
:102F20009927848FA689B7892C93A089B1898C9120
:102F300080648C93938D848D981306C00288F389E6
:102F4000E02D80818F7D80830895EF92FF920F9313
:102F50001F93CF93DF93EC0181E0888F9B8D8C8D45
:102F6000981305C0E889F989808185FD24C0F62E73
:102F70000B8D10E00F5F1F4F0F731127E02E8C8D0C
:102F8000E8120CC00FB607FCFACFE889F9898081F6
:102F900085FFF5CFCE010E948417F1CF8B8DFE0106
:102FA000E80FF11DE35EFE4FF0820B8FEA89FB898B
:102FB0008081806207C0EE89FF896083E889F98992
:102FC00080818064808381E090E0DF91CF911F91C8
:102FD0000F91FF90EF900895CF93DF93EC01888DD0
:102FE0008823C9F0EA89FB89808185FD05C0A8890D
:102FF000B9898C9186FD0FC00FB607FCF5CF808193
:1030000085FFF2CFA889B9898C9185FFEDCFCE01DC
:103010000E948417E7CFDF91CF91089580E090E080
:10302000892B29F00E947A1781110C9400000895D1
:10303000833081F028F4813099F08230A1F0089536
:103040008730A9F08830B9F08430D1F480918000C5
:103050008F7D03C0809180008F77809380000895DA
:1030600084B58F7702C084B58F7D84BD089580912B
:10307000B0008F7703C08091B0008F7D8093B00047
:1030800008953FB7F8948091EB069091EC06A091DB
:10309000ED06B091EE0626B5A89B05C02F3F19F0AE
:1030A0000196A11DB11D3FBFBA2FA92F982F8827C8
:1030B000820F911DA11DB11DBC01CD0142E0660F23
:1030C000771F881F991F4A95D1F70895882321F00B
:1030D000813019F4E99801C0E898E82FF0E0EE0F8C
:1030E000FF1FE85EFE4F88E798E191838083089593
:1030F00008950E948B3A1F920F920FB60F921124DF
:103100002F933F934F935F936F937F938F939F93EF
:10311000AF93BF93EF93FF938FEE96E00E948417D7
:10312000FF91EF91BF91AF919F918F917F916F919F
:103130005F914F913F912F910F900FBE0F901F9075
:1031400018951F920F920FB60F9211242F938F9301
:103150009F93EF93FF93E091FF06F091000780812A
:10316000E0910507F091060782FD11C090818091E2
:1031700008078F5F20910907821751F0E091080737
:10318000F0E0E151F94F958F8093080701C08081ED
:10319000FF91EF919F918F912F910F900FBE0F9004
:1031A0001F901895CF93DF93282F30E0F901E25557
:1031B000FC4F8491F901E656FC4FD491F901EA578E
:1031C000FC4FC491CC2391F081110E941818EC2F70
:1031D000F0E0EE0FFF1FE458FC4FA591B491EC9185
:1031E000ED2381E090E021F480E002C080E090E0F7
:1031F000DF91CF9108951F93CF93DF93282F30E075
:10320000F901E255FC4F8491F901E656FC4FD49147
:10321000F901EA57FC4FC491CC23C9F0162F811154
:103220000E941818EC2FF0E0EE0FFF1FEE58FC4F35
:10323000A591B4918FB7F894111105C09C91ED2F11
:10324000E095E92302C0EC91ED2BEC938FBFDF9169
:10325000CF911F910895CF93DF9390E0FC01E65644
:10326000FC4F2491FC01EA57FC4F8491882361F1C3
:1032700090E0880F991FFC01E859FC4FC591D4914B
:10328000FC01EE58FC4FA591B491611109C09FB7A4
:10329000F8948881209582238883EC912E230BC09B
:1032A000623061F49FB7F8943881822F8095832330
:1032B0008883EC912E2B2C939FBF06C08FB7F89478
:1032C000E8812E2B28838FBFDF91CF9108958F92B5
:1032D0009F92AF92BF92CF92DF92EF92FF926B01DB
:1032E0007C010E9441184B015C01C114D104E1042E
:1032F000F104F1F00E944118DC01CB018819990911
:10330000AA09BB09883E9340A105B10570F321E0ED
:10331000C21AD108E108F10888EE880E83E0981EF1
:10332000A11CB11CC114D104E104F10419F7DDCFD3
:10333000FF90EF90DF90CF90BF90AF909F908F90D5
:1033400008951F920F920FB60F9211242F933F935F
:103350008F939F93AF93BF938091E7069091E80678
:10336000A091E906B091EA063091E60623E0230F2A
:103370002D3720F40196A11DB11D05C026E8230FAD
:103380000296A11DB11D2093E6068093E706909357
:10339000E806A093E906B093EA068091EB069091C7
:1033A000EC06A091ED06B091EE060196A11DB11DAF
:1033B0008093EB069093EC06A093ED06B093EE0697
:1033C000BF91AF919F918F913F912F910F900FBE21
:1033D0000F901F9018951F920F920FB60F92112405
:1033E0002F933F934F935F936F937F938F939F930D
:1033F000AF93BF93EF93FF93E0911A01F0911B01FC
:103400000995FF91EF91BF91AF919F918F917F911E
:103410006F915F914F913F912F910F900FBE0F9041
:103420001F9018951F920F920FB60F9211242F9391
:103430003F934F935F936F937F938F939F93AF933C
:10344000BF93EF93FF93E0911801F0911901099553
:10345000FF91EF91BF91AF919F918F917F916F916C
:103460005F914F913F912F910F900FBE0F901F9042
:103470001895823010F40C94661808958230E8F4A0
:10348000E82FF0E0EE0FFF1FE85EFE4F71836083D0
:10349000813041F0809169008C7F482B4093690016
:1034A000E89A089580916900440F551F440F551FF5
:1034B000837F482B40936900E99A089581E08093C7
:1034C000D6068093D50688E090E09093170180930C
:1034D000160189E090E0909303018093020184E05B
:1034E00090E090931501809314018BE090E090930D
:1034F00001018093000180E00E94661881E00E9433
:1035000066188091D50643E050E06CE072E00C94C0
:103510003E1A1092D6061092D50685E090E0909360
:1035200017018093160186E090E090930301809349
:1035300002018DE090E090931501809314018CE0DE
:1035400090E0909301018093000180E00E94661852
:1035500081E00E9466188091D50643E050E06CE05F
:1035600072E00C943E1ACF92DF92EF92FF9280911C
:10357000F905882349F08091F905813029F080917F
:10358000F905823009F0FBC1809138019091390131
:10359000A0913A01B0913B018115924CAB4EBB40DA
:1035A0001CF41092D60603C081E08093D606809169
:1035B000D606811115C08091380190913901A091F2
:1035C0003A01B0913B01BC01CD01605A764881407F
:1035D00091090E940C3920E030E041E65AE414C021
:1035E0008091380190913901A0913A01B0913B014D
:1035F000BC01CD01605A7648814091090E940C3986
:1036000020E030E041EE5AE40E9469386093E2061F
:103610007093E3068093E4069093E5066091E206DA
:103620007091E3068091E4069091E5060E94473987
:103630000E94DB386093E106C090E206D090E3067A
:10364000E090E406F090E5068091E106682F70E0D6
:1036500080E090E00E940C399B01AC01C701B601EB
:103660000E94FC3720E030E040E057E40E94F0394F
:103670006093E2067093E3068093E4069093E50678
:103680006091E2067091E3068091E4069091E50670
:1036900020E030E040E05FE30E94FD370E944739C0
:1036A0000E94DB387093E0066093DF0683E090E0D1
:1036B000A0E0B0E08093DB069093DC06A093DD06EB
:1036C000B093DE068091DB069091DC06A091DD06CA
:1036D000B091DE06BA2FA92F982F88278093DB069A
:1036E0009093DC06A093DD06B093DE068091DB06A6
:1036F0009091DC06A091DD06B091DE062091E106F6
:10370000822B8093DB069093DC06A093DD06B093BA
:10371000DE068091DB069091DC06A091DD06B0917B
:10372000DE066FE0880F991FAA1FBB1F6A95D1F7AD
:103730008093DB069093DC06A093DD06B093DE0653
:103740004091DB065091DC066091DD067091DE064B
:103750008091DF069091E006A0E0B0E0842B952BED
:10376000A62BB72B8093DB069093DC06A093DD0697
:10377000B093DE068091DB069091DC06A091DD0619
:10378000B091DE0674E0880F991FAA1FBB1F7A95BF
:10379000D1F78093DB069093DC06A093DD06B0930F
:1037A000DE068091D60681110FC0609134017091C0
:1037B000350180913601909137010E940C3920E04B
:1037C00030E041E65AE40EC0609134017091350159
:1037D00080913601909137010E940C3920E030E051
:1037E00041EE5AE40E9469386093E2067093E30662
:1037F0008093E4069093E5066091E2067091E306FB
:103800008091E4069091E5060E9447390E94DB38DA
:103810006093E106C090E206D090E306E090E406F3
:10382000F090E5068091E106682F70E080E090E07E
:103830000E940C399B01AC01C701B6010E94FC3704
:1038400020E030E040E057E40E94F0396093E20667
:103850007093E3068093E4069093E5066091E20698
:103860007091E3068091E4069091E50620E030E057
:1038700040E05FE30E94FD370E9447390E94DB3839
:103880007093E0066093DF0682E090E0A0E0B0E095
:103890008093D7069093D806A093D906B093DA0602
:1038A0008091D7069091D806A091D906B091DA06FA
:1038B000BA2FA92F982F88278093D7069093D806E0
:1038C000A093D906B093DA068091D7069091D806D6
:1038D000A091D906B091DA062091E106822B80935F
:1038E000D7069093D806A093D906B093DA068091B4
:1038F000D7069091D806A091D906B091DA063FE09C
:10390000880F991FAA1FBB1F3A95D1F78093D7063E
:103910009093D806A093D906B093DA064091D706C3
:103920005091D8066091D9067091DA068091DF0631
:103930009091E006A0E0B0E0842B952BA62BB72B4E
:103940008093D7069093D806A093D906B093DA0651
:103950008091D7069091D806A091D906B091DA0649
:1039600044E0880F991FAA1FBB1F4A95D1F7809387
:10397000D7069093D806A093D906B093DA06FF90A5
:10398000EF90DF90CF9008958091F90581115DC08F
:1039900085EF94E2A0E0B0E08093D1069093D20648
:1039A000A093D306B093D4060E9400178091D60648
:1039B000811121C082E990EDA5E9B3E08093D106A1
:1039C0009093D206A093D306B093D4060E9400171A
:1039D00083E590E8ADE4BAE28093D1069093D206F5
:1039E000A093D306B093D4060E94001784E198E315
:1039F000A9E2B0E020C082E990EDA5E6B1E08093B5
:103A0000D1069093D206A093D306B093D4060E9419
:103A1000001783E990ECACE4BAE28093D10690936E
:103A2000D206A093D306B093D4060E94001784E177
:103A300094ECA5E4B0E08093D1069093D206A093D5
:103A4000D306B093D4060E9400178091F90588230D
:103A500041F08091F905813021F08091F9058230A3
:103A600091F48091DB069091DC06A091DD06B09187
:103A7000DE068093D1069093D206A093D306B0932E
:103A8000D4060C94CA16089580913301803418F03E
:103A90008FE38093330180913301823018F481E009
:103AA000809333018091F90581116DC08091D60614
:103AB000811130C08091330190E0A0E0B0E08093AC
:103AC000D1069093D206A093D306B093D4068091EA
:103AD000D1069091D206A091D306B091D4063DE0D4
:103AE000880F991FAA1FBB1F3A95D1F78093D10663
:103AF0009093D206A093D306B093D4068091D106BA
:103B00009091D206A091D306B091D40682699861B3
:103B1000A06B2FC08091330190E0A0E0B0E08093D3
:103B2000D1069093D206A093D306B093D406809189
:103B3000D1069091D206A091D306B091D4062DE083
:103B4000880F991FAA1FBB1F2A95D1F78093D10612
:103B50009093D206A093D306B093D4068091D10659
:103B60009091D206A091D306B091D4068269986153
:103B7000A0658093D1069093D206A093D306B0930C
:103B8000D4060E9400178091F905813091F480914C
:103B9000D7069091D806A091D906B091DA06809305
:103BA000D1069093D206A093D306B093D4060E9478
:103BB00000178091F905882321F08091F905823062
:103BC00091F48091D7069091D806A091D906B09132
:103BD000DA068093D1069093D206A093D306B093D1
:103BE000D4060C94CA1608958091F905811107C175
:103BF0008091DB069091DC06A091DD06B091DE0697
:103C00008093D1069093D206A093D306B093D406A6
:103C10000E9400178091D60681113DC081E290E597
:103C2000AFE1B2E08093D1069093D206A093D30681
:103C3000B093D4060E94001783E590E8ADE4BAE2A1
:103C40008093D1069093D206A093D306B093D40666
:103C50000E94001785EF94E2A0E0B0E08093D106C7
:103C60009093D206A093D306B093D4060E94001777
:103C700084E198E3A9E2B0E08093D1069093D20664
:103C8000A093D306B093D4060E94001782E998E16E
:103C9000A0EBB0E042C081E190E5A7E5B0E0809301
:103CA000D1069093D206A093D306B093D4060E9477
:103CB000001783E990ECACE4BAE28093D1069093CC
:103CC000D206A093D306B093D4060E94001785EFC6
:103CD00094E2A0E0B0E08093D1069093D206A09346
:103CE000D306B093D4060E94001761E070E080E034
:103CF00090E00E94671984E194ECA5E4B0E0809321
:103D0000D1069093D206A093D306B093D4060E9416
:103D1000001782E990EDA5E5B0E08093D10690937D
:103D2000D206A093D306B093D4060E9400178FE06A
:103D300090E0AEE0B0E08093D1069093D206A093DD
:103D4000D306B093D4060E94001786E19EE0A7E058
:103D5000B5E08093D1069093D206A093D306B0939A
:103D6000D4060E94001762E370E080E090E00E94B9
:103D7000671989EE91E3A2E0B0E08093D1069093B9
:103D8000D206A093D306B093D4060E9400178AE30C
:103D900097E4A6E9B2E38093D1069093D206A0936C
:103DA000D306B093D4060E9400178BE390E0A0E006
:103DB000B0E08093D1069093D206A093D306B0933F
:103DC000D4060E9400178CE091E0A0E0B0E0809360
:103DD000D1069093D206A093D306B093D4060E9446
:103DE00000178DE090E0A0E0B0E08093D1069093C2
:103DF000D206A093D306B093D4060E9400178091F8
:103E0000F905813009F0C8C08091D606811105C03E
:103E100081E290EDAFE1B2E004C081E190EDA7E472
:103E2000B0E08093D1069093D206A093D306B093CE
:103E3000D4060E94001783ED90E8ACE4B6E38093CB
:103E4000D1069093D206A093D306B093D4060E94D5
:103E5000001780E995EEA7EDB9E18093D106909324
:103E6000D206A093D306B093D4060E94001785EF24
:103E700094E2A0E0B0E08093D1069093D206A093A4
:103E8000D306B093D4060E94001784E398EEA6EF01
:103E9000B1E88093D1069093D206A093D306B09355
:103EA000D4060E9400178091D606811105C082EFCA
:103EB00090EDA5E6B0E004C082EF90EDA5E3B0E0A0
:103EC0008093D1069093D206A093D306B093D406E4
:103ED0000E9400178FE090E0AEE0B0E08093D10642
:103EE0009093D206A093D306B093D4060E940017F5
:103EF00086E09EE0A7E0B5E08093D1069093D206DD
:103F0000A093D306B093D4060E94001789EE91E3E4
:103F1000A2E0B0E08093D1069093D206A093D3069E
:103F2000B093D4060E9400178AE297E4AEE7B2E0AD
:103F30008093D1069093D206A093D306B093D40673
:103F40000E9400178BE390E0A0E0B0E08093D106E0
:103F50009093D206A093D306B093D4060E94001784
:103F60008CE091E0A0E0B0E08093D1069093D2067F
:103F7000A093D306B093D4060E9400178DE993E076
:103F8000A0E0B0E08093D1069093D206A093D30630
:103F9000B093D4060E9400178091F905823009F091
:103FA000C8C08091D606811105C081E290EDAFE1D5
:103FB000B2E004C081E190EDA7E4B0E08093D106C7
:103FC0009093D206A093D306B093D4060E94001714
:103FD00083E990ECACE4BAE28093D1069093D206E8
:103FE000A093D306B093D4060E94001780E995EE03
:103FF000A7EDB9E18093D1069093D206A093D306A2
:10400000B093D4060E94001785EF94E2A0E0B0E0E0
:104010008093D1069093D206A093D306B093D40692
:104020000E94001784E390E1A8E7B0E88093D106EE
:104030009093D206A093D306B093D4060E940017A3
:104040008091D606811105C082EF90EDA5E8B0E021
:1040500004C082EF90EDA5E4B0E08093D106909388
:10406000D206A093D306B093D4060E9400178FE027
:1040700090E0AEE0B0E08093D1069093D206A0939A
:10408000D306B093D4060E94001786E09EE0A7E016
:10409000B5E08093D1069093D206A093D306B09357
:1040A000D4060E94001789EE91E3A2E0B0E080936D
:1040B000D1069093D206A093D306B093D4060E9463
:1040C00000178AE297E4A6E9B2E38093D1069093C1
:1040D000D206A093D306B093D4060E9400178BE3B8
:1040E00090E0A0E0B0E08093D1069093D206A09338
:1040F000D306B093D4060E9400178CE091E0A0E0B4
:10410000B0E08093D1069093D206A093D306B093EB
:10411000D4060E9400178DEB93E0A0E0B0E08093FE
:10412000D1069093D206A093D306B093D4060C94F4
:104130000017089581E090E09C01220F331F220FA9
:10414000331FF901E754F94F408151816281738136
:10415000F901E053FE4F40835183628373830196DC
:104160008630910549F71092B8061092B706089567
:1041700081E090E0FC01EE0FFF1FEE0FFF1FE75400
:10418000F94F4081518162817381FC01EE0FFF1F65
:10419000EE0FFF1FEC51FE4F408351836283738308
:1041A00001968630910531F71092B8061092B70645
:1041B00008958FEE96E00C94A517682F8FEE96E089
:1041C0000C94A517CF93DF931F92CDB7DEB77894E9
:1041D00084B5826084BD84B5816084BD85B582600C
:1041E00085BD85B5816085BD80916E0081608093BD
:1041F0006E00109281008091810082608093810026
:104200008091810081608093810080918000816035
:10421000809380008091B10084608093B100809190
:10422000B00081608093B00080917A0084608093B8
:104230007A0080917A00826080937A0080917A007F
:10424000816080937A0080917A00806880937A0000
:104250001092C10060E082E00E942B1960E083E0D0
:104260000E942B1960E085E00E942B1961E086E036
:104270000E942B1961E087E00E942B1960E088E022
:104280000E942B1961E089E00E942B1961E08AE00D
:104290000E942B1961E08BE00E942B1961E08CE0F9
:1042A0000E942B1960E08DE00E942B1961E084E0F0
:1042B0000E942B1961E08EE00E942B1961E08FE0D3
:1042C0000E942B1961E080E10E942B1961E081E1DD
:1042D0000E942B1961E082E10E942B1961E083E1C9
:1042E0000E942B1960E087E00E94FB1860E08BE0E1
:1042F0000E94FB1860E08CE00E94FB1860E08AE0FE
:104300000E94FB1860E084E00E94FB1860E08EE0F1
:104310000E94FB1860E08FE00E94FB1860E080E1E3
:104320000E94FB1860E081E10E94FB1886E98093FF
:104330003101109230018FE3809333011092F9051F
:1043400080E496E8A4EAB8E08093380190933901BC
:10435000A0933A01B0933B018093340190933501CF
:10436000A0933601B09337010E94891A0E94B31AB4
:104370000E94F41D0E94C41C8091000190910101D3
:1043800061E00E94FB18809100019091010160E0C2
:104390000E94FB1862E370E080E090E00E946719E1
:1043A0008091EE059091EF058536910518F081E03A
:1043B00080932F0180EC92E9ADEEB9E18093380152
:1043C00090933901A0933A01B0933B01809334015B
:1043D00090933501A0933601B09337010E945E1A85
:1043E0000E94B31A0E94F41D0E94C41C0E94C414AF
:1043F000E091FF06F091000782E08083E091FB06E8
:10440000F091FC061082E091FD06F091FE0680E13D
:10441000808310920707E0910307F091040786E07C
:104420008083E0910107F0910207808180618083A1
:10443000E0910107F0910207808188608083E0911C
:104440000107F0910207808180688083E091010775
:10445000F091020780818F7D80838FEE96E00E942D
:10446000EC1780ED80939F058FE28093A00510925A
:10447000A10587E18093A2058AE08093A3051092AD
:10448000A4051092A5051092A60580E48093A705C7
:104490001092A8051092A90593E49093BA0581E5BE
:1044A0008093BB059093BC058093BD059093BE059A
:1044B0008093BF0580E28093C0058093C10589E4A5
:1044C0008093CA058EE48093CB0586E48093CC0567
:1044D0008FE48093CD051092CE058BE08093CF05BD
:1044E0001092D0051092D1058093D20589E0809377
:1044F0001101109287061092860600EE11E0A0EFDF
:10450000EA2EF12CDD24D394109356050093550523
:10451000F0925405E092530510922E018FEE96E032
:104520000E947317181619060CF058C0A090860642
:10453000B09087068FEE96E00E945217F501E65084
:10454000FA4F80838091860690918706019690931A
:104550008706809386068091FA05803D29F0809138
:10456000FA05803E09F098C58091FA05803D09F56D
:1045700080918606909187060697DCF08091FB0576
:10458000813009F090C58091FC0581118CC5809126
:10459000FD05813109F087C58091FE05811183C534
:1045A0008091FF058B3009F07EC5109211011092A9
:1045B000F9058091FA05803E89F4809186069091F4
:1045C000870603975CF08091FB05833009F072C584
:1045D0008091FC0581116EC5D0921101809111016D
:1045E000893009F491CF02E513E056E5252E312CF0
:1045F00065E0462E512C70E8672E75E2772EE7E0D5
:10460000EE2EF12C812C912C540183948091110178
:104610008111EBC08FEE96E00E94731718161906F1
:1046200004F5C0908606D09087068FEE96E00E9433
:104630005217F601E650FA4F8083809186069091DA
:10464000870601969093870680938606809186065A
:10465000909187068338910524F010928706109276
:1046600086068091FA05803D21F01092870610920F
:1046700086068091FA05803D09F0B7C080918606D4
:104680009091870605970CF4B0C020918606309172
:1046900087068091FB0590E00496821793070CF043
:1046A000A4C08091FD05813109F04BC080935E0567
:1046B00010925F0581E9809360058093610591E325
:1046C0009093620584E48093630586E58093640596
:1046D0008DE2809365058DE48093660585E4809383
:1046E000670587E48093680581E48093690520E28B
:1046F00020936A0522E520936B0523E320936C0544
:104700002EE220936D0590936E0599E390936F05CB
:104710008093700524E130E030935B0520935A05C7
:104720000E949613709256056092550580EF90E0B6
:10473000909354058093530581E08093F605809310
:10474000F0058091FD058231E1F485E080935E05FE
:1047500010925F0582E98093600583E18093610593
:1047600089E08093620580E18093630581E0809316
:10477000640528E030E030935B0520935A050E94E1
:1047800096138091FD05843109F49BC48091FD0549
:10479000803109F452C58091FD05803109F453C57B
:1047A0008091FD05863151F48091020190910301C1
:1047B00060E00E94FB1881E08093F5058091FD0583
:1047C000873109F446C58091FD05893109F476C524
:1047D0008091FD058A3109F4B2C51092FA05109254
:1047E000FB05109287061092860680911101813098
:1047F00009F086C08FEE96E00E947317181619060E
:1048000004F5C0908606D09087068FEE96E00E9451
:104810005217F601E650FA4F8083809186069091F8
:104820008706019690938706809386068091860678
:10483000909187068338910524F010928706109294
:1048400086068091FA05803E21F01092870610922C
:1048500086068091FA05803E09F052C020918606B6
:10486000309187068091FB0590E02817390709F001
:1048700047C0109282068091FA05803E29F480910B
:10488000FB05833009F4ECC68091FA05803E09F4FB
:10489000EDC68091FA05803E09F4F8C68091FA05CC
:1048A000803E09F403C78091FA05803E09F40EC7E3
:1048B0008091FA05803E09F41DC78091FA05803E7B
:1048C00009F428C78091FA05803E09F42EC780912B
:1048D000FA05803E09F42FC78091FA05803E09F45D
:1048E00035C78091FA05803E09F43BC71092FA055E
:1048F0001092FB051092FC05109287061092860616
:104900008091F905811157C28091F805882309F437
:1049100045C020910F013091100180910D019091BF
:104920000E018217930784F480910F01909110017A
:1049300020910D0130910E01821B930B6CE070E011
:104940000E945D3A6093F70520910F0130911001AC
:1049500080910D0190910E012817390794F48091F0
:104960000F019091100120910D0130910E018E5A8E
:104970009C4F821B930B6CE070E00E945D3A609349
:10498000F70520910F013091100180910D01909158
:104990000E012817390711F41092F7058091F605DA
:1049A000882309F4A0C08091F605813029F4809114
:1049B000F50581110E9453158091F605823049F466
:1049C0008091F3059091F405059718F483E08093A6
:1049D000F6058091F6058330A9F48091F5058230C3
:1049E00088F08091110181110C9431328DEF90E0AB
:1049F0009093F2058093F10584E08093F60583E0BF
:104A00008093F0058091F605843049F48091F1059A
:104A10009091F20502971CF485E08093F605809151
:104A2000F605863031F487E08093F60585E08093C3
:104A3000F0058091F605873009F045C08091EE05BC
:104A40009091EF05813C924110F00E94C414809136
:104A5000F70581111AC080910D0190910E01CC973C
:104A600090930E0180930D0180910D0190910E01A4
:104A70001816190654F080910D0190910E018E5A6E
:104A80009C4F90930E0180930D018091F7058F3A12
:104A9000D0F080910F0190911001CC97909310016C
:104AA00080930F0180910F01909110011816190643
:104AB00054F080910F01909110018E5A9C4F909369
:104AC000100180930F018091F605873031F49091A9
:104AD000F505943011F40C9435328091F605893047
:104AE00011F40E94C4148091ED058630C0F5209128
:104AF0000B0130910C018091090190910A018217FC
:104B0000930794F48091090190910A0120910B017F
:104B100030910C01845D9E4F821B930B8B3F91055E
:104B20001CF081E08093EC052091090130910A018D
:104B300080910B0190910C018217930784F480916E
:104B4000090190910A0120910B0130910C01821B07
:104B5000930B8B3F91051CF081E08093EC058091D5
:104B6000EC05882309F427C10E94630F8091ED05AD
:104B7000863070F48091F005823050F48091E10528
:104B8000853531F48091E0058D3211F40C943C327E
:104B90008091ED05811112C08091EC05882371F0A0
:104BA0008091F005823050F48091E3058A3A31F427
:104BB0008091E2058A3A11F40C94C0328091ED059F
:104BC000813071F48091EC05882351F08091E305E8
:104BD0008A3A31F48091E2058A3A11F40C94D63283
:104BE0008091ED05823009F082C08091EC05882328
:104BF00009F47DC08091CB0183FD02C00C94F93291
:104C00008091CB0186FD02C00C94F9328091CB01DA
:104C1000880F8093CB018091CB018E7F8093CB0155
:104C20008091DF0580FD02C00C940D338091CB0193
:104C300080FD02C00C940D33209146013091470154
:104C40008091CD013091CC0190E0AC01440F551F13
:104C5000FA01E80FF91FE30FF11DEC58FE4F8081B8
:104C600090E0A0E0B0E0B501A40104C0440F551FDE
:104C7000661F771F2A95D2F74095509560957095DD
:104C800084239523A623B72380838091CD018F5F52
:104C90008093CD018091CC01811106C08091CD011E
:104CA0008C3110F00C9451338091CC01813011F48F
:104CB0000C9437338091CC01813011F40C943D3346
:104CC000809146019091470197FF09C0F0924701FA
:104CD000E09246018091CC018F5F8093CC0180915E
:104CE000CC01823011F40C944B331092F605809174
:104CF000ED05833071F48091EC0581110C94A133A2
:104D000008C082E390E090935B0580935A050E946F
:104D100096138091ED05843029F48091EC05811182
:104D20000C94AE358091ED05853081F48091EC05D1
:104D300081110C94BF350AC086E08093ED05109276
:104D4000570584E1809358051092EC058091ED059C
:104D5000863089F58091EC05882369F180915705AB
:104D60008F5F8093570580915705823030F0809196
:104D70005705893110F40C947B368091570589349E
:104D800011F40C94CE3580915805843111F40C94B3
:104D9000F33580915805843111F40C94FA358091E3
:104DA0005705893411F40C940136809157058036EB
:104DB00010F00C946A36809185068823D9F1809191
:104DC000F905811110C08091FE019091FF01893594
:104DD0009B4148F01092FF011092FE0181E0809308
:104DE000F9050E9442158091F905813081F4809186
:104DF000FE019091FF01813C924148F01092FF0129
:104E00001092FE0182E08093F9050E944215809184
:104E1000F905823079F48091FE019091FF01893B80
:104E20009B4040F01092FF011092FE011092F90594
:104E30000E9442158091F905813009F0BDC0809132
:104E4000FD01813009F0B2C070925605609255059F
:104E500080EC92E190935405809353051092FF01EA
:104E60001092FE01109285061092FD018091FC01C6
:104E7000823461F480E09BE490935605809355055D
:104E800080EE91E090935405809353058091FC014E
:104E9000813411F40C9447378091FC01823411F471
:104EA0000C94473780EE90E00E94DD2085E290E090
:104EB0000E94DD208AE190E00E94DD206091FC01EB
:104EC0008FEE96E00E94A51789E090E0909384060B
:104ED00080938306809183069091840602970CF458
:104EE00057C0E0918306F0918406EE0FFF1FEE0F8E
:104EF000FF1FE053FE4F80819181A281B3816B2F10
:104F00007727882799270E94D920E0918306F0917E
:104F10008406EE0FFF1FEE0FFF1FE053FE4F808150
:104F20009181A281B3816A2F70E080E090E00E94BD
:104F3000D920E0918306F0918406EE0FFF1FEE0F5B
:104F4000FF1FE053FE4F80819181A281B381692FC1
:104F500070E080E090E00E94D920E0918306F0911B
:104F60008406EE0FFF1FEE0FFF1FE053FE4F808100
:104F70009181A281B381BC01CD0177278827992730
:104F80000E94D920809183069091840601979ECF3C
:104F90008091D4019091D501A091D601B091D70113
:104FA0006B2F7727882799270E94D92080910701A6
:104FB000853011F40E94C414D090F90542E0D41257
:104FC00064C08091FD01813009F059C0709256058E
:104FD0006092550580EC92E19093540580935305BF
:104FE0001092FD01109285068091CF01833059F512
:104FF00080EE90E00E94DD208CE790E00E94DD20B2
:1050000080E290E00E94DD20809106018E5F809317
:10501000060180910601811102C0D09206018091A3
:10502000CE01813029F480910601816080930601D0
:10503000609106018FEE96E00E94A517809106010F
:105040008E7F809306018091CF01833011F40C9400
:1050500063378091CF01853011F40C9463378091D0
:10506000CF01873011F40C9463378091CF018730E2
:1050700031F48091CE01813011F40C94C9378091C4
:105080000701853011F40E94C4141092EC051092AF
:10509000F8050E940E18BACA10928706109286066A
:1050A0001092FA0561CA1092870610928606109235
:1050B000FA057FCA10928706109286061092FA05AA
:1050C0008DCA8091FE05813C09F0A5C0109238017F
:1050D0001092390110923A0110923B01809104061E
:1050E00090E0A0E0B0E08093380190933901A09364
:1050F0003A01B0933B018091380190913901A09120
:105100003A01B0913B01BA2FA92F982F882780939D
:10511000380190933901A0933A01B0933B0120915B
:1051200003068091380190913901A0913A01B09124
:105130003B01820F911DA11DB11D809338019093F9
:105140003901A0933A01B0933B01809138019091CD
:105150003901A0913A01B0913B01BA2FA92F982FA4
:1051600088278093380190933901A0933A01B09336
:105170003B01209102068091380190913901A09164
:105180003A01B0913B01820F911DA11DB11D809389
:10519000380190933901A0933A01B0933B0180917B
:1051A000380190913901A0913A01B0913B01BA2F99
:1051B000A92F982F88278093380190933901A093C5
:1051C0003A01B0933B012091010680913801909102
:1051D0003901A0913A01B0913B01820F911DA11DAF
:1051E000B11D8093380190933901A0933A01B09397
:1051F0003B018091380190913901A0913A01B09121
:105200003B018093340190933501A0933601B09314
:1052100037010E94421582E080935E0510925F057F
:1052200084E98093600586E08093610550925B0578
:1052300040925A050E949613A9CA8091FB058230BC
:1052400009F0A9CAC4C18091FB05813009F0A8CA40
:10525000D3C180917E06811109C0809115068334E7
:1052600029F480911606813509F4F4C18091FE0578
:10527000809308018091FF058093590581E090E0BB
:10528000FC01EF5FF94F2081FC01E65BFE4F2083BC
:1052900001968A329105A1F73092100120920F01F8
:1052A00081E090E090930E0180930D010E94DF0F4A
:1052B0000E94581082E08093F50585CA1092EF0590
:1052C0001092EE05809158058F5F8093580580916C
:1052D0005805853110F01092580588E090E0209133
:1052E0000F0130911001FC01E650FA4F4081F901A5
:1052F000E050FE4F408320910F01309110012F5F4D
:105300003F4F3093100120930F0120910F013091F6
:1053100010012335334034F021E030E030931001A8
:1053200020930F01019684319105C9F68091F5050E
:10533000823009F04DCA83E08093F50549CA809117
:105340000F019091100101979093100180930F012C
:1053500080910F0190911001892B21F4109310017D
:1053600000930F0180910F0190911001019790938C
:10537000100180930F0180910F0190911001892BF2
:1053800021F41093100100930F0180910F0190916F
:10539000100101979093100180930F0180910F01EC
:1053A00090911001892B21F41093100100930F01AB
:1053B000E0910F01F0911001E050FE4F85E58083F0
:1053C00080910F01909110010196909310018093AC
:1053D0000F0180910F01909110018335934034F0BB
:1053E00081E090E09093100180930F01E0910F0114
:1053F000F0911001E050FE4F85E5808380910F0110
:105400009091100101969093100180930F0180916B
:105410000F01909110018335934034F021E030E08A
:105420003093100120930F01E0910F01F0911001D2
:10543000E050FE4F85E5808380910F01909110012F
:1054400001969093100180930F0180910F0190912C
:1054500010018335934034F081E090E09093100187
:1054600080930F01E0910F01F0911001E050FE4F89
:1054700085E5808380910F019091100101969093B2
:10548000100180930F0180910F01909110018335DD
:10549000934034F021E030E03093100120930F016D
:1054A000E0910F01F0911001E050FE4F88EC8083F5
:1054B00080910F01909110010196909310018093BB
:1054C0000F0180910F01909110018335934034F0CA
:1054D00081E090E09093100180930F01E0910F0123
:1054E000F0911001E050FE4F8AE7808380910F0118
:1054F0009091100101969093100180930F0180917B
:105500000F01909110018335934034F021E030E099
:105510003093100120930F01E0910F01F0911001E1
:10552000E050FE4F108280910F0190911001019682
:105530009093100180930F0180910F0190911001C1
:105540008335934034F081E090E090931001809394
:105550000F01E0910F01F0911001E050FE4F108219
:1055600080910F019091100101969093100180930A
:105570000F0180910F01909110018335934034F019
:1055800021E030E03093100120930F01E0910F01F2
:10559000F0911001E050FE4F108280910F01909128
:1055A000100101969093100180930F0180910F01DB
:1055B000909110018335934034F081E090E0909316
:1055C000100180930F0184E08093F50506C9909146
:1055D000FE0590937D0680935E0510925F0580E93D
:1055E0008093600586E08093610550925B05409250
:1055F0005A050E949613CFC888E080935E051092EA
:105600005F0580E98093600587E480936105809160
:105610004501809362058091F0058093630585E1E3
:10562000809364058CEF809365058091F7059CE07D
:10563000899F802D1124809366058091320180938B
:1056400067058BE090E090935B0580935A050E947C
:105650009613A6C881E080937E060E94EB1306CEC7
:105660008091FC05882309F487C00EC98091FB0551
:10567000853209F00EC98091FC058A3109F009C90B
:105680008091F905813009F004C9C0C08091FB0503
:105690008C3709F003C98091FC05803209F0FEC8FF
:1056A0009091F905923009F0F9C8C3C18091FB05CA
:1056B0008F3009F0F8C88091FC05813109F0F3C8FA
:1056C0008091F905882309F461C2EDC88091FB053A
:1056D0008C3009F0EDC88091FC05843009F0E8C8F1
:1056E0008091FD058111E4C880913C01882309F473
:1056F000CAC2DEC88091FB058C3009F0DEC88091FB
:10570000FC05843009F0D9C88091FD05813009F08D
:10571000D4C8F3C38091FB05833009F0D3C88091CE
:10572000FC05813009F0CEC8FEC38091FC058230B3
:1057300009F0CDC854C48091FC05833009F0CCC871
:1057400080913C01882309F49EC4C6C88091FB0562
:10575000833009F0C6C88091FC05833109F0C1C8C7
:10576000FBC48091FB058C3209F0C0C88091FC0518
:10577000803109F0BBC839C680EE90E00E94DD2080
:1057800081E190E00E94DD2080E090E00E94DD2039
:1057900081E090E00E94DD2084E490E00E94DD2022
:1057A00086E590E00E94DD208DE490E00E94DD20FF
:1057B00085E490E00E94DD2087E490E00E94DD20F7
:1057C00081E490E00E94DD2080E290E00E94DD20F4
:1057D00088E490E00E94DD2082E590E00E94DD20D8
:1057E00083E390E00E94DD208EE290E00E94DD20C5
:1057F00081E390E00E94DD2089E390E00E94DD20BB
:1058000081E08093F6058093F0053EC880934401C3
:105810001092EF051092EE051092FF011092FE011A
:105820001092850680910C068F3F89F480910D06B9
:10583000873569F480910E06873D49F490910F06F3
:105840009D3529F480911006853F09F4A9C0809107
:105850000C06853589F480910D068D3F69F48091A1
:105860000E068D3749F490910F06973F29F48091E9
:1058700010068F3509F4B7C08091ED058130A9F489
:1058800092E09093ED0521E030E0309310012093F9
:105890000F018093810630930E0120930D018093B8
:1058A0004301F0924201E092410180913F019091C9
:1058B000400149970CF048C081E090E09093840645
:1058C0008093830661E2809183069091840682979B
:1058D0002CF520918106409183065091840630E09A
:1058E00021503109629FC001639F900D1124840FE4
:1058F000951FE0918306F0918406E350FA4F2081D2
:10590000FC01E050FE4F2083809183069091840635
:1059100001969093840680938306D5CF809181066B
:105920008F5F80938106809181068A3118F081E033
:105930008093810680913F01909140010196909360
:10594000400180933F0114C080EE90E00E94DD2072
:1059500085E090E00E94DD208FE790E00E94DD204E
:105960008AE190E00E94DD2085E090E00E94DD2049
:1059700080913D0190913E01019690933E0180936C
:105980003D0180913D0190913E0107972CF080915F
:10599000ED05823009F44AC0109244010C94492468
:1059A00080910B06807F80930B0680910B068D60A3
:1059B00080930B06809111068F7080931106809161
:1059C000110680678093110690930C068FE78093F1
:1059D0000D0687E780930E068DEF80930F0685E70F
:1059E0008093100634CF80910B06807F80930B0646
:1059F00080910B06876080930B06809111068F7053
:105A00008093110680911106806D8093110690930A
:105A10000C0685ED80930D068DED80930E0687E5CF
:105A200080930F068FED8093100626CF0E945315AA
:105A3000B3CF1092EF051092EE051092FF01109275
:105A4000FE01109285068091ED05813001F590935D
:105A5000ED0521E030E03093100120930F01809399
:105A6000810630930E0120930D0180934301F09243
:105A70004201E0924101109205011092040110923E
:105A80003E0110923D011092400110923F01809121
:105A90003F019091400107970CF049C081E090E0F0
:105AA000909384068093830668E7809183069091A3
:105AB0008406893791052CF5209181064091830653
:105AC0005091840630E021503109629FC001639FEC
:105AD000900D1124840F951FE0918306F0918406A8
