:100000000C94E2010C9480180C9459180C940A0278
:100010000C940A020C940A020C940A020C940A0230
:100020000C940A020C940A020C940A020C940A0220
:100030000C940A020C940A020C940A020C940A0210
:100040000C940F180C940A020C940F170C94E916D8
:100050000C940A020C940A020C940A020C940A02F0
:100060000C940A020C940A0200010102010202032C
:100070000102020302030304010202030203030458
:100080000203030403040405010202030203030440
:100090000203030403040405020303040304040528
:1000A0000304040504050506010202030203030418
:1000B0000203030403040405020303040304040508
:1000C00003040405040505060203030403040405F0
:1000D00003040405040505060304040504050506D8
:1000E00004050506050606070102020302030304D0
:1000F00002030304030404050203030403040405C8
:1001000003040405040505060203030403040405AF
:100110000304040504050506030404050405050697
:100120000405050605060607020303040304040587
:100130000304040504050506030404050405050677
:10014000040505060506060703040405040505065F
:100150000405050605060607040505060506060747
:100160000506060706070708000021104220633035
:100170008440A550C660E770088129914AA16BB1FF
:100180008CC1ADD1CEE1EFF13112100273325222A7
:10019000B5529442F772D662399318837BB35AA34F
:1001A000BDD39CC3FFF3DEE3622443342004011477
:1001B000E664C774A44485546AA54BB5288509959F
:1001C000EEE5CFF5ACC58DD5533672261116300647
:1001D000D776F6669556B4465BB77AA719973887EF
:1001E000DFF7FEE79DD7BCC7C448E5588668A77807
:1001F0004008611802282338CCC9EDD98EE9AFF93F
:10020000488969990AA92BB9F55AD44AB77A966AE6
:10021000711A500A333A122AFDDBDCCBBFFB9EEB8E
:10022000799B588B3BBB1AABA66C877CE44CC55CB6
:10023000222C033C600C411CAEED8FFDECCDCDDDDE
:100240002AAD0BBD688D499D977EB66ED55EF44E86
:10025000133E322E511E700E9FFFBEEFDDDFFCCF2E
:100260001BBF3AAF599F788F8891A981CAB1EBA182
:100270000CD12DC14EF16FE18010A100C230E320FE
:100280000450254046706760B9839893FBA3DAB3A6
:100290003DC31CD37FE35EF3B1029012F322D2324E
:1002A0003542145277625672EAB5CBA5A895898576
:1002B0006EF54FE52CD50DC5E234C324A01481049E
:1002C0006674476424540544DBA7FAB79987B89746
:1002D0005FE77EF71DC73CD7D326F2369106B016EE
:1002E00057667676154634564CD96DC90EF92FE906
:1002F000C899E9898AB9ABA944586548067827683E
:10030000C018E1088238A3287DCB5CDB3FEB1EFBE5
:10031000F98BD89BBBAB9ABB754A545A376A167A8D
:10032000F10AD01AB32A923A2EFD0FED6CDD4DCDB5
:10033000AABD8BADE89DC98D267C076C645C454CDD
:10034000A23C832CE01CC10C1FEF3EFF5DCF7CDF85
:100350009BAFBABFD98FF89F176E367E554E745E2D
:10036000932EB23ED10EF01E0000000024002700A4
:100370002A0000000000250028002B0000000000DB
:1003800023002600290004040404040404040202D7
:100390000202020203030303030301020408102004
:1003A000408001020408102001020408102000000F
:1003B0000008000201000003040700000000000024
:1003C0000000D93611241FBECFEFD8E0DEBFCDBF6D
:1003D00011E0A0E0B1E0E8E3F3E702C005900D9280
:1003E000A233B107D9F728E0A2E3B1E001C01D9222
:1003F000AE31B207E1F711E0C2EED1E004C02197BF
:10040000FE010E948F39C13ED107C9F70E94F91F32
:100410000C949A390C9400007091A301E091A3010F
:100420006091A301E1FB442740F950E0872F8170E0
:1004300090E08427952762FB222720F930E082177D
:10044000930701F140914A0150914B01E091A501C0
:100450008091A401F0E09F01220F331FE20FF31FF0
:10046000E80FF11DE25BFE4F208181E090E0A0E00B
:10047000B0E004C0880F991FAA1FBB1F4A95D2F78E
:10048000822B2AC020914A0130914B01E091A501B5
:100490008091A401F0E0AF01440F551FE40FF51F58
:1004A000E80FF11DE25BFE4F8081482F50E060E0D5
:1004B00070E081E090E0A0E0B0E004C0880F991FF8
:1004C000AA1FBB1F2A95D2F780959095A095B0954D
:1004D00084239523A623B723808380914A0190919A
:1004E0004B01019690934B0180934A012091A30107
:1004F0008091A30190E095958795959587958227A2
:1005000080FF20C040914A0150914B01E091A5012C
:100510008091A401F0E09F01220F331FE20FF31F2F
:10052000E80FF11DE25BFE4F208181E090E0A0E04A
:10053000B0E004C0880F991FAA1FBB1F4A95D2F7CD
:10054000822B2AC020914A0130914B01E091A501F4
:100550008091A401F0E0AF01440F551FE40FF51F97
:10056000E80FF11DE25BFE4F8081482F50E060E014
:1005700070E081E090E0A0E0B0E004C0880F991F37
:10058000AA1FBB1F2A95D2F780959095A095B0958C
:1005900084239523A623B723808380914A019091D9
:1005A0004B01019690934B0180934A0108950F935C
:1005B0001F9380911A0290911B02019690931B0247
:1005C00080931A028091A2069091A30601969093BF
:1005D000A3068093A2068091C205811109C0809173
:1005E000A2069091A30601969093A3068093A2067B
:1005F0008091B7059091B80501969093B8058093C6
:10060000B7058091C20581115AC0809180069091F2
:1006100081060196909381068093800680918006E2
:10062000909181068938934144F088E893E1909352
:1006300081068093800610927F0680911A01909126
:100640001B010E944017892B21F080917E06806853
:1006500003C080917E068F7780937E0680917D0611
:100660008F5F80937D0680917D06883009F5E0914B
:100670000C01F0910D0180917E06E35EFD4F8083B9
:1006800080910C0190910D01019790930D01809341
:100690000C0180910C0190910D01892B31F48CE2B9
:1006A00091E090930D0180930C0110927D0607C09C
:1006B00080917E0690E09595879580937E06809147
:1006C000C205813009F0C2C48091820690918306F0
:1006D000019690938306809382068091980690916C
:1006E0009906A0919A06B0919B06880F991FAA1FA0
:1006F000BB1F8093980690939906A0939A06B09397
:100700009B068091940690919506A0919606B091D3
:100710009706B7FD0AC08091980690919906A0911E
:100720009A06B0919B068E7F09C0809198069091A1
:100730009906A0919A06B0919B06816080939806D5
:1007400090939906A0939A06B0939B068091940685
:1007500090919506A0919606B0919706880F991FE3
:10076000AA1FBB1F8093940690939506A0939606AC
:10077000B09397068091900690919106A091920671
:10078000B0919306B7FD0AC08091940690919506AA
:10079000A0919606B09197068E7F09C0809194062D
:1007A00090919506A0919606B091970681608093EE
:1007B000940690939506A0939606B0939706809121
:1007C000900690919106A0919206B0919306880FA1
:1007D000991FAA1FBB1F8093900690939106A09328
:1007E0009206B093930680918C0690918D06A0910D
:1007F0008E06B0918F06B7FD0AC080919006909149
:100800009106A0919206B09193068E7F09C08091C7
:10081000900690919106A0919206B0919306816006
:100820008093900690939106A0939206B0939306BE
:1008300080918C0690918D06A0918E06B0918F06C6
:10084000880F991FAA1FBB1F80938C0690938D065B
:10085000A0938E06B0938F068091880690918906AA
:10086000A0918A06B0918B06B7FD0AC080918C06D4
:1008700090918D06A0918E06B0918F068E7F09C053
:1008800080918C0690918D06A0918E06B0918F0676
:10089000816080938C0690938D06A0938E06B09312
:1008A0008F068091880690918906A0918A06B09162
:1008B0008B06880F991FAA1FBB1F809388069093F1
:1008C0008906A0938A06B0938B0680911A019091B5
:1008D0001B010E944017892B51F48091880690914A
:1008E0008906A0918A06B0918B06816009C080912B
:1008F000880690918906A0918A06B0918B068E7F1A
:100900008093880690938906A0938A06B0938B06FD
:1009100080918C0690918D06A0918E06B0918F06E5
:10092000AF70BB27853D974FA740B10579F4809103
:10093000880690918906A0918A06B0918B06807FE7
:10094000803D9F4DA745BD4D09F420C680918C0682
:1009500090918D06A0918E06B0918F06AF70BB2747
:100960008F379D45AD40B105D1F4809188069091B7
:100970008906A0918A06B0918B06807F80379547C3
:10098000AD4FB74761F480917C06811108C681E4C0
:100990008093180210927C0681E08093EB013091E5
:1009A0007C06313009F0FAC080918206909183066E
:1009B0008F379D400CF4F2C080918206909183069F
:1009C00082389D400CF0EAC080918806909189069B
:1009D000A0918A06B0918B068B2F9927AA27BB2757
:1009E000FC0127E7E227E859FF4F14918091880620
:1009F00090918906A0918A06B0918B06EA2FF0E0CB
:100A00008DEFE827E859FF4F249180918806909157
:100A10008906A0918A06B0918B06892F9A2FAB2F59
:100A2000BB27A7FDBA95FC01FF2795E7E927E85901
:100A3000FF4F8491409188065091890660918A0603
:100A400070918B06FA01FF2790E7E927E859FF4FDD
:100A50004491E22FF0E0E10FF11DE80FF11DE40FEA
:100A6000F11D3A973CF482E48093180210927C06C0
:100A70003093EB018091880690918906A0918A06B7
:100A8000B0918B06807F803D9F4DA745BD4D09F4F9
:100A90009DC58091880690918906A0918A06B091A3
:100AA0008B06807F907FA07FB07F803D904DA045DA
:100AB000B04D09F48BC58091880690918906A0916C
:100AC0008A06B0918B0688279F70AF70BF70811522
:100AD0009F40A740BD4009F479C580918806909158
:100AE0008906A0918A06B0918B068B2F9927AA2799
:100AF000BB27FC012DEDE227E859FF4F949140916F
:100B000088065091890660918A0670918B06E62FBF
:100B1000F0E087E5E827E859FF4F84914091880687
:100B20005091890660918A0670918B06452F562F49
:100B3000672F772767FD7A95FA01FF272FEDE227C8
:100B4000E859FF4F44910091880610918906209141
:100B50008A0630918B06F801FF2720EDE227E8593D
:100B6000FF4F0491E82FF0E0E90FF11DE40FF11DB4
:100B7000E00FF11D3A9754F410927B0610927A061A
:100B800080E28093180281E08093EB0180918206DD
:100B90009091830680389D4009F403C58091EB0154
:100BA000813021F4109283061092820680917C0697
:100BB000813009F05DC180918206909183068E3369
:100BC000924094F180918206909183068134924004
:100BD0005CF580918C0690918D06A0918E06B09167
:100BE0008F0688279C7FA370BB2781159C44A10595
:100BF000B10541F480918206909183068034924041
:100C000009F401C580918C0690918D06A0918E0605
:100C1000B0918F068827907FAF70BB2781159043D6
:100C2000A140B10509F4DDC480918206909183064C
:100C30008E37944094F1809182069091830681389A
:100C400094405CF580918C0690918D06A0918E0663
:100C5000B0918F0688279C7FA370BB2781159C4588
:100C6000A105B10541F480918206909183068038F8
:100C7000944009F4E4C480918C0690918D06A09173
:100C80008E06B0918F068827907FAF70BB278115A5
:100C90009047A140B10509F4C0C4809182069091AB
:100CA00083068E3B964094F1809182069091830654
:100CB000813C96405CF580918C0690918D06A091C8
:100CC0008E06B0918F0688279C7FA370BB27811565
:100CD0009C45A105B10541F480918206909183065F
:100CE000803C964009F4C7C480918C0690918D0693
:100CF000A0918E06B0918F068827907FAF70BB279A
:100D000081159047A140B10509F4A3C480918206E2
:100D1000909183068E3F984094F180918206909145
:100D20008306813099405CF580918C0690918D0608
:100D3000A0918E06B0918F0688279C7FA370BB2759
:100D400081159445A105B10541F4809182069091E9
:100D500083068115994009F4AAC480918C0690916C
:100D60008D06A0918E06B0918F068827907FAF7078
:100D7000BB2781159045A140B10509F486C4809137
:100D80008206909183068E339B4094F18091820677
:100D90009091830681349B405CF580918C06909104
:100DA0008D06A0918E06B0918F0688279C7FA37038
:100DB000BB2781159444A105B10541F480918206B9
:100DC0009091830680349B4009F48DC480918C06F9
:100DD00090918D06A0918E06B0918F068827907F06
:100DE000AF70BB2781159041A140B10509F469C4DA
:100DF00080918206909183068034924029F481E0AC
:100E00008093EB0180931802809182069091830673
:100E10008038944031F481E08093EB0182E080934C
:100E200018028091820690918306803C964031F4AE
:100E300081E08093EB0183E0809318028091820629
:100E4000909183068115994031F481E08093EB0104
:100E500084E080931802809182069091830680340A
:100E60009B4031F481E08093EB0185E08093180290
:100E70008091EB01813009F053C082E08093EB0157
:100E80008091980690919906A0919A06B0919B0640
:100E90008093100290931102A0931202B093130258
:100EA0008091940690919506A0919606B091970630
:100EB00080930C0290930D02A0930E02B0930F0248
:100EC0008091900690919106A0919206B091930620
:100ED0008093080290930902A0930A02B0930B0238
:100EE00080918C0690918D06A0918E06B0918F0610
:100EF0008093040290930502A0930602B093070228
:100F00008091880690918906A0918A06B0918B06FF
:100F10008093000290930102A0930202B093030217
:100F20008091EB018230E1F58091820690918306F9
:100F30008038910519F483E08093EB01809182065B
:100F400090918306803C924019F483E08093EB01FA
:100F500080918206909183068115954019F483E073
:100F60008093EB01809182069091830680349740B4
:100F700019F483E08093EB018091820690918306BF
:100F80008038994019F483E08093EB0180918206C8
:100F900090918306803C9B4019F483E08093EB01A1
:100FA0008091EB01833009F045C01092EB018091F4
:100FB000940690919506A0919606B091970680931D
:100FC000FC019093FD01A093FE01B093FF0180917D
:100FD000900690919106A0919206B091930680930D
:100FE000F8019093F901A093FA01B093FB0180916D
:100FF0008C0690918D06A0918E06B0918F068093FD
:10100000F4019093F501A093F601B093F70180915C
:10101000880690918906A0918A06B0918B068093EC
:10102000F0019093F101A093F201B093F30181E0FC
:101030008093190280917A0690917B06039734F091
:1010400080917C06813011F410927C068091C2055B
:10105000823009F095C280918206909183060196B4
:1010600090938306809382068091980690919906CA
:10107000A0919A06B0919B06880F991FAA1FBB1FCB
:101080008093980690939906A0939A06B0939B0636
:101090008091940690919506A0919606B09197063E
:1010A000B7FD0AC08091980690919906A0919A0682
:1010B000B0919B068E7F09C0809198069091990609
:1010C000A0919A06B0919B068160809398069093B8
:1010D0009906A0939A06B0939B06809194069091EE
:1010E0009506A0919606B0919706880F991FAA1FA2
:1010F000BB1F8093940690939506A0939606B09399
:1011000097068091900690919106A0919206B091D9
:101110009306B7FD0AC08091940690919506A09120
:101120009606B09197068E7F09C0809194069091A3
:101130009506A0919606B0919706816080939406DB
:1011400090939506A0939606B0939706809190068B
:1011500090919106A0919206B0919306880F991FE5
:10116000AA1FBB1F8093900690939106A0939206AE
:10117000B093930680918C0690918D06A0918E0677
:10118000B0918F06B7FD0AC08091900690919106AC
:10119000A0919206B09193068E7F09C0809190062F
:1011A00090919106A0919206B091930681608093F0
:1011B000900690939106A0939206B0939306809127
:1011C0008C0690918D06A0918E06B0918F06880FA7
:1011D000991FAA1FBB1F80938C0690938D06A09326
:1011E0008E06B0938F068091880690918906A09113
:1011F0008A06B0918B06B7FD0AC080918C0690914B
:101200008D06A0918E06B0918F068E7F09C08091C9
:101210008C0690918D06A0918E06B0918F0681600C
:1012200080938C0690938D06A0938E06B0938F06C4
:101230008091880690918906A0918A06B0918B06CC
:10124000880F991FAA1FBB1F809388069093890659
:10125000A0938A06B0938B0680911A0190911B018E
:101260000E944017892B51F480918806909189063D
:10127000A0918A06B0918B06816009C08091880692
:1012800090918906A0918A06B0918B068E7F8093FB
:10129000880690938906A0938A06B0938B06809166
:1012A000980690919906A0919A06B0919B06833674
:1012B000994CA147B44DA1F4809194069091950664
:1012C000A0919606B091970688279927AA2700979C
:1012D000A105BD4429F48091EB01882309F40DC2D6
:1012E0008091EB01823041F48091820690918306D7
:1012F000803A910509F40DC28091EB01833041F4ED
:101300008091820690918306803A910509F40AC281
:101310008091EB01843041F48091820690918306A4
:10132000803A910509F404C28091EB01853041F4C3
:101330008091820690918306803A910509F401C25A
:101340008091EB01863041F4809182069091830672
:10135000803A910509F4FBC18091EB01873009F0D7
:101360000FC180918206909183068C3791050CF411
:1013700095C08091820690918306853891050CF086
:101380008DC08091940690919506A0919606B0919B
:1013900097068B2F9927AA27BB27FC0124EDE2276C
:1013A000E859FF4F949140919406509195066091B1
:1013B000960670919706E62FF0E081E7E827E85956
:1013C000FF4F849140919406509195066091960646
:1013D00070919706452F562F672F772767FD7A95CF
:1013E000FA01FF2729ECE227E859FF4F44910091C9
:1013F0009406109195062091960630919706F80173
:10140000FF2723E6E227E859FF4F0491E82FF0E099
:10141000E90FF11DE40FF11DE00FF11D3A97F4F50E
:1014200020918206309183068091820690918306F6
:10143000821B930B80589F4F909383068093820664
:1014400083E699ECA1E7B4ED80939406909395061A
:10145000A0939606B093970680919006909191067E
:10146000A0919206B0919306BB278093900690932B
:101470009106A0939206B093930680919006909166
:101480009106A0919206B0919306BD648093900658
:1014900090939106A0939206B09393068091820652
:1014A00090918306803A910509F06AC010928306F4
:1014B0001092820682E08093EB010E94CF1F809100
:1014C000980690919906A0919A06B0919B06833652
:1014D000994CA147B44D81F41092790680919406FD
:1014E00090919506A0919606B0919706A7FF48C0E7
:1014F00081E08093EA0144C083E699ECA1E7B4ED72
:101500008093980690939906A0939A06B0939B06B1
:101510008091940690919506A0919606B0919706B9
:10152000BB278093940690939506A0939606B0935C
:1015300097068091940690919506A0919606B09199
:101540009706BD648093940690939506A0939606A3
:10155000B09397060E94CF1F809179068F5F80938A
:10156000790680917906843019F481E08093EA014C
:1015700080917906853020F01092EB011092EA01FB
:1015800081E08093B5051F910F91089580E28093CB
:10159000180281E080937C068093EB01D7C982E436
:1015A000F7C98091EB01813009F4F8CA80917A067D
:1015B00090917B06019690937B0680937A0680E259
:1015C0008093180281E08093EB01E8CA10927B06B9
:1015D00010927A0680E28093180281E08093EB01FA
:1015E0007CCA80918206909183068E33924009F0E6
:1015F0001BCB80918206909183060296909383067E
:101600008093820611CB8091820690918306029787
:101610009093830680938206F5CA8091820690910A
:1016200083068E37944009F038CB809182069091E2
:101630008306029690938306809382062ECB809138
:101640008206909183060297909383068093820688
:1016500012CB80918206909183068E3B964009F0D2
:1016600055CB8091820690918306029690938306D3
:10167000809382064BCB80918206909183060297DD
:1016800090938306809382062FCB8091820690915F
:1016900083068E3F984009F072CB8091820690912C
:1016A00083060296909383068093820668CB80918E
:1016B0008206909183060297909383068093820618
:1016C0004CCB80918206909183068E339B4009F02B
:1016D0008FCB809182069091830602969093830629
:1016E0008093820685CB8091820690918306029733
:1016F000909383068093820669CB1092EA01109240
:1017000079061092190282E08093EB010E94CF1FAC
:10171000E7CD83E08093EB010E94B11F81E08093CD
:101720001902EACD84E08093EB010E94CF1FF0CD37
:1017300085E08093EB010E94B11F81E08093190244
:10174000F3CD86E08093EB010E94CF1FF9CD87E0B7
:101750008093EB010E94B11F81E0809319021092E7
:101760007806FACD8091A2069091A30601969093F7
:10177000A3068093A2068091C205811109C08091C1
:10178000A2069091A30601969093A3068093A206C9
:101790008091B7059091B80501969093B805809314
:1017A000B705809177068F5F8093770680917706E3
:1017B000823010F0109277068091C205811186C0A8
:1017C0008091BC059091BD0501979093BD058093D4
:1017D000BC058091BF05843021F08091BF05853024
:1017E00011F510927606109275068091BA059091C7
:1017F000BB0501979093BB058093BA0580910201C8
:10180000909103010E944017019709F04CC280910A
:1018100002019091030160E00E9469178091BF0569
:10182000853009F446C28091BF05873029F0809148
:10183000BF05883009F04AC0809175069091760600
:101840000196909376068093750680917506909127
:101850007606803691055CF0109276061092750639
:10186000809136018F5F8093360180913601E0913F
:101870000E01F0910F01E35EFD4F80812091450143
:101880003091460190E002C0959587952A95E2F740
:1018900080FF24C2809102019091030161E00E94C7
:1018A00069178091450190914601019690934601F8
:1018B000809345018091450190914601089709F474
:1018C00013C28091BF05883009F42AC28091C205F5
:1018D000813009F049C180910801813079F580910A
:1018E000B7059091B80580FF06C0809102019091E4
:1018F000030160E005C0809102019091030161E065
:101900000E94691780911601909117010197909399
:101910001701809316018091160190911701892B70
:1019200009F0BDC182E08093080180910E01909181
:101930000F01909374068093730687C0809108010D
:10194000823009F058C02091470140910401509124
:10195000050181E090E0841B950B31E2239F800D0F
:10196000911D112490930F0180930E01E0910E01BF
:10197000F0910F01E35EFD4F808120914501309190
:10198000460190E002C0959587952A95E2F780FF81
:1019900006C0809102019091030160E005C0809132
:1019A00002019091030161E00E9469178091450155
:1019B00090914601892B09F069C187E090E09093EE
:1019C00046018093450180910401909105010197A2
:1019D0009093050180930401809104019091050189
:1019E000892B09F05CC189E190E090931701809305
:1019F000160183E048C180910801833069F5809128
:101A0000B7059091B805809102019091030160E0C3
:101A10000E94691780911601909117010197909388
:101A20001701809316018091160190911701892B5F
:101A300009F035C184E0809308018091730690918C
:101A4000740690930F0180930E0181E290E09093D1
:101A500005018093040123C180910801843009F0BD
:101A600083C020914701409104015091050181E01C
:101A700090E0841B950B31E2239F800D911D112472
:101A800090930F0180930E01E0910E01F0910F01F0
:101A9000E35EFD4F8081209145013091460190E049
:101AA00002C0959587952A95E2F780FF06C0809140
:101AB00002019091030160E005C0809102019091C4
:101AC000030161E00E9469178091450190914601F0
:101AD000892B09F0DBC087E090E09093460180936A
:101AE00045018091040190910501019790930501B2
:101AF000809304018091040190910501892B09F0E4
:101B0000CEC087E190E0909317018093160121E009
:101B10002093080180914301909144010197909393
:101B2000440180934301809147018F5F8093470177
:101B3000809147018A3110F0209347018091430141
:101B400090914401181619061CF085E08093080155
:101B500080910801853009F0A2C080914801882356
:101B600009F49DC081E08FC08091C205823009F0E8
:101B700096C08091BA059091BB0518161906DCF441
:101B80008091770680FF06C0809102019091030149
:101B900060E005C0809102019091030161E00E9424
:101BA00069178091BA059091BB0501979093BB0589
:101BB0008093BA0574C0E0910E01F0910F01E35ECD
:101BC000FD4F8081209145013091460190E002C097
:101BD000959587952A95E2F780FF06C080910201CE
:101BE0009091030160E005C0809102019091030192
:101BF00061E00E9469178091450190914601892B0F
:101C000009F044C087E090E090934601809345013D
:101C100080910E0190910F01019690930F01809396
:101C20000E0180910E0190910F018934934031F49F
:101C300081E090E090930F0180930E018091040168
:101C40009091050101969093050180930401809184
:101C50000401909105018837910509F5109205015D
:101C60001092040180914301909144010197909357
:101C700044018093430180914301909144011816DF
:101C800019066CF085E08093080109C08091450138
:101C9000909146010197909346018093450181E020
:101CA0008093C1050895809102019091030161E044
:101CB000B3CD80910201909103010E9440170197DA
:101CC00049F080910201909103010E944017892BF5
:101CD00009F0A9CD86E08093BF05A5CD80910201D2
:101CE0009091030160E0DBCD109246011092450116
:101CF00080910E0190910F01019690930F018093B6
:101D00000E0180910E0190910F01833593400CF4E8
:101D1000D8CD81E090E090930F0180930E01D1CD5A
:101D2000209110013091110180910E0190910F01CD
:101D30002817390709F0CACD89E08093BF05C6CDC1
:101D40008091A106882329F08091A106811115C0F8
:101D500027C0809133018130B9F782E00E9440179B
:101D6000892BD9F382E00E9440170197D9F382E0D2
:101D70000E944017892BD9F3E7CF83E00E944017D8
:101D8000892BD9F383E00E9440170197D9F383E0B0
:101D90000E944017892BD9F38091C205813091F0C0
:101DA000809100019091010161E00E94691780918A
:101DB00000019091010160E00E94691760E08AE0F3
:101DC0000C94691783E00E9440170197D9F383E0D0
:101DD0000E944017892BD9F3E3CF0E94DB1B80912F
:101DE0003201813049F08091A0060E94A7188091AD
:101DF000A10681110AC005C080914001813099F788
:101E00003AC080913301813029F08091A10681117F
:101E100011C01FC082E00E9440170197D9F382E0F1
:101E20000E944017892BD9F382E00E944017019746
:101E3000D9F3EBCF83E00E9440170197D9F383E0F9
:101E40000E944017892BD9F383E00E944017019725
:101E5000D9F3809100019091010161E00E9469171E
:101E6000809100019091010160E00E94691760E09B
:101E70008AE00C9469178091A106811105C08091B8
:101E80003301882309F4AFCF8091A00642E050E0EF
:101E900062EB7BE00E94AC18809177068130A1F361
:101EA0008091A00642E050E062EB7BE00E94AC181B
:101EB000809177068823A1F38091A00642E050E04C
:101EC00062EB7BE00E94AC18809177068130A1F331
:101ED0008ACF809172068F5F80937206809172061E
:101EE000883000F110927206E0910A01F0910B0126
:101EF000E35EFD4F808180939B0580910A01909164
:101F00000B01019790930B0180930A0180910A01C4
:101F100090910B01892B31F48CE291E090930B01AD
:101F200080930A0186E190E0FC01E556FA4F20819A
:101F300030E03595279520830197DC01A556BA4FEF
:101F40002C9120FF03C02081206802C020812F77C0
:101F500020838F3F2FEF920739F708958091A301D7
:101F600087FF04C08091A30182FD08C08091A30176
:101F700087FD14C08091A30182FD10C08091A30150
:101F80008E7F8093A3018091A20190E09595879523
:101F90008093A2018091A2018F770FC08091A3014D
:101FA00081608093A3018091A20190E0959587952F
:101FB0008093A2018091A20180688093A201809108
:101FC000A301880F8093A3010895CF93DF9310920C
:101FD000A5011092A4011092A30110924B0110923E
:101FE0004A0181E090E09093B4058093B30580911D
:101FF000B3059091B4058A970CF046C0C0E0D0E0DC
:102000008091A301880F8093A301E091B305F09123
:10201000B405E059FA4F808190E00C2E02C09595EE
:1020200087950A94E2F780FF04C08091A301816044
:1020300003C08091A3018E7F8093A3010E940C02B4
:1020400080914A0190914B010897A4F010924B01A6
:1020500010924A018091A4018F5F8093A401809126
:10206000A401833038F01092A4018091A5018F5F04
:102070008093A5012196C830D10511F68091B30552
:102080009091B4050196AFCF8091A301880F809302
:10209000A3018091A3018E7F8093A3010E940C0273
:1020A0008091A301880F8093A3018091A3018E7F6B
:1020B0008093A301DF91CF910C940C024F925F9219
:1020C0006F927F928F929F92AF92BF92CF92DF9248
:1020D000EF92FF920F931F931092A5011092A4010B
:1020E0008FEF8093A30110924B0110924A018AEE68
:1020F00080931E0286EA80931F021092200284E0E1
:1021000090E0909346018093450183E090E09093A6
:1021100071068093700620E030E061E070E0C12C31
:10212000D12C7601C39410924B0110924A018B017D
:10213000022E02C0000F111F0A94E2F780914A019B
:1021400090914B014C970CF073C080914A01909193
:102150004B01FC01EE0FFF1F8E0F9F1FFC01E25B86
:10216000FE4F808190E080239123892BC1F08091E4
:10217000450190914601E0917006F0917106E35E91
:10218000FD4FB0802601370104C0440C551C661C6D
:10219000771C8A95D2F7D301C2018B2922C0A09166
:1021A0004501B0914601E0917006F0917106E35E41
:1021B000FD4F8081882E912CA12CB12C2601370156
:1021C00004C0440C551C661C771CAA95D2F7D30199
:1021D000C20180959095A095B09588219921AA215A
:1021E000BB21808380914501909146010196909397
:1021F00046018093450180914501909146010897E1
:102200006CF01092460110924501809170069091F9
:1022100071060196909371068093700680914A0131
:1022200090914B01019690934B0180934A0186CF88
:102230002F5F3F4F2830310509F075CF80E090E0E7
:1022400061E070E0C12CD12C7601C39410924B0157
:1022500010924A01DB01082E02C0AA0FBB1F0A948C
:10226000E2F720914A0130914B012C3131050CF0FD
:1022700077C020914A0130914B01F901EE0FFF1F09
:102280002E0F3F1FF901E25BFE4F218130E02A2330
:102290003B23232BC1F02091450130914601E09171
:1022A0007006F0917106E35EFD4FB0803601470184
:1022B00004C0660C771C881C991C2A95D2F79401DF
:1022C00083010B2922C02091450130914601E09104
:1022D0007006F0917106E35EFD4F0081802E912C17
:1022E000A12CB12C2601370104C0440C551C661CDE
:1022F000771C2A95D2F793018201009510952095BD
:102300003095082119212A213B2100832091450184
:10231000309146012F5F3F4F309346012093450196
:1023200020914501309146012830310574F010921A
:1023300046011092450120917006309171062F5F81
:102340003F4F309371062093700620914A013091DF
:102350004B012F5F3F4F30934B0120934A0181CFB8
:1023600001968430910509F071CF61E070E0C12CD5
:10237000D12C7601C39410924B0110924A01DB01DB
:10238000082E02C0AA0FBB1F0A94E2F720914A014F
:1023900030914B012B3131050CF077C020914A016F
:1023A00030914B01F901EE0FFF1F2E0F3F1FF90176
:1023B000E25BFE4F218130E02A233B23232BC1F037
:1023C0002091450130914601E0917006F09171062F
:1023D000E35EFD4FB0803601470104C0660C771CF8
:1023E000881C991C2A95D2F7940183010B2922C0DD
:1023F0002091450130914601E0917006F0917106FF
:10240000E35EFD4F0081802E912CA12CB12C260182
:10241000370104C0440C551C661C771C2A95D2F762
:10242000930182010095109520953095082119217E
:102430002A213B21008320914501309146012F5FE5
:102440003F4F309346012093450120914501309143
:1024500046012830310574F0109246011092450172
:1024600020917006309171062F5F3F4F30937106B7
:102470002093700620914A0130914B012F5F3F4F0E
:1024800030934B0120934A0181CF0196883091050A
:1024900009F071CF20E030E061E070E0C12CD12C78
:1024A0007601C39410924B0110924A018B01022EC7
:1024B00002C0000F111F0A94E2F780914A01909127
:1024C0004B014B970CF073C080914A0190914B01E6
:1024D000FC01EE0FFF1F8E0F9F1FFC01E25BFE4F02
:1024E000828190E080239123892BC1F08091450166
:1024F00090914601E0917006F0917106E35EFD4F08
:10250000B0803601470104C0660C771C881C991CFA
:102510008A95D2F7D401C3018B2922C0A09145012D
:10252000B0914601E0917006F0917106E35EFD4FB7
:102530008081882E912CA12CB12C2601370104C05A
:10254000440C551C661C771CAA95D2F7D301C20116
:1025500080959095A095B09588219921AA21BB21BD
:1025600080838091450190914601019690934601A8
:1025700080934501809145019091460108976CF048
:10258000109246011092450180917006909171065B
:102590000196909371068093700680914A01909104
:1025A0004B01019690934B0180934A0186CF2F5F98
:1025B0003F4F2830310509F075CF84E090E09093CB
:1025C00046018093450183E090E0909371068093EB
:1025D000700681E090E090934B0180934A0101E006
:1025E00010E020E030E080914A0190914B01853964
:1025F00092400CF092C08091A301880F8093A301B8
:102600009091A3018091A30194FB442740F950E0ED
:10261000881F8827881F90E04817590721F080916C
:10262000A301816003C08091A3018E7F8093A301E9
:102630006091A301E0917006F0917106E35EFD4F99
:102640008081E0914501F091460190E002C09595AE
:102650008795EA95E2F7862780FF18C080914501AB
:1026600090914601E0917006F0917106E35EFD4F96
:1026700060813801490104C0660C771C881C991CD4
:102680008A95D2F7D401C301862B20C06091450101
:1026900070914601E0917006F0917106E35EFD4F86
:1026A0008081C82ED12CE12CF12CD901C80104C0A5
:1026B000880F991FAA1FBB1F6A95D2F78095909526
:1026C000A095B0958C219D21AE21BF218083809162
:1026D00045019091460101969093460180934501F2
:1026E000809145019091460108976CF01092460147
:1026F0001092450180917006909171060196909319
:1027000071068093700680914A0190914B01019669
:1027100090934B0180934A0166CF1F910F91FF90D8
:10272000EF90DF90CF90BF90AF909F908F907F9071
:102730006F905F904F900895CF93DF9380ED8093DB
:10274000A90180E090E021E030E04091A6015091A5
:10275000A70142175307A4F0F901E855FE4F408145
:10276000E92FFF27E427EE0FFF1FE859FE4F4591A1
:102770005491982F8827842795272F5F3F4FE5CFC7
:1027800090934D0180934C01E091A601F091A70137
:10279000E655FE4F8083E091A601F091A701E75531
:1027A000FE4F90838091A6019091A701029690938D
:1027B000A7018093A601C1E0D0E08091A60190918D
:1027C000A7018C179D0754F0FE01E855FE4F60816C
:1027D00081EC96E00E9413162196EFCFDF91CF9106
:1027E000089580911201813061F480EE90E00E94A2
:1027F000F41F83E090E00E94F41F83E190E00E94C8
:10280000F41F80911201811118C083E08093AA0106
:102810001092AB018AE18093AC0180910601809314
:10282000AD0180911C028093AE0186E090E0909310
:10283000A7018093A6010C949C130895CF9383E085
:10284000809309018091C20581112DC00E94ED0E77
:102850008091A00643E050E067ED72E00E94AC1862
:10286000809149018E7F80934901809149018D7F3C
:10287000809349018CE291E090930D0180930C01CB
:10288000109272061092B6051092B20510929A0537
:10289000109236011092C00581E08093BF0510921E
:1028A000BE058093B9058091C205813041F08091C9
:1028B000C205823021F010924001CF91089510920C
:1028C0004401109243011092C005C1E0C093080179
:1028D000109242011092410188E190E0909317011B
:1028E000809316010E94ED0E8CE291E090930D0111
:1028F00080930C01C093B6051092B9058091A00693
:1029000043E050E067ED72E00E94AC18D4CF0E9423
:10291000CA198091A106811103C00E94A01902C0AA
:102920000E9475190E940B1D0E94DB1B0C941E1443
:10293000CF9381E08093090180933201809340011D
:102940008091C205811148C08AEF90E090930B01FD
:1029500080930A018CE291E090930D0180930C0129
:102960000E945B1C8091A0060E94A7180E94A00EE6
:10297000809149018E7F8093490180914901826055
:10298000809349018091350125E0829FC001112487
:102990009093BD058093BC058091BC059091BD05C9
:1029A000609134014BEF54E0649F9001659F300DBE
:1029B0001124820F931F9093BD058093BC0582E084
:1029C0008093BF058093B9058091A00642E050E056
:1029D00062EB7BE00E94AC18C091C205C130E1F40B
:1029E0000E945B1C8091A0060E94A7188CE291E0D7
:1029F00090930D0180930C011092B605C093B90518
:102A0000C09308010E94A00E8091A00642E050E011
:102A100062EB7BE00E94AC188091C205823051F5D8
:102A20000E945B1C8091A0060E94A7188CE291E096
:102A300090930D0180930C011092B60581E0809374
:102A4000B905809308010E94A00E87E090E0909362
:102A500046018093450180EC93E09093BB05809301
:102A6000BA058091A00642E050E062EB7BE0CF9196
:102A70000C94AC18CF9108958FE190E090936F067D
:102A800080936E0680916E0690916F0697FD29C027
:102A900080919C0690919D06A0919E06B0919F0604
:102AA00020916E0630916F0604C0B595A795979555
:102AB00087952A95D2F780FF02C061E001C060E0EF
:102AC0008AE00E94691761E087E00E94691760E070
:102AD00087E00E94691780916E0690916F060197BA
:102AE000CDCF08950E943C15809100019091010185
:102AF00061E00E946917809100019091010160E0FE
:102B00000C946917CF92DF92EF92FF920F931F936D
:102B1000CF93DF936C017A018B01C0E0D0E0CE153A
:102B2000DF0589F0D8016D918D01D601ED91FC9101
:102B30000190F081E02DC6010995892B11F47E01E9
:102B400002C02196ECCFC701DF91CF911F910F9169
:102B5000FF90EF90DF90CF900895089580E090E08F
:102B60000895FC01538D448D252F30E0842F90E093
:102B7000821B930B541710F0CF9608950197089578
:102B8000FC01918D828D981759F0828DDF01A80F7D
:102B9000B11D5D968C91928D9F5F928F90E008950C
:102BA0008FEF9FEF0895FC01918D828D981731F082
:102BB000828DE80FF11D858D90E008958FEF9FEFD6
:102BC0000895FC01918D828D981B892F90E00895C6
:102BD00081EC96E00E94E11521E0892B09F420E0C8
:102BE000822F0895FC01848DDF01A80FB11DA35E23
:102BF000BE4F2C91848D90E001968F739927848F1E
:102C0000A689B7892C93A089B1898C9180648C9313
:102C1000938D848D981306C00288F389E02D8081FE
:102C20008F7D80830895EF92FF920F931F93CF9330
:102C3000DF93EC0181E0888F9B8D8C8D981305C00C
:102C4000E889F989808185FD24C0F62E0B8D10E07E
:102C50000F5F1F4F0F731127E02E8C8DE8120CC0F1
:102C60000FB607FCFACFE889F989808185FFF5CF97
:102C7000CE010E94F215F1CF8B8DFE01E80FF11D00
:102C8000E35EFE4FF0820B8FEA89FB8980818062D0
:102C900007C0EE89FF896083E889F98980818064B3
:102CA000808381E090E0DF91CF911F910F91FF90A1
:102CB000EF900895CF93DF93EC01888D8823C9F0BE
:102CC000EA89FB89808185FD05C0A889B9898C9135
:102CD00086FD0FC00FB607FCF5CF808185FFF2CFD0
:102CE000A889B9898C9185FFEDCFCE010E94F2159C
:102CF000E7CFDF91CF91089580E090E0892B29F014
:102D00000E94E81581110C9400000895833081F031
:102D100028F4813099F08230A1F008958730A9F02D
:102D20008830B9F08430D1F4809180008F7D03C069
:102D3000809180008F7780938000089584B58F778D
:102D400002C084B58F7D84BD08958091B0008F77D7
:102D500003C08091B0008F7D8093B00008953FB78D
:102D6000F8948091BD069091BE06A091BF06B091E7
:102D7000C00626B5A89B05C02F3F19F00196A11DDE
:102D8000B11D3FBFBA2FA92F982F8827820F911D01
:102D9000A11DB11DBC01CD0142E0660F771F881F48
:102DA000991F4A95D1F70895882321F0813019F4AD
:102DB000E99801C0E898E82FF0E0EE0FFF1FE45E0D
:102DC000FE4F86EE96E191838083089508950E94D8
:102DD00095391F920F920FB60F9211242F933F93A4
:102DE0004F935F936F937F938F939F93AF93BF9313
:102DF000EF93FF9381EC96E00E94F215FF91EF9123
:102E0000BF91AF919F918F917F916F915F914F9102
:102E10003F912F910F900FBE0F901F9018951F920A
:102E20000F920FB60F9211242F938F939F93EF93CE
:102E3000FF93E091D106F091D2068081E091D70610
:102E4000F091D80682FD11C090818091DA068F5FE3
:102E50002091DB06821751F0E091DA06F0E0EF53A3
:102E6000F94F958F8093DA0601C08081FF91EF9131
:102E70009F918F912F910F900FBE0F901F901895DB
:102E8000CF93DF93282F30E0F901E255FC4F849176
:102E9000F901E656FC4FD491F901EA57FC4FC49171
:102EA000CC2391F081110E948616EC2FF0E0EE0FFA
:102EB000FF1FE458FC4FA591B491EC91ED2381E004
:102EC00090E021F480E002C080E090E0DF91CF91BB
:102ED00008951F93CF93DF93282F30E0F901E25537
:102EE000FC4F8491F901E656FC4FD491F901EA5761
:102EF000FC4FC491CC23C9F0162F81110E94861675
:102F0000EC2FF0E0EE0FFF1FEE58FC4FA591B491AF
:102F10008FB7F894111105C09C91ED2FE095E9232E
:102F200002C0EC91ED2BEC938FBFDF91CF911F91FD
:102F30000895CF93DF9390E0FC01E656FC4F249177
:102F4000FC01EA57FC4F8491882361F190E0880FDF
:102F5000991FFC01E859FC4FC591D491FC01EE5832
:102F6000FC4FA591B491611109C09FB7F894888175
:102F7000209582238883EC912E230BC0623061F46C
:102F80009FB7F8943881822F809583238883EC91B2
:102F90002E2B2C939FBF06C08FB7F894E8812E2B61
:102FA00028838FBFDF91CF9108958F929F92AF9228
:102FB000BF92CF92DF92EF92FF926B017C010E9451
:102FC000AF164B015C01C114D104E104F104F1F02E
:102FD0000E94AF16DC01CB0188199909AA09BB0927
:102FE000883E9340A105B10570F321E0C21AD108D3
:102FF000E108F10888EE880E83E0981EA11CB11C40
:10300000C114D104E104F10419F7DDCFFF90EF9072
:10301000DF90CF90BF90AF909F908F9008951F92B8
:103020000F920FB60F9211242F933F938F939F937C
:10303000AF93BF938091B9069091BA06A091BB0659
:10304000B091BC063091B80623E0230F2D3720F451
:103050000196A11DB11D05C026E8230F0296A11DF2
:10306000B11D2093B8068093B9069093BA06A09339
:10307000BB06B093BC068091BD069091BE06A091A0
:10308000BF06B091C0060196A11DB11D8093BD067B
:103090009093BE06A093BF06B093C006BF91AF91B8
:1030A0009F918F913F912F910F900FBE0F901F9086
:1030B00018951F920F920FB60F9211242F933F93E2
:1030C0004F935F936F937F938F939F93AF93BF9330
:1030D000EF93FF93E0911E01F0911F010995FF917D
:1030E000EF91BF91AF919F918F917F916F915F9180
:1030F0004F913F912F910F900FBE0F901F901895F9
:103100001F920F920FB60F9211242F933F934F935C
:103110005F936F937F938F939F93AF93BF93EF933F
:10312000FF93E0911C01F0911D010995FF91EF9132
:10313000BF91AF919F918F917F916F915F914F91CF
:103140003F912F910F900FBE0F901F9018958230D6
:1031500010F40C94D41608958230E8F4E82FF0E0CF
:10316000EE0FFF1FE45EFE4F71836083813041F0FC
:10317000809169008C7F482B40936900E89A0895FC
:1031800080916900440F551F440F551F837F482BC2
:1031900040936900E99A0895909109018091B706DA
:1031A000981709F478C0809109018093B70680913F
:1031B000B706811110C01092B6061092B506109293
:1031C000B4061092B30660E08EE00E94691760E0DA
:1031D0008FE00E9469178091B7068130A1F480E8E2
:1031E00095E29093B6068093B5068FE097E29093B0
:1031F000B4068093B30661E08EE00E94691760E038
:103200008FE00E9469178091B7068230A1F480ECAC
:1032100093E09093B6068093B50680EF90E090938C
:10322000B4068093B30660E08EE00E94691760E008
:103230008FE00E9469178091B7068330A1F480E87F
:1032400095E29093B6068093B50680EE91E0909358
:10325000B4068093B30660E08EE00E94691760E0D8
:103260008FE00E9469178091B7068430A1F480E84E
:1032700095E29093B6068093B50680EC92E1909328
:10328000B4068093B30660E08EE00E94691761E0A7
:103290008FE00E9469172091A2063091A3068091C9
:1032A000B5069091B606821793077CF41092A30698
:1032B0001092A2068091B3069091B40618161906D2
:1032C00024F461E084E00E9469172091A206309105
:1032D000A3068091B3069091B4068217930724F455
:1032E00060E084E00C946917089581E08093A10662
:1032F0008093A00688E090E090931B0180931A01D0
:1033000089E090E0909303018093020184E090E0D3
:1033100090931901809318018BE090E09093010144
:103320008093000180E00E94D41681E00E94D416B0
:103330008091A00643E050E067ED72E00C94AC1879
:103340001092A1061092A00685E090E090931B01D8
:1033500080931A0186E090E090930301809302012C
:103360008DE090E090931901809318018CE090E03B
:10337000909301018093000180E00E94D41681E0C7
:103380000E94D4168091A00643E050E067ED72E001
:103390000C94AC18CF92DF92EF92FF928091C2050D
:1033A000882349F08091C205813029F08091C205BF
:1033B000823009F0FBC180913C0190913D01A091C8
:1033C0003E01B0913F018115924CAB4EBB401CF4C5
:1033D0001092A10603C081E08093A1068091A1060E
:1033E000811115C080913C0190913D01A0913E0159
:1033F000B0913F01BC01CD01605A764881409109EE
:103400000E94163820E030E041E65AE414C0809172
:103410003C0190913D01A0913E01B0913F01BC0162
:10342000CD01605A7648814091090E94163820E00B
:1034300030E041EE5AE40E9473376093AF06709318
:10344000B0068093B1069093B2066091AF0670917A
:10345000B0068091B1069091B2060E9451380E9448
:10346000E5376093AE06C090AF06D090B006E0900E
:10347000B106F090B2068091AE06682F70E080E051
:1034800090E00E9416389B01AC01C701B6010E9472
:10349000063720E030E040E057E40E94FA386093BD
:1034A000AF067093B0068093B1069093B206609118
:1034B000AF067091B0068091B1069091B20620E0FF
:1034C00030E040E05FE30E9407370E9451380E94DD
:1034D000E5377093AD066093AC0683E090E0A0E022
:1034E000B0E08093A8069093A906A093AA06B09393
:1034F000AB068091A8069091A906A091AA06B0916A
:10350000AB06BA2FA92F982F88278093A8069093EF
:10351000A906A093AA06B093AB068091A806909145
:10352000A906A091AA06B091AB062091AE06822B07
:103530008093A8069093A906A093AA06B093AB0621
:103540008091A8069091A906A091AA06B091AB0619
:103550006FE0880F991FAA1FBB1F6A95D1F7809350
:10356000A8069093A906A093AA06B093AB06409133
:10357000A8065091A9066091AA067091AB068091A9
:10358000AC069091AD06A0E0B0E0842B952BA62B65
:10359000B72B8093A8069093A906A093AA06B09390
:1035A000AB068091A8069091A906A091AA06B091B9
:1035B000AB0674E0880F991FAA1FBB1F7A95D1F73D
:1035C0008093A8069093A906A093AA06B093AB0691
:1035D0008091A10681110FC060913801709139016D
:1035E00080913A0190913B010E94163820E030E032
:1035F00041E65AE40EC06091380170913901809122
:103600003A0190913B010E94163820E030E041EEF3
:103610005AE40E9473376093AF067093B0068093AC
:10362000B1069093B2066091AF067091B00680919A
:10363000B1069091B2060E9451380E94E53760931E
:10364000AE06C090AF06D090B006E090B106F09004
:10365000B2068091AE06682F70E080E090E00E9494
:1036600016389B01AC01C701B6010E94063720E065
:1036700030E040E057E40E94FA386093AF06709360
:10368000B0068093B1069093B2066091AF06709138
:10369000B0068091B1069091B20620E030E040E0A3
:1036A0005FE30E9407370E9451380E94E53770930C
:1036B000AD066093AC0682E090E0A0E0B0E08093BD
:1036C000A4069093A506A093A606B093A7068091A2
:1036D000A4069091A506A091A606B091A706BA2FC0
:1036E000A92F982F88278093A4069093A506A093CE
:1036F000A606B093A7068091A4069091A506A09176
:10370000A606B091A7062091AE06822B8093A40650
:103710009093A506A093A606B093A7068091A40651
:103720009091A506A091A606B091A7063FE0880F4C
:10373000991FAA1FBB1F3A95D1F78093A4069093B7
:10374000A506A093A606B093A7064091A4065091A3
:10375000A5066091A6067091A7068091AC0690918F
:10376000AD06A0E0B0E0842B952BA62BB72B809361
:10377000A4069093A506A093A606B093A7068091F1
:10378000A4069091A506A091A606B091A70644E0D4
:10379000880F991FAA1FBB1F4A95D1F78093A406D3
:1037A0009093A506A093A606B093A706FF90EF906E
:1037B000DF90CF9008958091C20581115DC085EFA3
:1037C00094E2A0E0B0E080939C0690939D06A093C5
:1037D0009E06B0939F060E9472158091A1068111EA
:1037E00021C082E990EDA5E9B3E080939C06909317
:1037F0009D06A0939E06B0939F060E94721583E5D6
:1038000090E8ADE4BAE280939C0690939D06A09365
:103810009E06B0939F060E94721584E198E3A9E288
:10382000B0E020C082E990EDA5E6B1E080939C066F
:1038300090939D06A0939E06B0939F060E947215DA
:1038400083E990ECACE4BAE280939C0690939D06E9
:10385000A0939E06B0939F060E94721584E194EC9B
:10386000A5E4B0E080939C0690939D06A0939E06ED
:10387000B0939F060E9472158091C205882341F083
:103880008091C205813021F08091C205823091F48F
:103890008091A8069091A906A091AA06B091AB06C6
:1038A00080939C0690939D06A0939E06B0939F06DE
:1038B0000C943C15089580913701803418F08FE303
:1038C0008093370180913701823018F481E0809332
:1038D00037018091C20581116DC08091A1068111CF
:1038E00030C08091370190E0A0E0B0E080939C066A
:1038F00090939D06A0939E06B0939F0680919C0690
:1039000090919D06A0919E06B0919F063DE0880F84
:10391000991FAA1FBB1F3A95D1F780939C069093DD
:103920009D06A0939E06B0939F0680919C06909161
:103930009D06A0919E06B0919F0682699861A06B3A
:103940002FC08091370190E0A0E0B0E080939C060A
:1039500090939D06A0939E06B0939F0680919C062F
:1039600090919D06A0919E06B0919F062DE0880F34
:10397000991FAA1FBB1F2A95D1F780939C0690938D
:103980009D06A0939E06B0939F0680919C06909101
:103990009D06A0919E06B0919F0682699861A065E0
:1039A00080939C0690939D06A0939E06B0939F06DD
:1039B0000E9472158091C205813091F48091A40615
:1039C0009091A506A091A606B091A70680939C06AB
:1039D00090939D06A0939E06B0939F060E94721539
:1039E0008091C205882321F08091C205823091F434
:1039F0008091A4069091A506A091A606B091A70675
:103A000080939C0690939D06A0939E06B0939F067C
:103A10000C943C1508958091C205811107C18091D5
:103A2000A8069091A906A091AA06B091AB06809332
:103A30009C0690939D06A0939E06B0939F060E94BD
:103A400072158091A10681113DC081E290E5AFE140
:103A5000B2E080939C0690939D06A0939E06B0933F
:103A60009F060E94721583E590E8ADE4BAE2809368
:103A70009C0690939D06A0939E06B0939F060E947D
:103A8000721585EF94E2A0E0B0E080939C069093DD
:103A90009D06A0939E06B0939F060E94721584E136
:103AA00098E3A9E2B0E080939C0690939D06A093D2
:103AB0009E06B0939F060E94721582E998E1A0EBE2
:103AC000B0E042C081E190E5A7E5B0E080939C06BC
:103AD00090939D06A0939E06B0939F060E94721538
:103AE00083E990ECACE4BAE280939C0690939D0647
:103AF000A0939E06B0939F060E94721585EF94E2F4
:103B0000A0E0B0E080939C0690939D06A0939E0653
:103B1000B0939F060E94721561E070E080E090E033
:103B20000E94D51784E194ECA5E4B0E080939C0654
:103B300090939D06A0939E06B0939F060E947215D7
:103B400082E990EDA5E5B0E080939C0690939D06F8
:103B5000A0939E06B0939F060E9472158FE090E09E
:103B6000AEE0B0E080939C0690939D06A0939E06E5
:103B7000B0939F060E94721586E19EE0A7E0B5E033
:103B800080939C0690939D06A0939E06B0939F06FB
:103B90000E94721562E370E080E090E00E94D51709
:103BA00089EE91E3A2E0B0E080939C0690939D069D
:103BB000A0939E06B0939F060E9472158AE397E435
:103BC000A6E9B2E380939C0690939D06A0939E067F
:103BD000B0939F060E9472158BE390E0A0E0B0E0E6
:103BE00080939C0690939D06A0939E06B0939F069B
:103BF0000E9472158CE091E0A0E0B0E080939C06FA
:103C000090939D06A0939E06B0939F060E94721506
:103C10008DE090E0A0E0B0E080939C0690939D063C
:103C2000A0939E06B0939F060E9472158091C205D4
:103C3000813009F0C8C08091A106811105C081E2E0
:103C400090EDAFE1B2E004C081E190EDA7E4B0E017
:103C500080939C0690939D06A0939E06B0939F062A
:103C60000E94721583ED90E8ACE4B6E380939C0665
:103C700090939D06A0939E06B0939F060E94721596
:103C800080E995EEA7EDB9E180939C0690939D069F
:103C9000A0939E06B0939F060E94721585EF94E252
:103CA000A0E0B0E080939C0690939D06A0939E06B2
:103CB000B0939F060E94721584E398EEA6EFB1E8D8
:103CC00080939C0690939D06A0939E06B0939F06BA
:103CD0000E9472158091A106811105C082EF90EDBE
:103CE000A5E6B0E004C082EF90EDA5E3B0E08093DC
:103CF0009C0690939D06A0939E06B0939F060E94FB
:103D000072158FE090E0AEE0B0E080939C06909357
:103D10009D06A0939E06B0939F060E94721586E0B2
:103D20009EE0A7E0B5E080939C0690939D06A0934B
:103D30009E06B0939F060E94721589EE91E3A2E061
:103D4000B0E080939C0690939D06A0939E06B0934E
:103D50009F060E9472158AE297E4AEE7B2E0809374
:103D60009C0690939D06A0939E06B0939F060E948A
:103D700072158BE390E0A0E0B0E080939C069093F6
:103D80009D06A0939E06B0939F060E9472158CE03C
:103D900091E0A0E0B0E080939C0690939D06A093F4
:103DA0009E06B0939F060E9472158DE993E0A0E0F5
:103DB000B0E080939C0690939D06A0939E06B093DE
:103DC0009F060E9472158091C205823009F0C8C01A
:103DD0008091A106811105C081E290EDAFE1B2E0D2
:103DE00004C081E190EDA7E4B0E080939C0690933D
:103DF0009D06A0939E06B0939F060E94721583E9CC
:103E000090ECACE4BAE280939C0690939D06A0935C
:103E10009E06B0939F060E94721580E995EEA7ED6D
:103E2000B9E180939C0690939D06A0939E06B09363
:103E30009F060E94721585EF94E2A0E0B0E08093A7
:103E40009C0690939D06A0939E06B0939F060E94A9
:103E5000721584E390E1A8E7B0E880939C06909304
:103E60009D06A0939E06B0939F060E9472158091B6
:103E7000A106811105C082EF90EDA5E8B0E004C075
:103E800082EF90EDA5E4B0E080939C0690939D06B0
:103E9000A0939E06B0939F060E9472158FE090E05B
:103EA000AEE0B0E080939C0690939D06A0939E06A2
:103EB000B0939F060E94721586E09EE0A7E0B5E0F1
:103EC00080939C0690939D06A0939E06B0939F06B8
:103ED0000E94721589EE91E3A2E0B0E080939C0607
:103EE00090939D06A0939E06B0939F060E94721524
:103EF0008AE297E4A6E9B2E380939C0690939D063C
:103F0000A0939E06B0939F060E9472158BE390E0EB
:103F1000A0E0B0E080939C0690939D06A0939E063F
:103F2000B0939F060E9472158CE091E0A0E0B0E093
:103F300080939C0690939D06A0939E06B0939F0647
:103F40000E9472158DEB93E0A0E0B0E080939C0698
:103F500090939D06A0939E06B0939F060C947215B5
:103F6000089581E090E09C01220F331F220F331F40
:103F7000F901EC57F94F4081518162817381F90158
:103F8000E451FE4F408351836283738301968630F0
:103F9000910549F71092830610928206089581E0F8
:103FA00090E0FC01EE0FFF1FEE0FFF1FEC57F94FE3
:103FB0004081518162817381FC01EE0FFF1FEE0F82
:103FC000FF1FE050FE4F408351836283738301964D
:103FD0008630910531F7109283061092820608957B
:103FE00081EC96E00C941316682F81EC96E00C940B
:103FF0001316789484B5826084BD84B5816084BDD5
:1040000085B5826085BD85B5816085BD80916E0076
:10401000816080936E0010928100809181008260A7
:1040200080938100809181008160809381008091E4
:1040300080008160809380008091B10084608093D3
:10404000B1008091B00081608093B00080917A00CF
:10405000846080937A0080917A00826080937A00F5
:1040600080917A00816080937A0080917A008068E4
:1040700080937A001092C10060E082E00E9499175C
:1040800060E083E00E94991760E085E00E94991744
:1040900061E086E00E94991761E087E00E9499172D
:1040A00060E088E00E94991761E089E00E9499171A
:1040B00061E08AE00E94991761E08BE00E94991705
:1040C00061E08CE00E94991760E08DE00E949917F2
:1040D00061E084E00E94991761E08EE00E949917E8
:1040E00061E08FE00E94991761E080E10E949917DA
:1040F00061E081E10E94991761E082E10E949917D5
:1041000061E083E10E94991760E087E00E946917EF
:1041100060E08BE00E94691760E08CE00E94691704
:1041200060E08AE00E94691760E084E00E946917FD
:1041300060E08EE00E94691760E08FE00E946917DE
:1041400060E080E10E94691760E081E10E946917E8
:1041500086E980933501109234018FE38093370113
:104160001092C20580E496E8A4EAB8E080933C018E
:1041700090933D01A0933E01B0933F01809338019D
:1041800090933901A0933A01B0933B010E94A0198A
:104190000E94CA190E940B1D0E94DB1B8091000126
:1041A0009091010161E00E94691780910001909156
:1041B000010160E00E94691762E370E080E090E036
:1041C0000E94D5178091B7059091B8058536910565
:1041D00018F081E08093330180EC92E9ADEEB9E113
:1041E00080933C0190933D01A0933E01B0933F0129
:1041F0008093380190933901A0933A01B0933B0129
:104200000E9475190E94CA190E940B1D0E94DB1B97
:104210000E941E14E091D106F091D20682E08083C4
:10422000E091CD06F091CE061082E091CF06F0919C
:10423000D00680E180831092D906E091D506F091F6
:10424000D60686E08083E091D306F091D406808183
:1042500080618083E091D306F091D40680818860EC
:104260008083E091D306F091D406808180688083BA
:10427000E091D306F091D40680818F7D808381EC1C
:1042800096E00E945A1689E080931201109252061D
:104290001092510611E002E01092320181EC96E09A
:1042A0000E94E115181619060CF057C0C09151066E
:1042B000D091520681EC96E00E94C015C253DA4FAD
:1042C00088838091510690915206019690935206F0
:1042D000809351068091CE05803D29F08091CE05D6
:1042E000803E09F0BFC58091CE05803D09F58091E3
:1042F0005106909152060697DCF08091CF058130EF
:1043000009F0B7C58091D0058111B3C58091D10561
:10431000813109F0AEC58091D2058111AAC5809185
:10432000D3058B3009F0A5C5109212011092C20579
:104330008091CE05803E89F480915106909152067D
:1043400003975CF08091CF05833009F099C5809187
:10435000D005811195C510931201009309010E94A7
:10436000CC1880911201893009F496CF83E08093B4
:104370000901C1E0D0E002E513E056E5452E512CDD
:1043800065E0662E712C77E0E72EF12CEEE12E2E03
:10439000312C812C912C5401839480911201811134
:1043A00006C181EC96E00E94E1151816190604F585
:1043B000C0905106D090520681EC96E00E94C01544
:1043C000F601E253FA4F8083809151069091520694
:1043D00001969093520680935106809151069091D8
:1043E00052068338910524F010925206109251061D
:1043F0008091CE05803D21F0109252061092510618
:104400008091CE05803D09F0D2C0809151069091F7
:10441000520605970CF4CBC02091510630915206FC
:104420008091CF0590E00496821793070CF0BFC0EF
:104430008091D105813109F042C08093AA01109288
:10444000AB0181E98093AC0181E68093AD0192E3F9
:104450009093AE0184E48093AF0186E58093B00130
:104460008DE28093B1018DE48093B20185E4809365
:10447000B30187E48093B40181E48093B50120E225
:104480002093B60122E52093B70123E32093B801DE
:104490002EE22093B9019093BA0196E39093BB0169
:1044A0008093BC0124E130E03093A7012093A60162
:1044B0000E949C1381E08093BF058093B905809191
:1044C000D1058231E1F485E08093AA011092AB011D
:1044D00082E98093AC0183E18093AD0189E0809310
:1044E000AE0180E18093AF0181E08093B00188E06C
:1044F00090E09093A7018093A6010E949C13809165
:10450000D105843109F4C3C48091D105803109F407
:104510007AC58091D105803109F47BC58091D105A0
:10452000863151F4809102019091030160E00E9474
:10453000691781E08093BE058091D105873129F507
:104540008091D205809306018091D30580931C024F
:1045500081E090E0FC01EB52FA4F2081FC01E05930
:10456000FA4F208301968A329105A1F750921101EA
:1045700040921001D0930F01C0930E010E94E50FED
:104580000E945E1082E08093BE058091D105893142
:1045900009F445C58091D1058A3109F47FC510928F
:1045A000CE051092CF0510925206109251068091BE
:1045B0001201813009F086C081EC96E00E94E1157D
:1045C0001816190604F5C0905106D090520681ECD9
:1045D00096E00E94C015F601E253FA4F8083809165
:1045E000510690915206019690935206809351067F
:1045F00080915106909152068338910524F01092D3
:104600005206109251068091CE05803E21F0109204
:104610005206109251068091CE05803E09F052C09C
:1046200020915106309152068091CF0590E02817D5
:10463000390709F047C01092C7058091CE05803E2A
:1046400029F48091CF05833009F4A1C68091CE056D
:10465000803E09F4A2C68091CE05803E09F4ADC625
:104660008091CE05803E09F4BDC68091CE05803E86
:1046700009F4C8C68091CE05803E09F4D7C6809162
:10468000CE05803E09F4E2C68091CE05803E09F455
:10469000E8C68091CE05803E09F4E9C68091CE053A
:1046A000803E09F4EFC68091CE05803E09F4F5C640
:1046B0001092CE051092CF051092D005109252069E
:1046C000109251060E94CC188091C205811170C2CF
:1046D0008091C105882309F445C0209110013091D3
:1046E000110180910E0190910F018217930784F4BC
:1046F000809110019091110120910E0130910F01D4
:10470000821B930B6CE070E00E9467396093C005D8
:10471000209110013091110180910E0190910F01B3
:104720002817390794F4809110019091110120917C
:104730000E0130910F018E5A9C4F821B930B6CE03F
:1047400070E00E9467396093C0052091100130919C
:10475000110180910E0190910F012817390711F472
:104760001092C0058091BF05882309F4A0C08091F4
:10477000BF05813029F48091BE0581110E949814F3
:104780008091BF05823049F48091BC059091BD05B0
:10479000059718F483E08093BF058091BF058330AF
:1047A000A9F48091BE05823088F0809112018111B8
:1047B0000C94A5308DEF90E09093BB058093BA05E3
:1047C00084E08093BF0583E08093B9058091BF05A5
:1047D000843049F48091BA059091BB0502971CF48E
:1047E00085E08093BF058091BF05863031F487E076
:1047F0008093BF0585E08093B9058091BF05873020
:1048000009F045C08091B7059091B805813C92416F
:1048100010F00E941E148091C00581111AC0809171
:104820000E0190910F01CC9790930F0180930E0190
:1048300080910E0190910F011816190654F0809185
:104840000E0190910F018E5A9C4F90930F0180930F
:104850000E018091C0058F3AD0F0809110019091A7
:104860001101CC9790931101809310018091100158
:10487000909111011816190654F080911001909131
:1048800011018E5A9C4F90931101809310018091D9
:10489000BF05873031F49091BE05943011F40C942B
:1048A000A9308091BF05893011F40E941E148091B7
:1048B000B6058630C0F520910C0130910D01809134
:1048C0000A0190910B018217930794F480910A01D9
:1048D00090910B0120910C0130910D01845D9E4F50
:1048E000821B930B8B3F91051CF081E08093B505F3
:1048F00020910A0130910B0180910C0190910D01E2
:104900008217930784F480910A0190910B01209102
:104910000C0130910D01821B930B8B3F91051CF014
:1049200081E08093B5058091B505882309F440C1E5
:104930000E94690F8091B605863038F58091B905DF
:10494000823018F58091B3059091B405C19734F089
:1049500080E390E09093B4058093B3058091B20515
:104960008F5F8093B2058091A705853511F40C9473
:10497000B0308091B205803611F40C94BD30809136
:104980009A05813111F40C94C4308091B6058111DF
:1049900012C08091B505882371F08091B9058230ED
:1049A00050F48091A9058A3A31F48091A8058A3A99
:1049B00011F40C9400328091B605813071F480912D
:1049C000B505882351F08091A9058A3A31F4809188
:1049D000A8058A3A11F40C9416328091B6058230FB
:1049E00009F082C08091B505882309F47DC08091CB
:1049F000A30183FD02C00C9439328091A30186FD8E
:104A000002C00C9439328091A301880F8093A301D6
:104A10008091A3018E7F8093A3018091A50580FDE5
:104A200002C00C944D328091A30180FD02C00C9411
:104A30004D3220914A0130914B018091A501309176
:104A4000A40190E0AC01440F551FFA01E80FF91FD3
:104A5000E30FF11DE25BFE4F808190E0A0E0B0E04B
:104A6000B501A40104C0440F551F661F771F2A9586
:104A7000D2F7409550956095709584239523A62391
:104A8000B72380838091A5018F5F8093A5018091DA
:104A9000A401811106C08091A5018C3110F00C9405
:104AA00091328091A401813011F40C94773280917D
:104AB000A401813011F40C947D3280914A019091CF
:104AC0004B0197FF09C0F0924B01E0924A0180919F
:104AD000A4018F5F8093A4018091A401823011F41E
:104AE0000C948B321092BF058091B605833071F41F
:104AF0008091B50581110C94E13208C082E390E009
:104B00009093A7018093A6010E949C138091B60503
:104B1000843029F48091B50581110C94C0348091C2
:104B2000B605853081F48091B50581110C94C534AA
:104B30000AC086E08093B6051092B20584E18093A6
:104B40009A051092B5058091B605863089F5809159
:104B5000B505882369F18091B2058F5F8093B20516
:104B60008091B205823030F08091B205893110F425
:104B70000C9482358091B205893411F40C94D434AC
:104B800080919A05843111F40C94F93480919A053E
:104B9000843111F40C9400358091B205893411F4FC
:104BA0000C9407358091B205803610F00C94713565
:104BB0008091CA058823D9F18091C205811110C066
:104BC00080911A0290911B0289359B4148F0109206
:104BD0001B0210921A0281E08093C2050E94871482
:104BE0008091C205813081F480911A0290911B025C
:104BF000813C924148F010921B0210921A0282E00E
:104C00008093C2050E9487148091C205823079F496
:104C100080911A0290911B02893B9B4040F01092B8
:104C20001B0210921A021092C2050E9487148091F2
:104C3000C205813009F0ADC080911902813009F0C0
:104C40009BC010921B0210921A021092CA05109279
:104C5000190280911802813411F40C944E3680911F
:104C60001802823411F40C944E3684E080930901CA
:104C700080EE90E00E94F41F85E290E00E94F41F15
:104C80008AE190E00E94F41F6091180281EC96E0A6
:104C90000E94131689E090E09093C9058093C8059F
:104CA0008091C8059091C90502970CF457C0E09116
:104CB000C805F091C905EE0FFF1FEE0FFF1FE4516D
:104CC000FE4F80819181A281B3816B2F7727882746
:104CD00099270E94F01FE091C805F091C905EE0FD9
:104CE000FF1FEE0FFF1FE451FE4F80819181A281D3
:104CF000B3816A2F70E080E090E00E94F01FE091A5
:104D0000C805F091C905EE0FFF1FEE0FFF1FE4511C
:104D1000FE4F80819181A281B381692F70E080E094
:104D200090E00E94F01FE091C805F091C905EE0FD8
:104D3000FF1FEE0FFF1FE451FE4F80819181A28182
:104D4000B381BC01CD017727882799270E94F01FE6
:104D50008091C8059091C90501979ECF8091F0017F
:104D60009091F101A091F201B091F3016B2F77279F
:104D7000882799270E94F01F80910801853011F43F
:104D80000E941E1480911802823419F483E08093EB
:104D90000901D090C20542E0D4125DC08091190291
:104DA000813009F052C084E0809309011092190209
:104DB0001092CA058091EB01833059F580EE90E0A6
:104DC0000E94F41F8CE790E00E94F41F80E290E0C4
:104DD0000E94F41F809107018E5F809307018091EC
:104DE0000701811102C0D09207018091EA01813050
:104DF00029F4809107018160809307016091070188
:104E000081EC96E00E941316809107018E7F8093BB
:104E100007018091EB01833011F40C946A36809184
:104E2000EB01853011F40C946A368091EB018730E8
:104E300011F40C946A368091EB01873031F4809143
:104E4000EA01813011F40C94D0368091080185304C
:104E500011F40E941E141092B5051092C1050E9413
:104E60007C169BCA10925206109251061092CE05E3
:104E70003ACA10925206109251061092CE0558CAA4
:104E800010925206109251061092CE0566CA809179
:104E9000D205813C09F0A5C010923C0110923D0161
:104EA00010923E0110923F018091D80590E0A0E061
:104EB000B0E080933C0190933D01A0933E01B093FC
:104EC0003F0180913C0190913D01A0913E01B09144
:104ED0003F01BA2FA92F982F882780933C019093E8
:104EE0003D01A0933E01B0933F012091D7058091F1
:104EF0003C0190913D01A0913E01B0913F01820F94
:104F0000911DA11DB11D80933C0190933D01A09383
:104F10003E01B0933F0180913C0190913D01A091F1
:104F20003E01B0913F01BA2FA92F982F8827809377
:104F30003C0190933D01A0933E01B0933F0120912D
:104F4000D60580913C0190913D01A0913E01B09128
:104F50003F01820F911DA11DB11D80933C019093D3
:104F60003D01A0933E01B0933F0180913C0190919F
:104F70003D01A0913E01B0913F01BA2FA92F982F7A
:104F8000882780933C0190933D01A0933E01B0930C
:104F90003F012091D50580913C0190913D01A09168
:104FA0003E01B0913F01820F911DA11DB11D809363
:104FB0003C0190933D01A0933E01B0933F0180914D
:104FC0003C0190913D01A0913E01B0913F01809341
:104FD000380190933901A0933A01B0933B010E94AC
:104FE000871482E08093AA011092AB0184E9809338
:104FF000AC0186E08093AD017092A7016092A6019A
:105000000E949C1381CA8091CF05823009F081CA29
:105010007BC18091CF05813009F080CA8AC110928E
:10502000B8051092B70580919A058F5F80939A0515
:1050300080919A05853110F010929A0588E090E0F1
:105040002091100130911101FC01E253FA4F40818F
:10505000F901E35EFD4F4083209110013091110171
:105060002F5F3F4F309311012093100120911001C9
:10507000309111012335334024F0D0931101C093B6
:105080001001019684319105D9F68091BE058230D8
:1050900009F080CA83E08093BE057CCA809110012C
:1050A00090911101019790931101809310018091CB
:1050B000100190911101892B21F41093110100939B
:1050C00010018091100190911101019790931101AD
:1050D000809310018091100190911101892B21F48E
:1050E0001093110100931001809110019091110112
:1050F000019790931101809310018091100190917C
:105100001101892B21F41093110100931001E091FA
:105110001001F0911101E35EFD4F85E580838091E0
:10512000100190911101019690931101809310014B
:1051300080911001909111018335934024F0D09318
:105140001101C0931001E0911001F0911101E35E93
:10515000FD4F85E5808380911001909111010196AA
:105160009093110180931001809110019091110191
:105170008335934024F0D0931101C0931001E09146
:105180001001F0911101E35EFD4F85E58083809170
:1051900010019091110101969093110180931001DB
:1051A00080911001909111018335934024F0D093A8
:1051B0001101C0931001E0911001F0911101E35E23
:1051C000FD4F85E58083809110019091110101963A
:1051D0009093110180931001809110019091110121
:1051E0008335934024F0D0931101C0931001E091D6
:1051F0001001F0911101E35EFD4F88EC80838091F6
:10520000100190911101019690931101809310016A
:1052100080911001909111018335934024F0D09337
:105220001101C0931001E0911001F0911101E35EB2
:10523000FD4F8AE7808380911001909111010196C2
:1052400090931101809310018091100190911101B0
:105250008335934024F0D0931101C0931001E09165
:105260001001F0911101E35EFD4F10828091100159
:1052700090911101019690931101809310018091FA
:105280001001909111018335934024F0D0931101C6
:10529000C0931001E0911001F0911101E35EFD4F08
:1052A000108280911001909111010196909311014B
:1052B00080931001809110019091110183359340EA
:1052C00024F0D0931101C0931001E0911001F091EE
:1052D0001101E35EFD4F1082809110019091110148
:1052E000019690931101809310018091100190918B
:1052F00011018335934024F0D0931101C093100124
:1053000084E08093BE054BC99091D2059093C3056C
:105310008093AA011092AB0180E98093AC0186E0F2
:105320008093AD017092A7016092A6010E949C1328
:10533000F0C888E08093AA011092AB0180E98093C5
:10534000AC0187E48093AD01809149018093AE0167
:105350008091B9058093AF0185E18093B0018CEF16
:105360008093B1018091C0059CE0899F802D11241C
:105370008093B201809136018093B3018BE090E07D
:105380009093A7018093A6010E949C13C7C88091A7
:10539000D005882309F48CC059C98091CF05853286
:1053A00009F059C98091D0058A3109F054C980911A
:1053B000C205813009F04FC9C5C08091CF058C3737
:1053C00009F04EC98091D005803209F049C9909109
:1053D000C205923009F044C980910801853008F473
:1053E000C2C13EC98091CF058F3009F03EC980917E
:1053F000D005813109F039C98091C205882309F4AB
:105400005FC233C98091CF058C3009F033C98091D8
:10541000D005843009F02EC98091D10581112AC9A7
:1054200080914001882309F4C6C224C98091CF0528
:105430008C3009F024C98091D005843009F01FC94F
:105440008091D105813009F01AC9EFC38091CF0551
:10545000833009F019C98091D005813009F014C951
:10546000FAC38091D005823009F013C952C48091EB
:10547000D005833009F012C980914001882309F4D6
:105480009CC40CC98091CF05833009F00CC9809170
:10549000D005833109F007C9F9C48091CF058C325A
:1054A00009F006C98091D005803109F001C925C6EF
:1054B00080EE90E00E94F41F81E190E00E94F41FD2
:1054C00080E090E00E94F41F81E090E00E94F41FD1
:1054D00084E490E00E94F41F86E590E00E94F41FAF
:1054E0008DE490E00E94F41F85E490E00E94F41F98
:1054F00087E490E00E94F41F81E490E00E94F41F92
:1055000080E290E00E94F41F88E490E00E94F41F83
:1055100082E590E00E94F41F83E390E00E94F41F74
:105520008EE290E00E94F41F82E390E00E94F41F5C
:1055300086E390E00E94F41F81E08093BF05809392
:10554000B90584C880930901809348011092B80579
:105550001092B70510921B0210921A021092CA05FF
:105560008091E0058F3F89F48091E105873569F4EA
:105570008091E205873D49F49091E3059D3529F43A
:105580008091E405853F09F4A5C08091E00585354B
:1055900089F48091E1058D3F69F48091E2058D37B2
:1055A00049F49091E305973F29F48091E4058F3504
:1055B00009F4B3C08091B605813099F492E09093DC
:1055C000B605D0931101C09310018093C605D09306
:1055D0000F01C0930E0180934701F0924601E092C3
:1055E0004501809143019091440149970CF046C0D8
:1055F000D093C905C093C80561E28091C805909118
:10560000C90582972CF52091C6054091C805509197
:10561000C90530E021503109629FC001639F900DA0
:105620001124840F951FE091C805F091C905EF5230
:10563000FA4F2081FC01E35EFD4F20838091C80575
:105640009091C90501969093C9058093C805D5CF5F
:105650008091C6058F5F8093C6058091C6058A310B
:1056600018F081E08093C605809143019091440138
:105670000196909344018093430114C080EE90E022
:105680000E94F41F85E090E00E94F41F8FE790E0F5
:105690000E94F41F8AE190E00E94F41F85E090E0F0
:1056A0000E94F41F809141019091420101969093D4
:1056B00042018093410180914101909142010797FD
:1056C0002CF08091B605823009F44AC0109248014E
:1056D0000C942B238091DF05807F8093DF058091E0
:1056E000DF058D608093DF058091E5058F708093E5
:1056F000E5058091E50580678093E5059093E005D9
:105700008FE78093E10587E78093E2058DEF809333
:10571000E30585E78093E40538CF8091DF05807F3E
:105720008093DF058091DF0587608093DF0580919E
:10573000E5058F708093E5058091E505806D809388
:10574000E5059093E00585ED8093E1058DED80936F
:10575000E20587E58093E3058FED8093E4052ACF8A
:105760000E949814B3CF81E080930901809348018F
:105770001092B8051092B70510921B0210921A02EF
:105780001092CA058091B6058130F1F49093B60568
:10579000D0931101C09310018093C605D0930F01DF
:1057A000C0930E0180934701F0924601E0924501BB
:1057B00010920501109204011092420110924101D1
:1057C0001092440110924301809143019091440151
:1057D00007970CF047C0D093C905C093C80568E788
:1057E0008091C8059091C905893791052CF52091C4
:1057F000C6054091C8055091C90530E021503109D6
:10580000629FC001639F900D1124840F951FE0914A
:10581000C805F091C905EF52FA4F2081FC01E35E03
:10582000FD4F20838091C8059091C9050196909302
:10583000C9058093C805D4CF8091C6058F5F80933A
:10584000C6058091C605883018F081E08093C605B2
:10585000809143019091440101969093440180937B
:10586000430114C080EE90E00E94F41F85E090E0B8
:105870000E94F41F8FE790E00E94F41F80E290E006
:105880000E94F41F85E090E00E94F41F8091410186
:105890009091420101969093420180934101809141
:1058A000410190914201059724F08091B605823024
:1058B00021F0109248010C9430230E949814F9CFE3
:1058C00081E0809309011092B8051092B7051092FB
:1058D0001B0210921A021092CA059091BE059111F6
:1058E00013C08093060180931C02D0931101C093D2
:1058F0001001D0930F01C0930E0182E08093BE058A
:1059000010924201109241018091C0058934B0F09B
:1059100080EE90E00E94F41F85E090E00E94F41F6A
:105920008FE790E00E94F41F81E190E00E94F41F55
:1059300085E090E00E94F41F0C94352380919A0535
:105940008F5F80939A0580919A05853110F01092AF
:105950009A0583E090E02091100130911101FC0143
:10596000E253FA4F4081F901E35EFD4F40832091FD
:105970001001309111012F5F3F4F3093110120939F
:10598000100120911001309111012335334024F092
:10599000D0931101C093100101968F309105D9F673
:1059A0008091BE05823011F00C94352383E0809302
:1059B000BE050C94352310923C0110923D011092CB
:1059C0003E0110923F018091D50590E0A0E0B0E04B
:1059D00080933C0190933D01A0933E01B0933F0121
:1059E00080913C0190913D01A0913E01B0913F0119
:1059F000BA2FA92F982F882780933C0190933D01BF
:105A0000A0933E01B0933F012091D40580913C01C9
:105A100090913D01A0913E01B0913F01820F911DF7
:105A2000A11DB11D80933C0190933D01A0933E01C7
:105A3000B0933F0180913C0190913D01A0913E01C6
:105A4000B0913F01BA2FA92F982F882780933C014E
:105A500090933D01A0933E01B0933F012091D30567
:105A600080913C0190913D01A0913E01B0913F0198
:105A7000820F911DA11DB11D80933C0190933D01AA
:105A8000A0933E01B0933F0180913C0190913D0174
:105A9000A0913E01B0913F01BA2FA92F982F8827DE
:105AA00080933C0190933D01A0933E01B0933F0150
:105AB0002091D20580913C0190913D01A0913E0141
:105AC000B0913F01820F911DA11DB11D80933C013A
:105AD00090933D01A0933E01B0933F011092380195
